S02200004447435F413233305F365F5265765F315F305F536F6674776172652E6D6F7472
S1070000EC00FFFF0E
S1130004021E021E2005021E021E021E021E021EE3
S1130014021E021E021E021E021E021E021E021ED8
S1130024E90B0F0B021E021E72180319731AB41A79
S1130034021E021E021E021E021E021E021EF11ACD
S1130044471D841DC51D021E021E021E021E8905B3
S1130054021E021E021E021E021E021E021E021E98
S1130064021E021E021E021E021E021E021E021E88
S10F0074021E021E021E021E021E021EBC
S10700C0EFF3E00472
S10D00C4000000000000000000002E
S11300D8DF2EDF2E4130722DFF0101003200320085
S11300E8EC00EFFECBF8DCFE410061CF34D80036DB
S11300F800DF61DF3600DF3010DF27311E440000E7
S1130108DD0EB161CF11A9BBA5A5A7A761DFEFEDEE
S113011861CF30000061DF3050E03610DF27311E38
S1130128440000DD0AB161CFBBA7A761DFEFF1612D
S1130138CFFCB31E0000300000C1C1C1FCC41E00C6
S1130148EFFEA80414A80616A808440000DD0A0750
S1130158128BA799A51347DFF8A804BDF0D7C9F0F7
S1130168A0FFADF0BDF2EAF2F199C9F0A1FFADF03C
S1130178BDF4FAF48B9DF26AF280ADF0EAF48DF2E4
S113018899C9F0A4FFADF0BDF4FAF48B9DF25AF2CC
S1130198EFADF0EAF48DF299C9F0A1FFADF0BDF42A
S11301A8FAF48B9DF26AF240ADF0EAF48DF299C943
S11301B8F0F300ADF0BDF2EAF2511099C9F0A4FFD2
S11301C8ADF0BDF4FAF48B9DF25AF2BFADF0EAF447
S11301D88DF299C9F0A1FFADF0BDF4FAF48B9DF24C
S11301E85AF2FEADF0EAF48DF299D72002C9F0A8CC
S11301F8FFADF0BDF2FAF28B9DF098011002D7C959
S1130208F0E4FFADF0BDF4FAF48B9DF26AF204ADAC
S1130218F0EAF48DF299C9F0E0FFADF0BDF4FAF418
S11302288B9DF25AF2FBADF0EAF48DF299C9F0E431
S1130238FFADF0BDF4FAF48B9DF26AF208ADF0EA72
S1130248F48DF299C9F0E0FFADF0BDF4FAF48B9D9A
S1130258F25AF2F7ADF0EAF48DF299C9F0E4FFAD81
S1130268F0BDF4FAF48B9DF26AF210ADF0EAF48D65
S1130278F299C9F0E0FFADF0BDF4FAF48B9DF25A9F
S1130288F2EFADF0EAF48DF299C9F0E4FFADF0BDF8
S1130298F4FAF48B9DF26AF220ADF0EAF48DF29947
S11302A8C9F0E0FFADF0BDF4FAF48B9DF25AF2DF29
S11302B8ADF0EAF48DF299C9F0E4FFADF0BDF4FABB
S11302C8F48B9DF26AF240ADF0EAF48DF299C9F02C
S11302D8E0FFADF0BDF4FAF48B9DF25AF2BFADF035
S11302E8EAF48DF299C9F0E4FFADF0BDF4FAF48BA9
S11302F89DF26AF280ADF0EAF48DF299C9F0E0FF5C
S1130308ADF0BDF4FAF48B9DF25AF27FADF0EAF445
S11303188DF299C9F0D4FFADF0BDF4FAF48B9DF2D7
S11303286AF208ADF0EAF48DF299C9F0D0FFADF0A5
S1130338BDF4FAF48B9DF25AF2F7ADF0EAF48DF2BB
S113034899C9F0D4FFADF0BDF4FAF48B9DF26AF2CA
S113035810ADF0EAF48DF299C9F0D0FFADF0BDF418
S1130368FAF48B9DF25AF2EFADF0EAF48DF299C9E2
S1130378F0D4FFADF0BDF4FAF48B9DF26AF220AD2F
S1130388F0EAF48DF299C9F0D0FFADF0BDF4FAF4B7
S11303988B9DF25AF2DFADF0EAF48DF299C9F0D4EC
S11303A8FFADF0BDF4FAF48B9DF26AF240ADF0EAC9
S11303B8F48DF299C9F0D0FFADF0BDF4FAF48B9D39
S11303C8F25AF2BFADF0EAF48DF299C9F0D4FFAD58
S11303D8F0BDF4FAF48B9DF26AF280ADF0EAF48D84
S11303E8F299C9F0D0FFADF0BDF4FAF48B9DF25A3E
S11303F8F27FADF0EAF48DF299C9F0D5FFADF0BD06
S1130408F4FAF48B9DF26AF201ADF0EAF48DF299F4
S1130418C9F0D1FFADF0BDF4FAF48B9DF25AF2FEA7
S1130428ADF0EAF48DF299C9F0ECFFADF0BDF4FA41
S1130438F48B9DF25AF2FBADF0EAF48DF299C9F00F
S1130448E8FFADF0BDF4FAF48B9DF26AF204ADF066
S1130458EAF48DF299C9F0DCFFADF0BDF4FAF48B3F
S11304689DF25AF27FADF0EAF48DF299C9F0D8FF03
S1130478ADF0BDF4FAF48B9DF25AF27FADF0EAF4D4
S11304888DF299C9F038FFADF0BDF2EAF2E199C9ED
S1130498F03BFFADF0BDF4EAF4510499C9F227FF2B
S11304A8C9F027FFADF0BDF4FAF48B9DF06AF04073
S11304B8ADF2BDF4EAF48DF099D7C9F0E0FFADF0E0
S11304C8BDF4FAF48B9DF25AF2FBADF0EAF48DF226
S11304D899C9F0E4FFADF0BDF4FAF48B9DF25AF239
S11304E8FBADF0EAF48DF299D7C9F0E4FFADF0BDA5
S11304F8F4FAF48B9DF26AF204ADF0EAF48DF29901
S1130508C9F0E0FFADF0BDF4FAF48B9DF25AF2FBAA
S1130518ADF0EAF48DF299D761CFC1C3C5C761DFE5
S1130528C1C3C5C761CF8EFDC1C9F003FFADF0BD1E
S1130538F4FAF48B9DF26AF201ADF0EAF48DF299C3
S1130548FCAA1600C9F264FFAF00DFBDF0ADF2BD2E
S1130558F4EAF4ADF0B9C9F26CFFAF02DFBDF0AD57
S1130568F2BDF4EAF4ADF0B9FCE21400FC42170061
S1130578C09EFD61DFC6C4C2C061CFC6C4C2C0612B
S1130588FC61CFC1C3C5C78EFDC1C09EFDC6C4C230
S1130598C061FC51189F26DFF527DFD720028F287A
S11305A8DF9DF04AF00161E8ECFD0500A806BDF006
S11305B8BF2ADFA808BDF0BF2CDFA80ABDF0BF2EF4
S11305C8DF51049F30DF302ADFB800FCDC7E008D69
S11305D8F09F32DFECEB05000000FC497F008DF052
S11305E89F32DF8F32DF9DF04AF0FF61F8ECE005BF
S11305F800EC02060051109F32DF8F32DF9DF010AD
S113060802D720028F28DF9DF04AF00161E8EC440C
S11306180600A806BDF0BF2ADFA808BDF0BF2CDF7E
S1130628A80ABDF0BF2EDFF530DF302ADFB800FCA2
S1130638DC7E008DF09F32DFEC49060051109F32BA
S1130648DF8F32DF9DF01002D720028F28DF9DF064
S11306584AF00161E8EC9C0600A806BDF0BF2ADF59
S113066851039F30DF302ADFB800FCDC7E008DF0B8
S11306789F32DFEC8A06000000FC497F008DF09F62
S113068832DF8F32DF9DF04AF0FF61F8EC7F06001D
S1130698ECA1060051109F32DF8F32DF9DF010026B
S11306A8D7200251189F26DFF527DF3026DFB80050
S11306B8FCB77E00E528DF1002D7FC557F00F5283B
S11306C8DFD720028F28DF9DF04AF00161E8EC1C97
S11306D80700A806BDF0BF2ADFA808BDF0BF2EDFBB
S11306E851089F30DF302ADFB800FCDC7E008DF033
S11306F89F32DFEC0A07000000FC497F008DF09F61
S113070832DF8F32DF9DF04AF0FF61F8ECFF06001C
S1130718EC21070051109F32DF8F32DF9DF0100269
S1130728D720028F28DF9DF04AF00161E8EC7B07AF
S113073800A806BDF0BF2ADFA808BDF0BF2EDF5110
S1130748069F30DF302ADFB800FCDC7E008DF09F86
S113075832DFEC6907000000FC497F008DF09F320E
S1130768DF8F32DF9DF04AF0FF61F8EC5E0700ECA2
S113077880070051109F32DF8F32DF9DF01002D7BF
S1130788C9F000FFADF0BDF2EAF2516099C9F00179
S1130798FFADF0BDF2EAF2F199C9F002FFADF0BD88
S11307A8F2EAF2F199C9F003FFADF0BDF2EAF2F111
S11307B899C9F005FFADF0BDF2EAF2F199C9F00E5E
S11307C8FFADF0BDF2EAF2F199C9F06C00ADF0BDED
S11307D8F2EAF251FE99C9F06E00ADF0BDF2EAF208
S11307E8517F99C9F07600ADF0BDF2EAF2E199C9FA
S11307F8F020FFADF0BDF2EAF2519F99C9F021FF54
S1130808ADF0BDF2EAF2514099C9F022FFADF0BD56
S1130818F2EAF2F199C9F023FFADF0BDF2EAF25120
S1130828FE99C9F024FFADF0BDF2EAF251FF99C96F
S1130838F025FFADF0BDF2EAF251C399C9F026FFE5
S1130848ADF0BDF2EAF251FF99C9F027FFADF0BD52
S1130858F2EAF251FF99C9F02CFFADF0BDF2EAF2C9
S113086851FF99C9F02EFFADF0BDF2EAF251BF99DC
S1130878D7C9F0F000ADF0BDF4FAF48B9DF26AF23A
S113088804ADF0EAF48DF29900000000C9F02601E5
S1130898ADF0BDF2EAF2304400B9FCA70800D7C9AC
S11308A8F22401C9F02401ADF0BDF4FAF4ABBDF0B3
S11308B86AF00CADF2BDF4EAF4ADF0B9C9F0E6FFA4
S11308C8ADF0BDF4FAF48B9DF26AF201ADF0EAF4EE
S11308D88DF299C9F0E2FFADF0BDF4FAF48B9DF204
S11308E85AF2FEADF0EAF48DF299C9F0E6FFADF0E4
S11308F8BDF4FAF48B9DF26AF202ADF0EAF48DF2DB
S113090899C9F0E2FFADF0BDF4FAF48B9DF25AF206
S1130918FDADF0EAF48DF299C9F0E6FFADF0BDF44F
S1130928FAF48B9DF26AF204ADF0EAF48DF299C9F7
S1130938F0E2FFADF0BDF4FAF48B9DF25AF2FBAD90
S1130948F0EAF48DF299C9F0EEFFADF0BDF4FAF4D3
S11309588B9DF26AF201ADF0EAF48DF299C9F0EADE
S1130968FFADF0BDF4FAF48B9DF26AF201ADF0EA42
S1130978F48DF299C9F0EEFFADF0BDF4FAF48B9D55
S1130988F26AF202ADF0EAF48DF299C9F0EAFFAD29
S1130998F0BDF4FAF48B9DF26AF202ADF0EAF48D3C
S11309A8F299C9F01401ADF0BDF2EAF2302200B9AF
S11309B8C9F01C01ADF0BDF4EAF4309780B9C9F070
S11309C844FFADF0BDF2EAF230009AB9C9F2700002
S11309D8C9F07000ADF0BDF4FAF48B9DF06AF00430
S11309E8ADF2BDF4EAF48DF099C9F00E01ADF0BD95
S11309F8F2EAF2300700B9C9F01601ADF0BDF4EA25
S1130A08F4302201B9C9F01E01ADF0BDF2EAF230AA
S1130A189740B9C9F046FFADF0BDF4EAF430009A46
S1130A28B9C9F22801C9F02801ADF0BDF4FAF4AB54
S1130A38BDF06AF004ADF2BDF4EAF4ADF0B9C9F260
S1130A483401C9F03401ADF0BDF4FAF4ABBDF0AD36
S1130A58F2BDF4EAF4ADF0B9C9F22A01C9F02A01E9
S1130A68ADF0BDF4FAF4ABBDF06AF004ADF2BDF438
S1130A78EAF4ADF0B9C9F26000C9F06000ADF0BDA8
S1130A88F4FAF48B9DF05AF0F7ADF2BDF4EAF48D64
S1130A98F099C9F220FFC9F020FFADF0BDF4FAF4D3
S1130AA88B9DF06AF008ADF2BDF4EAF48DF099C9B3
S1130AB8F26000C9F06000ADF0BDF4FAF48B9DF06B
S1130AC85AF0FBADF2BDF4EAF48DF099C9F200FFD7
S1130AD8C9F000FFADF0BDF4FAF48B9DF06AF004A0
S1130AE8ADF2BDF4EAF48DF099C9F220FFC9F02003
S1130AF8FFADF0BDF4FAF48B9DF05AF0FBADF2BDF6
S1130B08F4EAF48DF099D761CFC1C3C5C761DFC1D9
S1130B18C3C5C761CF8EFDC12004C9F00601ADF07D
S1130B28BDF2FAF2ABBDF05AF0078DF09802C9F2A3
S1130B380E0188029DF0F4F1ADF2BDF4EAF4ADF0D3
S1130B48B988029DF0D4F061F8EC5F0B0088029D2F
S1130B58F09800FC550C00C9F046FFADF0BDF2FA60
S1130B68F28B9DF09803AF34DFBDF2AF36DFBDF0F2
S1130B78ADF246F061E3ECC80B00AF38DFBDF08896
S1130B88039DF2ADF0BDF4EAF48DF299AF38DFBD00
S1130B98F0A6F0ADF0BF38DFAF36DFBDF0A6F0AD9C
S1130BA8F0BF36DFAF34DFBDF2AF36DFBDF0ADF2F4
S1130BB846F061E8ECD60B00FC520C00ECD60B00B6
S1130BC888039DF0F4F1ADF0B800FC530C00100458
S1130BD8C09EFD61DFC6C4C2C061CFC6C4C2C061C5
S1130BE8FC61CFC1C3C5C761DFC1C3C5C761CF8EAF
S1130BF8FDC1AF3CDFBDF044000061F8EC3D0C00E2
S1130C08C9F244FFAF3ADFBDF0BDF4FAF48B9DF0AE
S1130C18ADF2BDF4EAF48DF099AF3ADFBDF0A6F079
S1130C28ADF0BF3ADFAF3CDFBDF0B6F0ADF0BF3C8E
S1130C38DFEC410C00FC540C00C09EFD61DFC6C40F
S1130C48C2C061CFC6C4C2C061FCD7D7D7D7C9F068
S1130C58F000ADF0BDF4FAF48B9DF26AF201ADF048
S1130C68EAF48DF299C9F0B601ADF0BDF2EAF230BA
S1130C788200B9C9F0B401ADF0BDF4EAF430FF0A5A
S1130C88B9C9F0E6FFADF0BDF4FAF48B9DF26AF24F
S1130C9810ADF0EAF48DF299C9F0E2FFADF0BDF4BD
S1130CA8FAF48B9DF25AF2EFADF0EAF48DF299C999
S1130CB8F0E6FFADF0BDF4FAF48B9DF26AF220ADD4
S1130CC8F0EAF48DF299C9F0E2FFADF0BDF4FAF45C
S1130CD88B9DF25AF2DFADF0EAF48DF299C9F0E592
S1130CE8FFADF0BDF4FAF48B9DF26AF280ADF0EA40
S1130CF8F48DF299C9F0E1FFADF0BDF4FAF48B9DDF
S1130D08F25AF27FADF0EAF48DF299C9F0E6FFAD3C
S1130D18F0BDF4FAF48B9DF26AF240ADF0EAF48D7A
S1130D28F299C9F0E2FFADF0BDF4FAF48B9DF25AE2
S1130D38F2BFADF0EAF48DF299C9F0E6FFADF0BD6B
S1130D48F4FAF48B9DF26AF280ADF0EAF48DF2992C
S1130D58C9F0E2FFADF0BDF4FAF48B9DF25AF27FCC
S1130D68ADF0EAF48DF299C9F0E6FFADF0BDF4FAFE
S1130D78F48B9DF26AF204ADF0EAF48DF299C9F0AD
S1130D88E2FFADF0BDF4FAF48B9DF25AF2FBADF03C
S1130D98EAF48DF299C9F0E7FFADF0BDF4FAF48BEB
S1130DA89DF26AF280ADF0EAF48DF299C9F0E3FF9E
S1130DB8ADF0BDF4FAF48B9DF25AF27FADF0EAF48B
S1130DC88DF299C9F0D4FFADF0BDF4FAF48B9DF21D
S1130DD86AF201ADF0EAF48DF299C9F0D0FFADF0F2
S1130DE8BDF4FAF48B9DF25AF2FEADF0EAF48DF2FA
S1130DF899C9F0D4FFADF0BDF4FAF48B9DF26AF210
S1130E0802ADF0EAF48DF299C9F0D0FFADF0BDF46B
S1130E18FAF48B9DF25AF2FDADF0EAF48DF299C919
S1130E28F0D4FFADF0BDF4FAF48B9DF26AF204AD90
S1130E38F0EAF48DF299C9F0D0FFADF0BDF4FAF4FC
S1130E488B9DF25AF2FBADF0EAF48DF299C9F0EEFB
S1130E58FFADF0BDF4FAF48B9DF26AF210ADF0EA3E
S1130E68F48DF299C9F0EAFFADF0BDF4FAF48B9D64
S1130E78F26AF210ADF0EAF48DF299C9F0EEFFAD22
S1130E88F0BDF4FAF48B9DF26AF220ADF0EAF48D29
S1130E98F299C9F0EAFFADF0BDF4FAF48B9DF26A59
S1130EA8F220ADF0EAF48DF299C9F0EEFFADF0BD91
S1130EB8F4FAF48B9DF26AF240ADF0EAF48DF299FB
S1130EC8C9F0EAFFADF0BDF4FAF48B9DF26AF24082
S1130ED8ADF0EAF48DF299C9F0EEFFADF0BDF4FA85
S1130EE8F48B9DF26AF280ADF0EAF48DF299C9F0C0
S1130EF8EAFFADF0BDF4FAF48B9DF25AF27FADF03F
S1130F08EAF48DF299C9F0EFFFADF0BDF4FAF48B71
S1130F189DF26AF280ADF0EAF48DF299C9F0EBFF24
S1130F28ADF0BDF4FAF48B9DF26AF280ADF0EAF408
S1130F388DF299C9F0DCFFADF0BDF4FAF48B9DF2A3
S1130F486AF201ADF0EAF48DF299C9F0D8FFADF078
S1130F58BDF4FAF48B9DF25AF2FEADF0EAF48DF288
S1130F6899C9F0DCFFADF0BDF4FAF48B9DF26AF296
S1130F7802ADF0EAF48DF299C9F0D8FFADF0BDF4F2
S1130F88FAF48B9DF26AF202ADF0EAF48DF299C993
S1130F98F0DCFFADF0BDF4FAF48B9DF26AF204AD17
S1130FA8F0EAF48DF299C9F0D8FFADF0BDF4FAF483
S1130FB88B9DF25AF2FBADF0EAF48DF299C9F090E8
S1130FC801ADF0BDF2EAF2F6B9C9F018FFADF0BD13
S1130FD8F4EAF4302F75B9C9F2B801C9F0B801AD13
S1130FE8F0BDF4FAF4ABBDF05AF0FEADF2BDF4EA8C
S1130FF8F4ADF0B9C9F2BA01C9F0BA01ADF0BDF463
S1131008FAF4ABBDF05AF0FEADF2BDF4EAF4ADF07B
S1131018B9C9F09201ADF0BDF2EAF2F6B9C9F01A15
S1131028FFADF0BDF4EAF4305FEAB9C9F2BE01C914
S1131038F0BE01ADF0BDF4FAF4ABBDF05AF0FDAD6D
S1131048F2BDF4EAF4ADF0B9C9F2BC01C9F0BC01CF
S1131058ADF0BDF4FAF4ABBDF05AF0FDADF2BDF459
S1131068EAF4ADF0B9C9F2B801C9F0B801ADF0BD00
S1131078F4FAF4ABBDF05AF0FDADF2BDF4EAF4AD08
S1131088F0B9C9F2BA01C9F0BA01ADF0BDF4FAF485
S1131098ABBDF05AF0FDADF2BDF4EAF4ADF0B9C958
S11310A8F09401ADF0BDF2EAF2F6B9C9F064FFAD0F
S11310B8F0BDF4EAF4306F17B9C9F2BE01C9F0BE45
S11310C801ADF0BDF4FAF4ABBDF05AF0FBADF2BDDE
S11310D8F4EAF4ADF0B9C9F2BC01C9F0BC01ADF051
S11310E8BDF4FAF4ABBDF05AF0FBADF2BDF4EAF48A
S11310F8ADF0B9C9F2B801C9F0B801ADF0BDF4FA60
S1131108F4ABBDF05AF0FBADF2BDF4EAF4ADF0B9BE
S1131118C9F2BA01C9F0BA01ADF0BDF4FAF4ABBD35
S1131128F05AF0FBADF2BDF4EAF4ADF0B9C9F096AB
S113113801ADF0BDF2EAF2F6B9C9F066FFADF0BD53
S1131148F4EAF4306F17B9C9F2BE01C9F0BE01ADB3
S1131158F0BDF4FAF4ABBDF05AF0F7ADF2BDF4EA21
S1131168F4ADF0B9C9F2BC01C9F0BC01ADF0BDF4ED
S1131178FAF4ABBDF05AF0F7ADF2BDF4EAF4ADF011
S1131188B9C9F2B801C9F0B801ADF0BDF4FAF4ABCD
S1131198BDF05AF0F7ADF2BDF4EAF4ADF0B9C9F216
S11311A8BA01C9F0BA01ADF0BDF4FAF4ABBDF05A16
S11311B8F0F7ADF2BDF4EAF4ADF0B9C9F09801ADB9
S11311C8F0BDF2EAF2300080B9C9F068FFADF0BDB5
S11311D8F4EAF4301AB7B9C9F2BE01C9F0BE01ADD8
S11311E8F0BDF4FAF4ABBDF05AF0EFADF2BDF4EA99
S11311F8F4ADF0B9C9F2BC01C9F0BC01ADF0BDF45D
S1131208FAF4ABBDF05AF0EFADF2BDF4EAF4ADF088
S1131218B9C9F2B801C9F0B801ADF0BDF4FAF4AB3C
S1131228BDF05AF0EFADF2BDF4EAF4ADF0B9C9F28D
S1131238BA01C9F0BA01ADF0BDF4FAF4ABBDF05A85
S1131248F0EFADF2BDF4EAF4ADF0B9C9F09A01AD2E
S1131258F0BDF2EAF2F6B9C9F06AFFADF0BDF4EAFE
S1131268F4306F17B9C9F2BE01C9F0BE01ADF0BDC3
S1131278F4FAF4ABBDF05AF0DFADF2BDF4EAF4AD24
S1131288F0B9C9F2BC01C9F0BC01ADF0BDF4FAF47F
S1131298ABBDF05AF0DFADF2BDF4EAF4ADF0B9C974
S11312A8F2B801C9F0B801ADF0BDF4FAF4ABBDF081
S11312B85AF0DFADF2BDF4EAF4ADF0B9C9F2BA01FF
S11312C8C9F0BA01ADF0BDF4FAF4ABBDF05AF0DFE1
S11312D8ADF2BDF4EAF4ADF0B9C9F09C01ADF0BDCE
S11312E8F2EAF2F6B9C9F06CFFADF0BDF4EAF430F5
S11312F86F17B9C9F2BE01C9F0BE01ADF0BDF4FA69
S1131308F4ABBDF05AF0BFADF2BDF4EAF4ADF0B9F8
S1131318C9F2BC01C9F0BC01ADF0BDF4FAF4ABBD2F
S1131328F05AF0BFADF2BDF4EAF4ADF0B9C9F2B8C1
S113133801C9F0B801ADF0BDF4FAF4ABBDF05AF050
S1131348BFADF2BDF4EAF4ADF0B9C9F2BA01C9F01F
S1131358BA01ADF0BDF4FAF4ABBDF05AF0BFADF28A
S1131368BDF4EAF4ADF0B9C9F09E01ADF0BDF2EAFE
S1131378F2F6B9C9F06EFFADF0BDF4EAF4306F17B8
S1131388B9C9F2BE01C9F0BE01ADF0BDF4FAF4ABBF
S1131398BDF05AF07FADF2BDF4EAF4ADF0B9C9F28C
S11313A8BC01C9F0BC01ADF0BDF4FAF4ABBDF05A10
S11313B8F07FADF2BDF4EAF4ADF0B9C9F2B801C9F1
S11313C8F0B801ADF0BDF4FAF4ABBDF05AF07FAD5E
S11313D8F2BDF4EAF4ADF0B9C9F2BA01C9F0BA0140
S11313E8ADF0BDF4FAF4ABBDF05AF07FADF2BDF444
S11313F8EAF4ADF0B9D7C9F0E2FFADF0BDF4FAF400
S11314088B9DF25AF2EFADF0EAF48DF299C9F0E649
S1131418FFADF0BDF4FAF48B9DF25AF2EFADF0EAA9
S1131428F48DF299C9F2B201C9F0B201ADF0BDF47C
S1131438FAF4ABBDF06AF001ADF2BDF4EAF4ADF034
S1131448B9D7C9F0E2FFADF0BDF4FAF48B9DF25AB6
S1131458F2DFADF0EAF48DF299C9F0E6FFADF0BD24
S1131468F4FAF48B9DF25AF2DFADF0EAF48DF299B6
S1131478C9F2B201C9F0B201ADF0BDF4FAF4ABBDE2
S1131488F06AF002ADF2BDF4EAF4ADF0B9D7C9F2EE
S1131498B401C9F0B401ADF0BDF4FAF4ABBDF06A1F
S11314A8F002ADF2BDF4EAF4ADF0B9C9F0E6FFAD6F
S11314B8F0BDF4FAF48B9DF26AF220ADF0EAF48DF3
S11314C8F299C9F0E2FFADF0BDF4FAF48B9DF25A3B
S11314D8F2DFADF0EAF48DF299D7C9F0E2FFADF08E
S11314E8BDF4FAF48B9DF25AF2BFADF0EAF48DF232
S11314F899C9F0E6FFADF0BDF4FAF48B9DF25AF207
S1131508BFADF0EAF48DF299C9F2B201C9F0B201A3
S1131518ADF0BDF4FAF4ABBDF06AF004ADF2BDF47D
S1131528EAF4ADF0B9D7C9F2B401C9F0B401ADF029
S1131538BDF4FAF4ABBDF06AF004ADF2BDF4EAF41C
S1131548ADF0B9C9F0E6FFADF0BDF4FAF48B9DF245
S11315586AF240ADF0EAF48DF299C9F0E2FFADF019
S1131568BDF4FAF48B9DF25AF2BFADF0EAF48DF2B1
S113157899D7C9F0E2FFADF0BDF4FAF48B9DF25AA5
S1131588F27FADF0EAF48DF299C9F0E6FFADF0BD53
S1131598F4FAF48B9DF25AF27FADF0EAF48DF299E5
S11315A8C9F2B201C9F0B201ADF0BDF4FAF4ABBDB1
S11315B8F06AF008ADF2BDF4EAF4ADF0B9D7C9F2B7
S11315C8B401C9F0B401ADF0BDF4FAF4ABBDF06AEE
S11315D8F008ADF2BDF4EAF4ADF0B9C9F0E6FFAD38
S11315E8F0BDF4FAF48B9DF26AF280ADF0EAF48D62
S11315F8F299C9F0E2FFADF0BDF4FAF48B9DF25A0A
S1131608F27FADF0EAF48DF299D7C9F0E3FFADF0BB
S1131618BDF4FAF48B9DF25AF27FADF0EAF48DF240
S113162899C9F0E7FFADF0BDF4FAF48B9DF25AF2D4
S11316387FADF0EAF48DF299C9F2B201C9F0B201B2
S1131648ADF0BDF4FAF4ABBDF06AF010ADF2BDF440
S1131658EAF4ADF0B9D7C9F2B401C9F0B401ADF0F8
S1131668BDF4FAF4ABBDF06AF010ADF2BDF4EAF4DF
S1131678ADF0B9C9F0E7FFADF0BDF4FAF48B9DF213
S11316886AF280ADF0EAF48DF299C9F0E3FFADF0A7
S1131698BDF4FAF48B9DF25AF27FADF0EAF48DF2C0
S11316A899D7C9F0D0FFADF0BDF4FAF48B9DF25A86
S11316B8F2FEADF0EAF48DF299C9F0D4FFADF0BDB5
S11316C8F4FAF48B9DF25AF2FEADF0EAF48DF29935
S11316D8C9F2B201C9F0B201ADF0BDF4FAF4ABBD80
S11316E8F06AF020ADF2BDF4EAF4ADF0B9D7C9F26E
S11316F8B401C9F0B401ADF0BDF4FAF4ABBDF06ABD
S1131708F020ADF2BDF4EAF4ADF0B9C9F0D4FFAD00
S1131718F0BDF4FAF48B9DF26AF201ADF0EAF48DAF
S1131728F299C9F0D0FFADF0BDF4FAF48B9DF25AEA
S1131738F2FEADF0EAF48DF299D7C9F0D0FFADF01E
S1131748BDF4FAF48B9DF25AF2FDADF0EAF48DF291
S113175899C9F0D4FFADF0BDF4FAF48B9DF25AF2B6
S1131768FDADF0EAF48DF299C9F2B201C9F0B20103
S1131778ADF0BDF4FAF4ABBDF06AF040ADF2BDF4DF
S1131788EAF4ADF0B9D7C9F2B401C9F0B401ADF0C7
S1131798BDF4FAF4ABBDF06AF040ADF2BDF4EAF47E
S11317A8ADF0B9C9F0D4FFADF0BDF4FAF48B9DF2F5
S11317B86AF202ADF0EAF48DF299C9F0D0FFADF007
S11317C8BDF4FAF48B9DF25AF2FDADF0EAF48DF211
S11317D899D7C9F0D0FFADF0BDF4FAF48B9DF25A55
S11317E8F2FBADF0EAF48DF299C9F0D4FFADF0BD87
S11317F8F4FAF48B9DF25AF2FBADF0EAF48DF29907
S1131808C9F2B201C9F0B201ADF0BDF4FAF4ABBD4E
S1131818F06AF080ADF2BDF4EAF4ADF0B9D7C9F2DC
S1131828B401C9F0B401ADF0BDF4FAF4ABBDF06A8B
S1131838F080ADF2BDF4EAF4ADF0B9C9F0D4FFAD6F
S1131848F0BDF4FAF48B9DF26AF204ADF0EAF48D7B
S1131858F299C9F0D0FFADF0BDF4FAF48B9DF25AB9
S1131868F2FBADF0EAF48DF299D761CFC1C3C5C7D5
S113187861DFC1C3C5C761CF8EFDC1AF4EE0BDF006
S1131888A6F0ADF0BF4EE0BDF05AF001F4F1ADF0B2
S113189844000061E8ECBB1800AF4AE0BDF0440026
S11318A80061F8ECBB1800AF4CE0BDF0A6F0ADF059
S11318B8BF4CE08F4CDF9DF0A4F08DF09F4CDF9D72
S11318C8F04AF00461E8ECD51800F54CDF8F11DF1D
S11318D89DF0D4F061E8ECEE1800FC003900FC40FF
S11318E82500ECF21800FCAE2300C09EFD61DFC6A3
S11318F8C4C2C061CFC6C4C2C061FC61CFC1C3C584
S1131908C761DFC1C3C5C761CF8EFDC1AF3EDFBDAF
S1131918F0A6F0ADF0BF3EDF8F16DF9DF04AF0026F
S113192861F8EC3C19008F16DF9DF04AF00461E879
S1131938EC481900AF40DFBDF0A6F0ADF0BF40DFC2
S11319488F17DF9DF04AF00261F8EC6419008F17D5
S1131958DF9DF04AF00461E8EC701900AF42DFBD86
S1131968F0A6F0ADF0BF42DF8F15DF9DF04AF0011D
S113197861E8EC981900AF44DFBDF0A6F0ADF0BF04
S113198844DFBDF044030061E8EC981900F515DF65
S11319988F14DF9DF04AF00161E8ECCD1900AF46E1
S11319A8DFBDF0A6F0ADF0BF46DF8F37E09DF03124
S11319B88EBDF2AF46DFBDF0ADF246F061E8ECCD86
S11319C81900F514DF8F13DF9DF0D4F061F8ECDE15
S11319D81900FC6C30008F23DF9DF04AF00161E8A8
S11319E8ECFF1900AF00DFBDF2AF0CDFBDF0ADF2C4
S11319F826F0BDF0BF00DF8F24DF9DF04AF00161BF
S1131A08E8EC201A00AF02DFBDF2AF0CDFBDF0AD89
S1131A18F226F0BDF0BF02DF8F23DF9DF04AF00508
S1131A2861E8EC411A00AF00DFBDF2AF0EDFBDF094
S1131A38ADF206F0BDF0BF00DF8F24DF9DF04AF061
S1131A480561E8EC621A00AF02DFBDF2AF0EDFBD3C
S1131A58F0ADF206F0BDF0BF02DFC09EFD61DFC647
S1131A68C4C2C061CFC6C4C2C061FC61CFC1C3C512
S1131A78C761DFC1C3C5C761CF8EFDC1FC2E150088
S1131A88C9F000FFADF0BDF4FAF48B9DF25AF2BF31
S1131A98ADF0EAF48DF299FC7A1500C09EFD61DF81
S1131AA8C6C4C2C061CFC6C4C2C061FC61CFC1C3D1
S1131AB8C5C761DFC1C3C5C761CF8EFDC1C9F00009
S1131AC8FFADF0BDF4FAF48B9DF26AF240ADF0EA92
S1131AD8F48DF299FCC61500C09EFD61DFC6C4C230
S1131AE8C061CFC6C4C2C061FC61CFC1C3C5C761F0
S1131AF8DFC1C3C561CF8EFDC18F10DF9DF04AF0F1
S1131B080161E8EC281B008F08DF9DF07AF0FF8D57
S1131B18F09F08DF8F49DF9DF0A4F08DF09F49DF27
S1131B288F60DF9DF04AF00161E8EC7F1B008F664F
S1131B38DF9DF0A4F08DF09F66DFC9F002FFC9F2C3
S1131B4802FFADF2BDF4FAF48B9DF2317A9DF27284
S1131B58E1612A9DF25AF2018DF231799DF2ADF0DC
S1131B68BDF4FAF48B9DF35AF37F8DF36BF29DF277
S1131B78ADF0EAF48DF2998F12DF9DF04AF001611D
S1131B88E8ECF21C008F54DF9DF04AF00261E8ECA7
S1131B98DF1B00C9F202FFC9F002FFADF0BDF4FA81
S1131BA8F48B9DF0311A9DF05AF0017AF0FF5AF047
S1131BB8015AF0018DF061019DF0ADF2BDF4FAF423
S1131BC88B9DF15AF1FD8DF16BF09DF0ADF2EAF4C5
S1131BD88DF099ECF21C008F54DF9DF04AF00161FE
S1131BE8E8EC4B1C008F48DF9DF0A4F08DF09F4873
S1131BF8DF9DF04AF00361E8ECF21C00F548DFC908
S1131C08F202FFC9F002FFADF0BDF4FAF48B9DF0C7
S1131C18311A9DF05AF0017AF0FF5AF0015AF00196
S1131C288DF061019DF0ADF2BDF4FAF48B9DF15A8B
S1131C38F1FD8DF16BF09DF0ADF2EAF48DF099ECC5
S1131C48F21C008F54DF9DF04AF00361E8ECF21CAB
S1131C58008F48DF9DF0A4F08DF09F48DF9DF04A87
S1131C68F00361E8ECA41C00C9F002FFADF0BDF27A
S1131C78FAF28B9DF0311A9DF05AF00161E8ECA458
S1131C881C00F548DFC9F002FFADF0BDF4FAF48B8F
S1131C989DF26AF202ADF0EAF48DF2998F48DF9D65
S1131CA8F0A4F08DF09F48DF9DF04AF00661E8EC5F
S1131CB8F21C00C9F002FFADF0BDF2FAF28B9DF000
S1131CC8311A9DF05AF0014AF00161E8ECF21C0067
S1131CD8F548DFC9F002FFADF0BDF4FAF48B9DF2CC
S1131CE85AF2FDADF0EAF48DF2998F22DF9DF04AA5
S1131CF8F00161E8EC371D00AF6EDFBDF0A6F0AD72
S1131D08F0BF6EDFBDF2AF6CDFBDF0ADF246F0613F
S1131D18E8EC371D00F522DFC9F002FFADF0BDF491
S1131D28FAF48B9DF25AF2FEADF0EAF48DF299C002
S1131D389EFD61DFC4C2C061CFC6C4C2C061FC617C
S1131D48CFC1C3C5C761DFC1C3C5C761CF8EFDC1DC
S1131D58C9F003FFADF0BDF4FAF48B9DF25AF2FE1C
S1131D68ADF0EAF48DF299FCF61600C09EFD61DF31
S1131D78C6C4C2C061CFC6C4C2C061FC61CFC1C3FE
S1131D88C5C761DFC1C3C5C761CF8EFDC1FC8E174E
S1131D9800C9F000FFADF0BDF4FAF48B9DF25AF2DD
S1131DA8DFADF0EAF48DF299FCDA1700C09EFD610C
S1131DB8DFC6C4C2C061CFC6C4C2C061FC61CFC1A2
S1131DC8C3C5C761DFC1C3C5C761CF8EFDC1C9F033
S1131DD800FFADF0BDF4FAF48B9DF26AF220ADF089
S1131DE8EAF48DF299FC261800C09EFD61DFC6C492
S1131DF8C2C061CFC6C4C2C061FC61CFC1C3C5C77C
S1131E088EFDC1C09EFDC6C4C2C061FC61EFC1C3E2
S1131E1861CF2008C9F07700ADF0BDF2EAF2F1997C
S1131E28FCF30100FC660100FC880700FC7908004B
S1131E38FC560C00FC070200C9F07800ADF0BDF4B4
S1131E48EAF4F199C9F09000ADF0BDF4FAF48B9D71
S1131E58F26AF201ADF0EAF48DF299F6B804F6B834
S1131E6806EC901E0000A804BDF0B800A806BDF258
S1131E78B802A800040100BDF0A80261D8A1BDF20F
S1131E88ADF0B804ADF2B806A804BDE8A806BDEAEA
S1131E98ADEA440000ADE861F844090061E3EC6D83
S1131EA81E00100861EFC2C061CFD72002717BFA0F
S1131EB8FC141E00E6B800BDF01002D72006FC8909
S1131EC81F003004DFB800303C7CB802300300B88F
S1131ED804FC4A01003006DFB800303C7CB802300C
S1131EE80300B804FC4A010051039F11DFFCFE13F0
S1131EF800FC121600F549DFE510DF008F49DF9D6D
S1131F08F04AF00961E3EC041F00F510DF51FF9F6C
S1131F1808DFF511DFFC9B0500C9F007FFADF0BD34
S1131F28F2FAF28B9DF0317A9DF0D4F061E8EC5B23
S1131F381F00C9F007FFADF0BDF2FAF28B9DF03136
S1131F485A9DF05AF00161E8EC5B1F00F6B800FCFA
S1131F58BA5A00FC845B00FCE45B00E54ADF8F149A
S1131F68E09DF04AF00161E8EC781F00FCDD2D00EB
S1131F78E56ADFE56BDFE570DFFC955000EC851F53
S1131F8800717AFAD72012AEF8BDF2040700BDF04A
S1131F98C9F43F7CC9F20A00B800ADF4B802ADF246
S1131FA8B804FC4A01008816318EBDF0444F006124
S1131FB8F8EC632100ADF0444F0071FF61F3EC6964
S1131FC82000ADF044410061F8EC332100ADF04449
S1131FD8410071FF61F3EC1D2000ADF0442D006158
S1131FE8F8ECBB2100ADF0442D0071FF61F3EC095E
S1131FF82000ADF044200061F8ECC32100ECCA21B4
S113200800ADF004D0FFBDF044090061F3ECCA212F
S113201800EC0E2100ADF044460061F8EC4B2100C1
S1132028ADF044460071FF61F3EC4F2000ADF0447D
S1132038430061F8EC3B2100ADF044450061F8EC45
S1132048432100ECCA2100ADF044480061F8EC5388
S11320582100ADF0444A0061F8EC5B2100ECCA2190
S113206800ADF044680061F8EC8B2100ADF04468E1
S11320780071FF61F3ECC22000ADF044530061F835
S1132088EC732100ADF044530071FF61F3ECA82018
S113209800ADF044500061F8EC6B2100ECCA21005B
S11320A8ADF044550061F8EC7B2100ADF0446400C8
S11320B861F8EC832100ECCA2100ADF0446F0061A3
S11320C8F8ECA32100ADF0446F0071FF61F3ECF468
S11320D82000ADF044690061F8EC932100ADF044B0
S11320E86E0061F8EC9B2100ECCA2100ADF044724B
S11320F80061F8ECAB2100ADF044740061F8ECB376
S11321082100ECCA21008816318EBDF004D0FFBD31
S1132118F0AEF8BDF4040700BDF206F0BDF0BDF260
S1132128FAF28B9DF09811ECCF210051EE9811EC46
S1132138CF2100519C9811ECCF2100519E9811ECAD
S1132148CF2100518E9811ECCF2100516E9811ECDB
S1132158CF210051709811ECCF210051FC9811EC5B
S1132168CF210051CE9811ECCF210051B69811EC33
S1132178CF2100517C9811ECCF2100517A9811ECB1
S1132188CF2100512E9811ECCF210051189811EC51
S1132198CF2100512A9811ECCF2100513A9811EC23
S11321A8CF2100510A9811ECCF2100511E9811EC4F
S11321B8CF210051029811ECCF2100F19811ECCFF6
S11321C82100516C98110088119DF01012D7C9F0A4
S11321D80EFF88049DF2317A9DF25AF2018DF23194
S11321E8699DF2ADF0BDF4FAF48B9DF35AF3BF8DFB
S11321F8F36BF29DF2ADF0EAF48DF299C9F201FFA6
S11322088804318EBDF05AF040F4F1ADF04400007A
S1132218C9F0000061E8E4F05AF001ADF2BDF4FA47
S1132228F48B9DF15AF1FE8DF16BF09DF0ADF2EA5D
S1132238F48DF099C9F201FF8804318EBDF05AF08B
S113224820F4F1ADF0440000C9F0000061E8E4F0C6
S11322585AF0018DF061019DF0ADF2BDF4FAF48BF2
S11322689DF15AF1FD8DF16BF09DF0ADF2EAF48D1C
S1132278F099C9F201FF8804318EBDF05AF010F4C8
S1132288F1ADF0440000C9F0000061E8E4F05AF050
S1132298018DF031299DF0ADF2BDF4FAF48B9DF176
S11322A85AF1FB8DF16BF09DF0ADF2EAF48DF099E3
S11322B8C9F201FF8804318EBDF05AF008F4F1AD7B
S11322C8F0440000C9F0000061E8E4F05AF0018D20
S11322D8F031399DF0ADF2BDF4FAF48B9DF15AF169
S11322E8F78DF16BF09DF0ADF2EAF48DF099C9F237
S11322F801FF8804318EBDF05AF004F4F1ADF044C6
S11323080000C9F0000061E8E4F05AF0018DF031F2
S1132318499DF0ADF2BDF4FAF48B9DF15AF1EF8DBD
S1132328F16BF09DF0ADF2EAF48DF099C9F201FF7A
S11323388804318EBDF05AF002F4F1ADF044000087
S1132348C9F0000061E8E4F05AF0018DF031599DBC
S1132358F0ADF2BDF4FAF48B9DF15AF1DF8DF16B17
S1132368F09DF0ADF2EAF48DF099C9F201FF88040A
S1132378318EBDF05AF001F4F1ADF0440000C9F01B
S1132388000061E8E4F08DF031799DF0ADF2BDF420
S1132398FAF48B9DF15AF17F8DF16BF09DF0ADF25B
S11323A8EAF48DF099D720028F4CDF9DF0F4F1AD5B
S11323B8F044010061F8EC4A2400ADF044010071D6
S11323C8FF61F3ECDE2300ADF044000061F8ECF8A3
S11323D82300EC3D2500ADF044020061F8EC9C2498
S11323E800ADF044030061F8ECEE2400EC3D250058
S11323F8C9F005FFADF0BDF4FAF48B9DF25AF2EF83
S1132408ADF0EAF48DF2998F07DF9DF09800FC8D0A
S11324181F008DF09DF18F08DF9DF08DF15BF09D1D
S1132428F09800FCD62100C9F005FFADF0BDF4FA20
S1132438F48B9DF26AF220ADF0EAF48DF299EC3D4A
S11324482500C9F005FFADF0BDF4FAF48B9DF25AEE
S1132458F2DFADF0EAF48DF2998F06DF9DF0980073
S1132468FC8D1F008DF09DF18F08DF9DF08DF15BD1
S1132478F09DF09800FCD62100C9F005FFADF0BD31
S1132488F4FAF48B9DF26AF204ADF0EAF48DF29951
S1132498EC3D2500C9F005FFADF0BDF4FAF48B9DC1
S11324A8F25AF2FBADF0EAF48DF2998F05DF9DF054
S11324B89800FC8D1F008DF09DF18F08DF9DF08D35
S11324C8F15BF09DF09800FCD62100C9F005FFAD42
S11324D8F0BDF4FAF48B9DF26AF208ADF0EAF48DDB
S11324E8F299EC3D2500C9F005FFADF0BDF4FAF40E
S11324F88B9DF25AF2F7ADF0EAF48DF2998F04DF6E
S11325089DF09800FC8D1F008DF09DF18F08DF9DD4
S1132518F08DF15BF09DF09800FCD62100C9F00520
S1132528FFADF0BDF4FAF48B9DF26AF210ADF0EA57
S1132538F48DF299001002D720028F4CDF9DF0F43D
S1132548F1ADF044010061F8ECC72500ADF0440199
S11325580071FF61F3EC702500ADF044000061F8F0
S1132568EC8A2500EC7B2600ADF044020061F8EC0F
S1132578042600ADF044030061F8EC412600EC7B2E
S11325882600C9F005FFADF0BDF4FAF48B9DF25AAC
S1132598F2EFADF0EAF48DF2998F4EDF9DF09800DA
S11325A8FCD62100C9F005FFADF0BDF4FAF48B9D0B
S11325B8F26AF220ADF0EAF48DF299EC7B2600C9B8
S11325C8F005FFADF0BDF4FAF48B9DF25AF2DFADDD
S11325D8F0EAF48DF2998F4DDF9DF09800FCD62136
S11325E800C9F005FFADF0BDF4FAF48B9DF26AF270
S11325F804ADF0EAF48DF299EC7B2600C9F005FFEE
S1132608ADF0BDF4FAF48B9DF25AF2FBADF0EAF4A6
S11326188DF2998F4BDF9DF09800FCD62100C9F00C
S113262805FFADF0BDF4FAF48B9DF26AF208ADF043
S1132638EAF48DF299EC7B2600C9F005FFADF0BDF4
S1132648F4FAF48B9DF25AF2F7ADF0EAF48DF299AC
S11326588F09DF9DF09800FCD62100C9F005FFAD75
S1132668F0BDF4FAF48B9DF26AF210ADF0EAF48D41
S1132678F299001002D7C9F002FFADF0BDF4FAF4E4
S11326888B9DF25AF2DFADF0EAF48DF299C9F002AB
S1132698FFADF0BDF4FAF48B9DF25AF2BFADF0EA47
S11326A8F48DF299D7C9F002FFADF0BDF4FAF48BBA
S11326B89DF26AF220ADF0EAF48DF299D7C9F002DE
S11326C8FFADF0BDF4FAF48B9DF26AF240ADF0EA86
S11326D8F48DF299D7C9F002FFADF0BDF4FAF48B8A
S11326E89DF25AF2F7ADF0EAF48DF299C9F002FFBF
S11326F8ADF0BDF4FAF48B9DF25AF2EFADF0EAF4C2
S11327088DF299D7C9F002FFADF0BDF4FAF48B9DB0
S1132718F26AF208ADF0EAF48DF299D7C9F002FF33
S1132728ADF0BDF4FAF48B9DF26AF210ADF0EAF460
S11327388DF299D7F6BF0CDFAFF6DFBDF044000089
S113274861F8ECE6270030EFD2BF00DF30EFD2BFEC
S113275802DFAFF8DFBDF044000061F8ECA7270002
S1132768AF28E0BDF030EFD226F0BDF2AFF6DFBD02
S1132778F0DAF0ADF261DD717BFACFE80080BEF0EB
S113278813BEF6F6BEF2BEF4CFE800818FE800313E
S113279803FAAEF061CDBDF0BF0CDFEC182800AF32
S11327A824E0BDF030EFD226F0BDF2AFF6DFBDF085
S11327B8DAF0ADF261DD717BFACFE80080BEF01388
S11327C8BEF6F6BEF2BEF4CFE800818FE80031030E
S11327D8FAAEF061CDBDF0BF0CDFEC182800AFF8FD
S11327E8DFBDF044000061F8EC082800AF28E0BD24
S11327F8F0BF00DFAF28E0BDF0BF02DFEC1828000F
S1132808AF24E0BDF0BF00DFAF24E0BDF0BF02DFBE
S1132818AF08E0BDF044000061F8EC652800AF267D
S1132828E0BDF030EFD226F0BDF2AF08E0BDF0DA3B
S1132838F0ADF261DD717BFACFE80080BEF013BE23
S1132848F6F6BEF2BEF4CFE800818FE8003103FA51
S1132858AEF061CDBDF0BF0EDFEC692800F6BF0E07
S1132868DFD720028F18E09DF04AF00161E8ECB54B
S11328782800C9F002FFADF0BDF4FAF48B9DF26AAA
S1132888F201ADF0EAF48DF29930DC05B800FC51A0
S11328987A00C9F002FFADF0BDF4FAF48B9DF25A48
S11328A8F2FEADF0EAF48DF299ECDA28008F18E024
S11328B89DF04AF00261E8ECDA2800C9F002FFADA5
S11328C8F0BDF4FAF48B9DF26AF201ADF0EAF48DEE
S11328D8F2998F16E09DF0D4F061E8EC052900C95F
S11328E8F002FFADF0BDF4FAF48B9DF26AF202AD8A
S11328F8F0EAF48DF299F560DFECC329008F16E055
S11329089DF04AF00961F3EC732900C9F002FFADA8
S1132918F0BDF4FAF48B9DF26AF202ADF0EAF48D9C
S1132928F299E560DFF566DF008F66DF9DF0318E92
S1132938BDF28F16E09DF0F4F1ADF001BDF0ADF2FB
S113294846F071FF7177F161D8EC312900F560DF49
S1132958C9F002FFADF0BDF4FAF48B9DF25AF2FD12
S1132968ADF0EAF48DF299ECC3290088064C0161B4
S1132978E8ECC32900C9F002FFADF0BDF4FAF48B0A
S11329889DF26AF202ADF0EAF48DF299E560DFF5A2
S113299866DF008F66DF9DF04AF00961E3EC9B294E
S11329A800F560DFC9F002FFADF0BDF4FAF48B9DC9
S11329B8F25AF2FDADF0EAF48DF2998F17E09DF02A
S11329C8D4F061E8ECD72900F554DFEC022A008F33
S11329D817E09DF04AF00161E8ECEC2900E554DFCA
S11329E8EC022A0088064C0161E8ECFF2900510238
S11329F89F54DFEC022A00E554DFE512DFF548DFD7
S1132A081002D72006FC3C2700880AD161E8EC5460
S1132A182A00AFFEDFBDF2AF02E0BDF0ADF206F072
S1132A28BDF2AF1EDFBDF0ADF226F0B804AF00E092
S1132A38BDF2AF04E0BDF0ADF206F0BDF2AF20DFA9
S1132A48BDF0ADF226F0B802EC622A00AF1EDFBD7D
S1132A58F0B804AF20DFBDF0B802AFF6DFBDF0BFB9
S1132A6850DFAFF8DFBDF2AF50DFBDF0ADF206F0D6
S1132A78BDF0BF5ADFA804BDF0312EBDF0307B1481
S1132A8812ADF061DD717BFACFE80000BEF013BE31
S1132A98F200AEF461CDBDF0311EBDF08F06E09DAD
S1132AA8F2F4F330640026F2BDF2ADF212ADF06137
S1132AB8DD717BFACFE80000BEF013BEF200AEF67B
S1132AC861CDBDF2AF5ADFBDF0ADF206F0BDF0BF87
S1132AD864DFA804BDF0312EBDF0307B1412ADF0D4
S1132AE861DD717BFACFE80000BEF013BEF200AEE0
S1132AF8F461CDBDF0311EBDF28F06E09DF0F4F116
S1132B08ADF012ADF261DD717BFACFE80000BEF0E2
S1132B1813BEF200AEF661CDBDF2AF64DFBDF0AD19
S1132B28F206F0BDF0BF5EDFAF08E0BDF2AF5EDFD6
S1132B38BDF0ADF206F0BDF0BF56DFAFF6DFBDF075
S1132B48BF62DFAFF8DFBDF2AF62DFBDF0ADF20602
S1132B58F0BDF0BF68DFA802BDF0312EBDF0307BB8
S1132B681412ADF061DD717BFACFE80000BEF013FA
S1132B78BEF200AEF461CDBDF0311EBDF08F07E0AA
S1132B889DF2F4F330640026F2BDF2ADF212ADF01A
S1132B9861DD717BFACFE80000BEF013BEF200AE2F
S1132BA8F661CDBDF2AF68DFBDF0ADF206F0BDF061
S1132BB8BF58DFA802BDF0312EBDF0307B1412AD32
S1132BC8F061DD717BFACFE80000BEF013BEF200BD
S1132BD8AEF461CDBDF0311EBDF28F07E09DF0F477
S1132BE8F1ADF012ADF261DD717BFACFE80000BE01
S1132BF8F013BEF200AEF661CDBDF2AF58DFBDF002
S1132C08ADF206F0BDF0BF52DFAF08E0BDF2AF523F
S1132C18DFBDF0ADF206F0BDF0BF5CDF880A9DF0C1
S1132C289800FC6A28001006D72006FC3C27008878
S1132C380AD161E8ECE82C008FF3DF9DF04AF0023A
S1132C4861E8EC6D2C00AFFEDFBDF2AF02E0BDF031
S1132C58ADF206F0BDF2AF1EDFBDF0ADF226F0B85E
S1132C6804ECEF2C00AFFEDFBDF2AF02E0BDF0AD27
S1132C78F206F0BDF0312EBDF0307B1412ADF061D8
S1132C88DD717BFACFE80000BEF013BEF200AEF4AB
S1132C9861CDBDF0311EBDF28F1BE09DF0F4F1ADA6
S1132CA8F012ADF261DD717BFACFE80000BEF013DB
S1132CB8BEF200AEF661CDBDF0B802AF1EDFBDF0C6
S1132CC8A80246F061E3ECE12C00AF1EDFBDF0A8DA
S1132CD80226F0B804ECEF2C00F6B804ECEF2C0054
S1132CE8AF1EDFBDF0B804AFF6DFBDF0BF50DFAFF5
S1132CF8F8DFBDF2AF50DFBDF0ADF206F0BDF0BFB6
S1132D085ADFA804BDF0312EBDF0307B1412ADF0AB
S1132D1861DD717BFACFE80000BEF013BEF200AEAD
S1132D28F461CDBDF0311EBDF08F06E09DF2F4F3E1
S1132D3830640026F2BDF2ADF212ADF061DD717BB4
S1132D48FACFE80000BEF013BEF200AEF661CDBDC6
S1132D58F2AF5ADFBDF0ADF206F0BDF0BF64DFA8F4
S1132D6804BDF0312EBDF0307B1412ADF061DD717D
S1132D787BFACFE80000BEF013BEF200AEF461CDDA
S1132D88BDF0311EBDF28F06E09DF0F4F1ADF012F6
S1132D98ADF261DD717BFACFE80000BEF013BEF23C
S1132DA800AEF661CDBDF2AF64DFBDF0ADF206F062
S1132DB8BDF0BF5EDFAF08E0BDF2AF5EDFBDF0ADD2
S1132DC8F206F0BDF0BF56DF880A9DF09800FC6A51
S1132DD828001006D72008F198073004DFB800301F
S1132DE8597CB802300300B804FC4A01003006DFFD
S1132DF8B800305C7CB802300300B804FC4A010017
S1132E0851039F11DFF549DFE510DFE512DFC9F053
S1132E1802FFADF0BDF4FAF48B9DF26AF202ADF054
S1132E28EAF48DF299E560DFF566DFC9F002FFADDB
S1132E38F0BDF4FAF48B9DF25AF27FADF0EAF48D0A
S1132E48F299008F66DF9DF04AF00961E3EC4B2E9E
S1132E5800F560DFC9F002FFADF0BDF4FAF48B9D14
S1132E68F25AF2FDADF0EAF48DF29951039F54DF62
S1132E78F548DF8F3AE09DF0D4F061E8EC44300087
S1132E88AF24E0BDF0BF00DFAF24E0BDF0BF02DF38
S1132E98F523DFF524DF8FF3DF9DF04AF00261E8C4
S1132EA8ECB92E00FC24270051049F17DFECC22E36
S1132EB800FCC5260051049F16DFF6BF3EDFF6BFAF
S1132EC840DFF6BF42DFF19807FC4A14008FF3DFB6
S1132ED89DF04AF00261E8EC132F0000AF0CE0BD4E
S1132EE8F2AF3EDFBDF0ADF246F061F3ECE42E0044
S1132EF8F6BF40DF8F16DF9DF04AF00161F8EC134E
S1132F082F00FCC5260051049F16DFEC203000AFCB
S1132F18FEDFBDF2AF02E0BDF0ADF206F0BDF2AFE8
S1132F28FADFBDF0ADF226F0BDF004CEFFBDF2AF7E
S1132F3840DFBDF0ADF246F061E3EC6E2F00C9F05E
S1132F4804FFADF0BDF2FAF28B9DF0312A9DF05AE0
S1132F58F00161F8EC752F008F39E09DF04AF0011B
S1132F6861E8EC752F00FC7E2600E516DF8FF3DFA1
S1132F789DF04AF00261E8ECDE2F00AF00E0BDF2FC
S1132F88AF04E0BDF0ADF206F0BDF2AFFCDFBDF07A
S1132F98ADF226F0BDF004CEFFBDF2AF42DFBDF0C6
S1132FA8ADF246F061E3ECD72F00C9F00CFFADF0A9
S1132FB8BDF4EAF4895C019DF0D4F061F8ECDE2FED
S1132FC8008F39E09DF04AF00161E8ECDE2F00FC47
S1132FD8DD2600E517DF8FF3DF9DF04AF00261E894
S1132FE8EC0F30008F16DF9DF04AF00161E8EC2009
S1132FF830008F17DF9DF04AF00161E8EC203000C3
S1133008E19807EC2030008F16DF9DF04AF001614B
S1133018E8EC203000E198078807D161F8EC172F15
S113302800FC961400FCF10400F6BF1EDFF6BF1A7C
S1133038DFF6BF20DFF6BF1CDFF54ADFF512DFC974
S1133048F002FFADF0BDF4FAF48B9DF25AF2FDAD37
S1133058F0EAF48DF299F510DF51FF9F08DFF511BE
S1133068DF1008D7AF40DFBDF2AF56DFBDF0ADF2D9
S113307846F061E3ECF03000F523DFFC7E26008F98
S113308813DF9DF0F4F1ADF044020061F8ECD830A0
S113309800ADF044020071FF61F3ECB53000ADF00F
S11330A844010061F8ECCF3000ECEC3000ADF044A2
S11330B8030061F8ECDF3000ADF044040061F8EC83
S11330C8E83000ECEC300051039F16DFECEC3000E4
S11330D8E516DFECEC300051059F16DFECEC300010
S11330E8E516DF00EC8D3100AF40DFBDF2AF5EDFE7
S11330F8BDF0ADF246F061E3EC0D310051059F23BC
S1133108DFEC8D3100AF40DFBDF2AF64DFBDF0AD61
S1133118F246F061E3EC32310051049F23DFAF261D
S1133128E0BDF0BF00DFEC8D3100AF40DFBDF2AF92
S11331385ADFBDF0ADF246F061E3EC5731005103BC
S11331489F23DFAF24E0BDF0BF00DFEC8D3100AF7B
S113315840DFBDF2AF50DFBDF0ADF246F061E3EC05
S11331687C310051029F23DFAF28E0BDF0BF00DFB0
S1133178EC8D3100AF40DFBDF044000061F8EC8D08
S11331883100E523DF8FF3DF9DF04AF00261E8ECBC
S11331980D3200AF0AE0BDF2AF3EDFBDF0ADF2463E
S11331A8F061F3ECD431008F17DF9DF04AF003612E
S11331B8F8ECD431008F13DF9DF04AF00161E8EC9C
S11331C8D43100FC0C270051029F17DFAF0CE0BD7F
S11331D8F2AF3EDFBDF0ADF246F061F3EC0D320024
S11331E88F16DF9DF04AF00161F8EC0D32008F1361
S11331F8DF9DF04AF00261E8EC0D3200FCC52600C0
S113320851049F16DF8FF3DF9DF04AF00261E8EC6A
S1133218053300AF42DFBDF2AF5CDFBDF0ADF2466F
S1133228F061E3EC683200F524DFFCDD26008F133F
S1133238DF9DF0F4F1ADF044010061F8EC57320081
S1133248ADF044020061F8EC603200EC64320051E5
S1133258039F17DFEC643200E517DF00EC05330049
S1133268AF42DFBDF2AF52DFBDF0ADF246F061E32D
S1133278EC85320051059F24DFEC053300AF42DFB3
S1133288BDF2AF58DFBDF0ADF246F061E3ECAA320F
S11332980051049F24DFAF26E0BDF0BF02DFEC0538
S11332A83300AF42DFBDF2AF68DFBDF0ADF246F0E8
S11332B861E3ECCF320051039F24DFAF24E0BDF07B
S11332C8BF02DFEC053300AF42DFBDF2AF62DFBD02
S11332D8F0ADF246F061E3ECF4320051029F24DFD2
S11332E8AF28E0BDF0BF02DFEC053300AF42DFBD1D
S11332F8F044000061F8EC053300E524DFD7200230
S1133308F19800FC0B2A00FCC204008F16DF9DF024
S11333184AF00361F8EC2A3300FCAD260051029F01
S113332816DFF6BF3EDFF6BF40DFF6BF42DFE51328
S1133338DFFC4A14001002D72002E19800FC0B2A93
S113334800FCC204008FF3DF9DF04AF00261E8EC50
S11333587633008F17DF9DF04AF00161F8EC8D3366
S113336800FC24270051049F17DFEC8D33008F16CF
S1133378DF9DF04AF00161F8EC8D3300FCC52600AE
S113338851049F16DFF6BF3EDFF6BF40DFF6BF42AB
S1133398DF51029F13DFFC4A14001002D7FC961475
S11333A800FCF10400FC7E2600FCDD26008804D124
S11333B861E8EC9434008F16DF9DF04AF00361F85D
S11333C8EC0F3400AFF8DFBDF2AF40DFBDF0ADF273
S11333D846F061C8ECF33300AF40DFBDF2AFF8DF6D
S11333E8BDF0ADF226F0BDF0BF40DFAF1ADFBDF28D
S11333F8AF40DFBDF0ADF206F0BDF0BF1EDFBDF09B
S1133408BF1ADFEC273400AFFEDFBDF2AF02E0BD28
S1133418F0ADF206F0BDF0BF1EDFBDF0BF1ADF8FBE
S113342817DF9DF04AF00361F8EC783400AFF8DF59
S1133438BDF2AF42DFBDF0ADF246F061C8EC5C34DA
S113344800AF42DFBDF2AFF8DFBDF0ADF226F0BD4C
S1133458F0BF42DFAF1CDFBDF2AF42DFBDF0ADF21B
S113346806F0BDF0BF20DFBDF0BF1CDFEC4835001F
S1133478AF00E0BDF2AF04E0BDF0ADF206F0BDF080
S1133488BF20DFBDF0BF1CDFEC4835008F16DF9D81
S1133498F04AF00161F8ECE53400AFF8DFBDF2AFB3
S11334A840DFBDF0ADF246F061C8ECC93400AF406E
S11334B8DFBDF2AFF8DFBDF0ADF226F0BDF0BF40DE
S11334C8DFAF1ADFBDF2AF40DFBDF0ADF226F0BDCD
S11334D8F0BF1EDFBDF0BF1ADFECEE3400F6BF1EEE
S11334E8DFBDF0BF1ADF8F17DF9DF04AF00161F8E6
S11334F8EC3F3500AFF8DFBDF2AF42DFBDF0ADF20F
S113350846F061C8EC233500AF42DFBDF2AFF8DF07
S1133518BDF0ADF226F0BDF0BF42DFAF1CDFBDF257
S1133528AF42DFBDF0ADF226F0BDF0BF20DFBDF045
S1133538BF1CDFEC483500F6BF20DFBDF0BF1CDF41
S1133548F513DF8FF3DF9DF04AF00261E8EC75357F
S1133558008F16DF9DF04AF00161E8EC7535008FA5
S113356817DF9DF04AF00161F8ECD735008FF3DFDF
S11335789DF04AF00261E8EC9F35008F16DF9DF05C
S11335884AF00361E8EC9F35008F17DF9DF04AF09D
S11335980361F8ECD735008FF3DF9DF04AF0016141
S11335A8E8ECBB35008F16DF9DF04AF00161F8ECBA
S11335B8D735008FF3DF9DF04AF00161E8ECF5356B
S11335C8008F16DF9DF04AF00361E8ECF53500F54D
S11335D812DFC9F002FFADF0BDF4FAF48B9DF25A84
S11335E8F2FDADF0EAF48DF299FC753C00D7FC7E4F
S11335F82600F6BF44DFE515DF008F15DF9DF04A8E
S1133608F00161F8EC02360051069F23DF8F38E0A1
S11336189DF0F4F1ADF0BF00DF8804D161E8EC322D
S11336283600FCC52600EC363600FCAD2600F6BF95
S113363846DFE514DF008F14DF9DF04AF00161F8DE
S1133648EC3E3600D7FCDD2600FC7E2600F6BF449F
S1133658DFE515DF008F15DF9DF04AF00161F8EC16
S11336685D360051069F23DF51069F24DF8F38E023
S11336789DF0F4F1ADF0BF00DF8F38E09DF0F4F178
S1133688ADF0BF02DF8804D161E8ECA23600FCC5C6
S11336982600FC242700ECAA3600FCAD2600FC0C0E
S11336A82700F6BF46DFE514DF008F14DF9DF04ADC
S11336B8F00161F8ECB23600D7FCDD2600F6BF4411
S11336C8DFE515DF008F15DF9DF04AF00161F8ECA6
S11336D8CD360051069F24DF8F38E09DF0F4F1AD1C
S11336E8F0BF02DF8804D161E8ECFD3600FC242732
S11336F800EC013700FC0C2700F6BF46DFE514DFB9
S1133708008F14DF9DF04AF00161F8EC093700D707
S11337182002F19800FC312C00FCC20400FCAD2608
S11337280051029F16DFF6BF3EDFF6BF40DF5103AC
S11337389F13DFFC4A14001002D72002E19800FC12
S1133748312C00FCC20400FCC5260051049F16DF7E
S1133758F6BF3EDFF6BF40DF51049F13DFFC4A1477
S1133768001002D7FC961400FCF10400FC7E26002D
S11337788804D161E8EC5A38008F16DF9DF04AF0CE
S11337880561F8ECD23700AFF8DFBDF2AF40DFBD1A
S1133798F0ADF246F061C8ECB63700AF40DFBDF2D9
S11337A8AFF8DFBDF0ADF226F0BDF0BF40DFAF1AD1
S11337B8DFBDF2AF40DFBDF0ADF206F0BDF0BF1ED5
S11337C8DFBDF0BF1ADFECB438008FF3DF9DF04A99
S11337D8F00261E8ECF73700AFFEDFBDF2AF02E0BC
S11337E8BDF0ADF206F0BDF0BF1EDFEC4E3800AF01
S11337F8FEDFBDF2AF02E0BDF0ADF206F0BDF03180
S11338082EBDF0307B1412ADF061DD717BFACFE888
S11338180000BEF013BEF200AEF461CDBDF0311E5F
S1133828BDF28F1BE09DF0F4F1ADF012ADF261DD55
S1133838717BFACFE80000BEF013BEF200AEF66169
S1133848CDBDF0BF1EDFAF1EDFBDF0BF1ADFECB485
S113385838008F16DF9DF04AF00161F8ECAB3800B0
S1133868AFF8DFBDF2AF40DFBDF0ADF246F061C89E
S1133878EC8F3800AF40DFBDF2AFF8DFBDF0ADF23A
S113388826F0BDF0BF40DFAF1ADFBDF2AF40DFBDA9
S1133898F0ADF226F0BDF0BF1EDFBDF0BF1ADFECBD
S11338A8B43800F6BF1EDFBDF0BF1ADFF513DF8F93
S11338B816DF9DF04AF00161F8ECE138008F16DF5D
S11338C89DF04AF00361F8ECE138008F16DF9DF0B3
S11338D84AF00561E8ECFF3800F512DFC9F002FF91
S11338E8ADF0BDF4FAF48B9DF25AF2FDADF0EAF4B2
S11338F88DF299FC753C00D7C9F007FFADF0BDF215
S1133908FAF28B9DF0314A9DF05AF00161F8EC2BE4
S113391839008F4BDF9DF06AF0018DF09F4BDFEC8F
S11339283839008F4BDF9DF05AF0FE8DF09F4BDF46
S1133938C9F007FFADF0BDF2FAF28B9DF0311A9D84
S1133948F05AF00161F8EC6339008F4DDF9DF06A9D
S1133958F0808DF09F4DDFEC7039008F4DDF9DF0C6
S11339685AF07F8DF09F4DDFC9F007FFADF0BDF22F
S1133978FAF28B9DF0313A9DF05AF00161F8EC9B14
S113398839008F4DDF9DF06AF0028DF09F4DDFEC1A
S1133998A839008F4DDF9DF05AF0FD8DF09F4DDF63
S11339A8C9F004FFADF0BDF2FAF28B9DF0311A9D17
S11339B8F05AF00161F8ECD339008F4DDF9DF06ABD
S11339C8F0088DF09F4DDFECE039008F4DDF9DF05E
S11339D85AF0F78DF09F4DDFC9F004FFADF0BDF24A
S11339E8FAF28B9DF0312A9DF05AF00161F8EC0B44
S11339F83A008F4DDF9DF06AF0208DF09F4DDFEC8B
S1133A08183A008F4DDF9DF05AF0DF8DF09F4DDF9F
S1133A18C9F005FFADF0BDF2EAF2895C019DF0D46E
S1133A28F061F8EC403A008F4DDF9DF06AF0018DAB
S1133A38F09F4DDFEC4D3A008F4DDF9DF05AF0FEBC
S1133A488DF09F4DDFC9F007FFADF0BDF2EAF289B2
S1133A585C019DF0D4F061F8EC753A008F4EDF9D5F
S1133A68F06AF0808DF09F4EDFEC823A008F4EDFD3
S1133A789DF05AF07F8DF09F4EDFC9F007FFADF03F
S1133A88BDF2FAF28B9DF0312A9DF05AF00161F8EB
S1133A98ECAD3A008F4EDF9DF06AF0028DF09F4E38
S1133AA8DFECBA3A008F4EDF9DF05AF0FD8DF09F9F
S1133AB84EDFC9F004FFADF0BDF2FAF28B9DF03190
S1133AC83A9DF05AF00161F8ECE53A008F4EDF9D1B
S1133AD8F06AF0088DF09F4EDFECF23A008F4EDF6B
S1133AE89DF05AF0F78DF09F4EDFC9F00CFFADF052
S1133AF8BDF2EAF2895C019DF0D4F061F8EC1A3B5E
S1133B08008F4EDF9DF06AF0208DF09F4EDFEC278A
S1133B183B008F4EDF9DF05AF0DF8DF09F4EDFC9DA
S1133B28F005FFADF0BDF2FAF28B9DF0311A9DF06D
S1133B385AF00161F8EC523B008F4EDF9DF06AF0B9
S1133B48018DF09F4EDFEC5F3B008F4EDF9DF05AF6
S1133B58F0FE8DF09F4EDFC9F006FFADF0BDF2FA1E
S1133B68F28B9DF0313A9DF05AF00161E8EC8A3B02
S1133B78008F09DF9DF06AF0808DF09F09DFEC97D4
S1133B883B008F09DF9DF05AF07F8DF09F09DFC954
S1133B98F006FFADF0BDF2FAF28B9DF0312A9DF0EC
S1133BA85AF00161E8ECC23B008F09DF9DF06AF02E
S1133BB8108DF09F09DFECCF3B008F09DF9DF05A91
S1133BC8F0EF8DF09F09DFC9F006FFADF0BDF2EA12
S1133BD8F2895C019DF0D4F061E8ECF73B008F09B1
S1133BE8DF9DF06AF0028DF09F09DFEC043C008F42
S1133BF809DF9DF05AF0FD8DF09F09DFC9F006FF3B
S1133C08ADF0BDF2FAF28B9DF0311A9DF05AF00135
S1133C1861E8EC2F3C008F4BDF9DF06AF0808DF05B
S1133C289F4BDFEC3C3C008F4BDF9DF05AF07F8DBF
S1133C38F09F4BDFC9F003FFADF0BDF2FAF28B9DA4
S1133C48F0311A9DF05AF00161E8EC673C008F4BA3
S1133C58DF9DF06AF0108DF09F4BDFEC743C008F11
S1133C684BDF9DF05AF0EF8DF09F4BDFD7F522DF45
S1133C788F18E09DF04AF00261E3ECF03C00E52285
S1133C88DF8F18E09DF04AF05B61F3ECAA3C008FEB
S1133C9818E09DF0F4F1ADF001BDF0BF6CDFECD598
S1133CA83C008F18E09DF04AF05B61E3ECD53C00E2
S1133CB88F18E09DF0F4F1ADF004A6FFBDF0313D9E
S1133CC8BDF0314DBDF226F0BDF0BF6CDFC9F00286
S1133CD8FFADF0BDF4FAF48B9DF26AF201ADF0EA9F
S1133CE8F48DF299F6BF6EDFD720028F13DF9DF0B3
S1133CF8F4F1ADF044020061F8EC633D00ADF0442A
S1133D08020071FF61F3EC2C3D00ADF0440000614A
S1133D18F8EC463D00ADF044010061F8EC4E3D007E
S1133D28EC953D00ADF044030061F8EC783D00AD3E
S1133D38F044040061F8EC883D00EC953D00FC0F6C
S1133D487700EC953D0051069F16DF51069F17DF5B
S1133D58F6B800FCA53300EC953D0051079F16DF2B
S1133D6851079F17DFE6B800FCA53300EC953D002A
S1133D7851069F16DFF6B800FC6C3700EC953D0041
S1133D8851079F16DFE6B800FC6C3700001002D715
S1133D9820028F13DF9DF0F4F1ADF044030061F8C5
S1133DA8EC493E00ADF044040061F8EC6A3E00AD15
S1133DB8F044000061F8ECC63D00EC773E008F1635
S1133DC8DF9DF04AF00161E8EC273E00C9F007FFE7
S1133DD8ADF0BDF2FAF28B9DF0311A9DF05AF00164
S1133DE861F8ECFB3D008F2EE09DF0D4F061F8EC17
S1133DF8453E00C9F007FFADF0BDF2EAF2895C0167
S1133E089DF0D4F061F8EC1F3E008F31E09DF0D4B2
S1133E18F061F8EC453E00FC183700EC773E008F63
S1133E2816DF9DF04AF00761E8EC3D3E00FC1837C8
S1133E3800EC453E00FC423700EC773E00EC773E50
S1133E48008F1AE09DF0D4F061E8EC663E0051085A
S1133E589F16DFF6B800FC6C3700EC773E00EC7771
S1133E683E0051079F16DFE6B800FCA5330000109A
S1133E7802D720028F13DF9DF0F4F1ADF044010066
S1133E8861F8EC393F00ADF044020061F8EC4E3FB4
S1133E9800ADF044000061F8ECA83E00EC603F007F
S1133EA88F16DF9DF04AF00161E8EC093F00C9F084
S1133EB807FFADF0BDF2FAF28B9DF0311A9DF05A6E
S1133EC8F00161F8ECDD3E008F2EE09DF0D4F06146
S1133ED8F8EC353F00C9F007FFADF0BDF2EAF2890E
S1133EE85C019DF0D4F061F8EC013F008F31E09D56
S1133EF8F0D4F061F8EC353F00FC063300EC603F89
S1133F08008F16DF9DF04AF00761F8EC253F008F1B
S1133F1816DF9DF04AF00861E8EC2D3F00FC0633FB
S1133F2800EC353F00FC403300EC603F00EC603FA0
S1133F380051069F16DF51069F17DFF6B800FCA54F
S1133F483300EC603F0051079F16DF51079F17DFCE
S1133F58E6B800FCA53300001002D720028F13DF57
S1133F689DF0F4F1ADF044010061F8EC374000AD88
S1133F78F044020061F8EC224000ADF04400006116
S1133F88F8EC913F00EC3840008F16DF9DF04AF0C2
S1133F980161E8ECF23F00C9F007FFADF0BDF2FAA9
S1133FA8F28B9DF0311A9DF05AF00161F8ECC63F8E
S1133FB8008F2EE09DF0D4F061F8EC1E4000C9F0AB
S1133FC807FFADF0BDF2EAF2895C019DF0D4F0611F
S1133FD8F8ECEA3F008F31E09DF0D4F061F8EC1E74
S1133FE84000FC063300EC3840008F16DF9DF04A91
S1133FF8F00761F8EC0E40008F16DF9DF04AF008D8
S113400861E8EC164000FC063300EC1E4000FC405E
S11340183300EC384000EC38400051079F16DF515C
S1134028079F17DFE6B800FCA53300EC3840000012
S11340381002D720028F13DF9DF0F4F1ADF0440194
S11340480061F8EC0F4100ADF044020061F8ECFAAD
S11340584000ADF044000061F8EC694000EC104108
S1134068008F16DF9DF04AF00161E8ECCA4000C9F0
S1134078F007FFADF0BDF2FAF28B9DF0311A9DF016
S11340885AF00161F8EC9E40008F2EE09DF0D4F0C8
S113409861F8ECF64000C9F007FFADF0BDF2EAF2B2
S11340A8895C019DF0D4F061F8ECC240008F31E0E6
S11340B89DF0D4F061F8ECF64000FC063300EC10F7
S11340C841008F16DF9DF04AF00761F8ECE64000E6
S11340D88F16DF9DF04AF00861E8ECEE4000FC061C
S11340E83300ECF64000FC403300EC104100EC10C7
S11340F8410051079F16DF51079F17DFE6B800FC00
S1134108A53300EC104100001002D720028F13DF02
S11341189DF0F4F1ADF044010061F8ECD24100AD3A
S1134128F044020061F8EC194200ADF0440000616B
S1134138F8EC414100EC5D42008F16DF9DF04AF037
S11341480161E8ECA24100C9F007FFADF0BDF2FA45
S1134158F28B9DF0311A9DF05AF00161F8EC76412A
S1134168008F2EE09DF0D4F061F8ECCE4100C9F048
S113417807FFADF0BDF2EAF2895C019DF0D4F0616D
S1134188F8EC9A41008F31E09DF0D4F061F8ECCE60
S11341984100FC063300EC5D42008F16DF9DF04AB7
S11341A8F00761F8ECBE41008F16DF9DF04AF00875
S11341B861E8ECC64100FC063300ECCE4100FC404B
S11341C83300EC5D4200EC5D420051069F16DF515E
S11341D8069F17DF8F36E09DF04AF00161E8EC0A8C
S11341E842008FF3DF9DF04AF00261E8EC034200DD
S11341F8F6B800FC4D3600EC0A4200F6B800FCF6AE
S11342083500F6B800FCA53300FC403300EC5D42F1
S11342180051079F16DF51079F17DF8F36E09DF087
S11342284AF00161E8EC5142008FF3DF9DF04AF057
S11342380261E8EC4A4200E6B800FC4D3600EC5155
S11342484200E6B800FCF63500E6B800FCA53300E9
S1134258FC063300001002D720028F13DF9DF0F410
S1134268F1ADF044010061F8EC1F4300ADF04402E5
S11342780061F8EC664300ADF044000061F8EC8E90
S11342884200EC7843008F16DF9DF04AF00161E8A4
S1134298ECEF4200C9F007FFADF0BDF2FAF28B9DD6
S11342A8F0311A9DF05AF00161F8ECC342008F2EE8
S11342B8E09DF0D4F061F8EC1B4300C9F007FFADB2
S11342C8F0BDF2EAF2895C019DF0D4F061F8ECE704
S11342D842008F31E09DF0D4F061F8EC1B4300FC00
S11342E8063300EC7843008F16DF9DF04AF007612F
S11342F8F8EC0B43008F16DF9DF04AF00861E8ECF8
S1134308134300FC063300EC1B4300FC403300EC71
S1134318784300EC78430051069F16DF51069F1737
S1134328DF8F36E09DF04AF00161E8EC5743008FD7
S1134338F3DF9DF04AF00261E8EC504300F6B80060
S1134348FC4D3600EC574300F6B800FCF63500F691
S1134358B800FCA53300FC403300EC784300510757
S11343689F16DF51079F17DFE6B800FCA53300004E
S11343781002D78F15E09DF0F4F1ADF0440200610E
S1134388F8ECDE4300ADF044020071FF61F3ECB4D5
S11343984300ADF044000061F8ECCE4300ADF044B6
S11343A8010061F8ECD64300ECF64300ADF0440399
S11343B80061F8ECE64300ADF044040061F8ECEE6B
S11343C84300ECF64300FC7A3E00ECFB4300FC633C
S11343D83F00ECFB4300FC3B4000ECFB4300FC13B8
S11343E84100ECFB4300FC604200ECFB4300FC7A18
S11343F83E0000D720028F1CE09DF0D4F061E8EC69
S113440819450000C9F006FFADF0BDF2FAF28B9D24
S1134418F0313A9DF05AF00161F8EC0C44008F1326
S1134428DF9DF0F4F1ADF044010061F8EC144500AF
S1134438ADF044020061F8ECCD4400ADF044000056
S113444861F8EC524400EC1545008F16DF9DF04AE4
S1134458F00161E8ECB34400C9F007FFADF0BDF228
S1134468FAF28B9DF0311A9DF05AF00161F8EC874D
S113447844008F2EE09DF0D4F061F8ECC94400C9E3
S1134488F007FFADF0BDF2EAF2895C019DF0D4F0CB
S113449861F8ECAB44008F31E09DF0D4F061F8ECA6
S11344A8C94400FC063300EC1545008F16DF9DF067
S11344B84AF00361F8ECC94400FC063300EC1545E6
S11344C800EC15450051079F16DF51079F17DF8F32
S11344D836E09DF04AF00161E8EC0545008FF3DF12
S11344E89DF04AF00261E8ECFE4400E6B800FC4D99
S11344F83600EC054500E6B800FCF63500E6B800E1
S1134508FCA53300FC063300EC15450000EC194605
S1134518008F6ADF9DF04AF00161E8EC194600F566
S11345286ADF8F13DF9DF0F4F1ADF044010061F808
S1134538EC184600ADF044020061F8ECD14500AD3A
S1134548F044000061F8EC564500EC1946008F165B
S1134558DF9DF04AF00161E8ECB74500C9F007FFB8
S1134568ADF0BDF2FAF28B9DF0311A9DF05AF001CC
S113457861F8EC8B45008F2EE09DF0D4F061F8ECE7
S1134588CD4500C9F007FFADF0BDF2EAF2895C0140
S11345989DF0D4F061F8ECAF45008F31E09DF0D484
S11345A8F061F8ECCD4500FC063300EC1946008FA9
S11345B816DF9DF04AF00361F8ECCD4500FC0633A4
S11345C800EC194600EC19460051079F16DF510705
S11345D89F17DF8F36E09DF04AF00161E8EC094649
S11345E8008FF3DF9DF04AF00261E8EC024600E632
S11345F8B800FC4D3600EC094600E6B800FCF63578
S113460800E6B800FCA53300FC063300EC194600AC
S1134618001002D720028F1CE09DF0D4F061E8EC72
S1134628B7460000C9F006FFADF0BDF2FAF28B9D63
S1134638F0312A9DF05AF00161F8EC2C46008F13F2
S1134648DF9DF0F4F1ADF044000061F8EC6746003A
S1134658ADF044010061F8EC6F4600ECB34600FC91
S1134668403300ECB3460051069F16DF51069F17EE
S1134678DF8F36E09DF04AF00161E8ECA746008F31
S1134688F3DF9DF04AF00261E8ECA04600F6B800BA
S1134698FC4D3600ECA74600F6B800FCF63500F6EB
S11346A8B800FCA53300FC40330000EC3547008F0C
S11346B86BDF9DF04AF00161E8EC354700F56BDFEC
S11346C88F13DF9DF0F4F1ADF044000061F8ECE9DC
S11346D84600ADF044010061F8ECF14600EC3547C2
S11346E800FC403300EC35470051069F16DF5106A5
S11346F89F17DF8F36E09DF04AF00161E8EC294707
S1134708008FF3DF9DF04AF00261E8EC224700F6DF
S1134718B800FC4D3600EC294700F6B800FCF63525
S113472800F6B800FCA53300FC403300001002D7A3
S1134738D720028F13DF9DF0F4F1ADF0440200613D
S1134748F8EC9A4800ADF044020071FF61F3EC7490
S11347584700ADF044000061F8EC8E4700ADF0442A
S1134768010061F8ECED4700EC624A00ADF0440347
S11347780061F8EC474900ADF044040061F8ECD658
S11347884900EC624A008F16DF9DF04AF00161E8A7
S1134798ECB247008F2EE09DF04AF00261E8ECB2DB
S11347A84700FC063300ECE947008F16DF9DF04A0A
S11347B8F00161F8ECE947008F32E09DF04AF0011E
S11347C861E8ECE9470000C9F007FFADF0BDF2FA73
S11347D8F28B9DF0311A9DF05AF00161E8ECCF4755
S11347E800EC624A008F2CE09DF0D4F061F8EC965E
S11347F8480051069F16DF51069F17DF8F34E09D4E
S1134808F04AF00161E8EC3248008FF3DF9DF04A8A
S1134818F00261E8EC2B4800F6B800FC4D3600ECD9
S1134828324800F6B800FCF63500F6B800FCA533AB
S1134838008F2CE09DF04AF00261E3EC8048000010
S1134848C9F007FFADF0BDF2FAF28B9DF0311A9D65
S1134858F05AF00161E8EC4848008F2CE09DF04ADA
S1134868F00361E8EC784800FC063300EC96480055
S1134878FC403300EC624A008F2CE09DF04AF002C1
S113488861E8EC964800FC403300EC624A00EC62B4
S11348984A008F2DE09DF0D4F061F8EC43490051B3
S11348A8079F16DF51079F17DF8F34E09DF04AF00A
S11348B80161E8ECDF48008FF3DF9DF04AF0026104
S11348C8E8ECD84800E6B800FC4D3600ECDF4800B8
S11348D8E6B800FCF63500E6B800FCA533008F2DD9
S11348E8E09DF04AF00261E3EC2D490000C9F007AD
S11348F8FFADF0BDF2FAF28B9DF0311A9DF05AF03B
S11349080161E8ECF548008F2DE09DF04AF0036161
S1134918E8EC254900FC403300EC434900FC06332D
S113492800EC624A008F2DE09DF04AF00261E8EC49
S1134938434900FC063300EC624A00EC624A008FEB
S11349482CE09DF0D4F061F8ECD2490051089F1690
S1134958DF8F34E09DF04AF00161E8EC6E4900F61F
S1134968B800FCF63500F6B800FC6C37008F2CE074
S11349789DF04AF00261E3ECBC490000C9F007FF6E
S1134988ADF0BDF2FAF28B9DF0311A9DF05AF001A8
S113499861E8EC8449008F2CE09DF04AF00361E85B
S11349A8ECB44900FC183700ECD24900FC4237004B
S11349B8EC624A008F2CE09DF04AF00261E8ECD2E8
S11349C84900FC423700EC624A00EC624A008F2D31
S11349D8E09DF0D4F061F8EC614A0051079F16DFBE
S11349E88F34E09DF04AF00161E8ECFD4900E6B837
S11349F800FCF63500E6B800FC6C37008F2DE09D0E
S1134A08F04AF00261E3EC4B4A0000C9F007FFAD3D
S1134A18F0BDF2FAF28B9DF0311A9DF05AF0016163
S1134A28E8EC134A008F2DE09DF04AF00361E8ECAE
S1134A38434A00FC423700EC614A00FC183700EC9A
S1134A48614A008F2DE09DF04AF00261E8EC614A6A
S1134A5800FC183700EC614A00001002D720028FCE
S1134A6813DF9DF0F4F1ADF044020061F8ECC04BA3
S1134A7800ADF044020071FF61F3ECA04A00ADF010
S1134A8844000061F8ECBA4A00ADF044010061F852
S1134A98EC164B00EC7F4D00ADF044030061F8ECDC
S1134AA86A4C00ADF044040061F8ECF64C00EC7F6D
S1134AB84D008F16DF9DF04AF00161E8ECDE4A00F4
S1134AC88F31E09DF04AF00261E8ECDE4A00FC0612
S1134AD83300EC124B008F16DF9DF04AF00161F8A9
S1134AE8EC124B008F32E09DF04AF00261E8EC12C0
S1134AF84B0000C9F007FFADF0BDF2EAF2895C0192
S1134B089DF0D4F061E8ECFB4A00EC7F4D008F2F58
S1134B18E09DF0D4F061F8ECBC4B0051069F16DF21
S1134B2851069F17DF8F34E09DF04AF00161E8ECED
S1134B385B4B008FF3DF9DF04AF00261E8EC544BC5
S1134B4800F6B800FC4D3600EC5B4B00F6B800FCF0
S1134B58F63500F6B800FCA533008F2FE09DF04A27
S1134B68F00261E3ECA64B0000C9F007FFADF0BD0D
S1134B78F2EAF2895C019DF0D4F061E8EC714B0033
S1134B888F2FE09DF04AF00361E8EC9E4B00FC0691
S1134B983300ECBC4B00FC403300EC7F4D008F2FFE
S1134BA8E09DF04AF00261E8ECBC4B00FC403300A5
S1134BB8EC7F4D00EC7F4D008F30E09DF0D4F06128
S1134BC8F8EC664C0051079F16DF51079F17DF8FDB
S1134BD834E09DF04AF00161E8EC054C008FF3DF06
S1134BE89DF04AF00261E8ECFE4B00E6B800FC4D8B
S1134BF83600EC054C00E6B800FCF63500E6B800D3
S1134C08FCA533008F30E09DF04AF00261E3EC50DC
S1134C184C0000C9F007FFADF0BDF2EAF2895C016F
S1134C289DF0D4F061E8EC1B4C008F30E09DF04A15
S1134C38F00361E8EC484C00FC403300EC664C009F
S1134C48FC063300EC7F4D008F30E09DF04AF00203
S1134C5861E8EC664C00FC063300EC7F4D00EC7F09
S1134C684D008F2FE09DF0D4F061F8ECF24C005128
S1134C78089F16DF8F34E09DF04AF00161E8EC915B
S1134C884C00F6B800FCF63500F6B800FC6C3700AA
S1134C988F2FE09DF04AF00261E3ECDC4C0000C980
S1134CA8F007FFADF0BDF2EAF2895C019DF0D4F0A3
S1134CB861E8ECA74C008F2FE09DF04AF00361E80F
S1134CC8ECD44C00FC183700ECF24C00FC423700E2
S1134CD8EC7F4D008F2FE09DF04AF00261E8ECF282
S1134CE84C00FC423700EC7F4D00EC7F4D008F30C8
S1134CF8E09DF0D4F061F8EC7E4D0051079F16DF7B
S1134D088F34E09DF04AF00161E8EC1D4D00E6B8EF
S1134D1800FCF63500E6B800FC6C37008F30E09DE7
S1134D28F04AF00261E3EC684D0000C9F007FFADFA
S1134D38F0BDF2EAF2895C019DF0D4F061E8EC334D
S1134D484D008F30E09DF04AF00361E8EC604D00BF
S1134D58FC423700EC7E4D00FC183700EC7E4D0019
S1134D688F30E09DF04AF00261E8EC7E4D00FC18BB
S1134D783700EC7E4D00001002D7D7D720028F35BC
S1134D88E09DF04AF00161E8EC374E008F13DF9D97
S1134D98F0F4F1ADF044020061F8EC004E00ADF01F
S1134DA844020071FF61F3ECC24D00ADF044010010
S1134DB861F8ECDC4D00EC374E00ADF044030061C3
S1134DC8F8EC244E00ADF044040061F8EC2F4E00DA
S1134DD8EC374E008FF3DF9DF04AF00261E8ECF502
S1134DE84D00F6B800FC4D3600EC374E00F6B8001E
S1134DF8FCF63500EC374E008FF3DF9DF04AF002E5
S1134E0861E8EC194E00E6B800FC4D3600EC374E6C
S1134E1800E6B800FCF63500EC374E00F6B800FCA6
S1134E28F63500EC374E00E6B800FCF63500008F86
S1134E3813DF9DF0F4F1ADF044020061F8EC944EF8
S1134E4800ADF044020071FF61F3EC654E00ADF073
S1134E5844010061F8EC7F4E00ECC64E00ADF0440E
S1134E68030061F8ECA94E00ADF044040061F8ECCD
S1134E78B94E00ECC64E0051069F16DF51069F1727
S1134E88DFF6B800FCA53300ECC64E0051079F16A8
S1134E98DF51079F17DFE6B800FCA53300ECC64EC8
S1134EA80051069F16DFF6B800FC6C3700ECC64EBE
S1134EB80051079F16DFE6B800FC6C3700001002AB
S1134EC8D720028F13DF9DF0F4F1ADF044020061A6
S1134ED8F8EC654F00ADF044020071FF61F3ECF9A2
S1134EE84E00ADF044010061F8EC134F00EC6B4F39
S1134EF800ADF044030061F8EC3C4F00ADF044040D
S1134F080061F8EC6A4F00EC6B4F00F523DFFC7E80
S1134F18260051039F16DF8F33E09DF04AF00161AC
S1134F28E8EC384F00F6B800FCF63500EC6B4F009F
S1134F38EC6B4F00F523DFFC7E260051059F16DF3E
S1134F488F33E09DF04AF00161E8EC614F00F6B858
S1134F5800FCF63500EC6B4F00EC6B4F0000EC6B7B
S1134F684F00001002D720028F13DF9DF0F4F1AD3B
S1134F78F044010061F8EC864F00ECAC4F00F524D6
S1134F88DFFCDD260051039F17DF8F33E09DF04AD5
S1134F98F00161E8ECAB4F00F6B800FCC13600EC58
S1134FA8AB4F00001002D720028F13DF9DF0F4F1FD
S1134FB8ADF044020061F8ECF04F00ADF04402009B
S1134FC871FF61F3ECDF4F00ADF044010061F8ECD0
S1134FD83E5000EC435000ADF044040071FF61F30F
S1134FE8EC435000EC175000F523DFFC7E2600E567
S1134FF816DF8F33E09DF04AF00161E8EC135000AE
S1135008E6B800FCF63500EC445000EC445000F5DA
S113501823DFFC7E2600E516DF8F33E09DF04AF09F
S11350280161E8EC3A5000E6B800FCF63500EC44BF
S11350385000EC44500000EC445000001002D7200B
S1135048028F13DF9DF0F4F1ADF044010061F8EC38
S1135058915000ADF044020061F8EC6A5000EC9203
S11350685000F524DFFCDD2600E517DF8F33E09DD3
S1135078F04AF00161E8EC8D5000E6B800FCC13656
S113508800EC925000EC925000001002D720028FDE
S113509816DF9DF04AF00161F8ECC05000C9F00237
S11350A8FFADF0BDF4FAF48B9DF26AF280ADF0EA3C
S11350B8F48DF299ECD75000C9F002FFADF0BDF4BD
S11350C8FAF48B9DF25AF27FADF0EAF48DF2998FDF
S11350D816DF9DF04AF00361E8EC0151008F17DFF9
S11350E89DF04AF00361E8EC0151008FF3DF9DF075
S11350F84AF00261F8EC1D51008F16DF9DF04AF06A
S11351080361E8EC8851008FF3DF9DF04AF00161F8
S1135118E8EC8851008F10E09DF0D4F061F8EC566B
S113512851008F10E09DF0318EBDF2AF4AE0BDF022
S1135138ADF246F061F8EC8851008F10E09DF0F470
S1135148F1ADF0BF4AE0F6BF4CE0EC8851008F1592
S1135158E09DF04AF00161F8EC7251008F15E09D72
S1135168F04AF00261E8EC885100AF4AE0BDF0442F
S1135178010061F8EC885100E6BF4AE0F6BF4CE054
S1135188AF4AE0BDF044000061F8ECFB5100AF12F7
S1135198E0BDF2AF4CE0BDF0ADF246F061C8ECFB07
S11351A851008F13DF9DF0D4F061E8ECFB51008FC0
S11351B816DF9DF04AF00161F8ECFB5100AF4AE0BC
S11351C8BDF0440F0061F3ECE35100AF4AE0BDF0D9
S11351D8B6F0ADF0BF4AE0ECF75100AF4AE0BDF0DD
S11351E844630061E8ECF75100301000BF4AE0FC6A
S11351F81C46008F16DF9DF04AF00361E8EC255247
S1135208008FF3DF9DF04AF00161E8EC2552008F2E
S113521813DF9DF04AF00161F8EC5D52008F16DF50
S11352289DF04AF00361E8EC6452008F17DF9DF0AB
S11352384AF00361E8EC6452008FF3DF9DF04AF012
S11352480261E8EC6452008F13DF9DF04AF00161BB
S1135258E8EC645200F6B800FCA533008F16DF9D15
S1135268F04AF00161E8EC8E52008FF3DF9DF04ABA
S1135278F00161E8EC8E52008F13DF9DF04AF002D2
S113528861F8ECC652008F16DF9DF04AF00161E820
S1135298ECCD52008F17DF9DF04AF00161E8ECCDA8
S11352A852008FF3DF9DF04AF00261E8ECCD520022
S11352B88F13DF9DF04AF00261E8ECCD5200E6B8A6
S11352C800FCA533008F16DF9DF04AF00561E8EC79
S11352D8F052008F13DF9DF04AF00361E8ECF052BE
S11352E800F6B800FC6C37008F16DF9DF04AF00119
S11352F861E8EC1353008F13DF9DF04AF00461E872
S1135308EC135300E6B800FC6C3700C9F004FFAD99
S1135318F0BDF2FAF28B9DF0311A9DF05AF001615A
S1135328F8EC3E53008F39E09DF0D4F061F8EC3E80
S11353385300FCC94E00C9F004FFADF0BDF4FAF403
S11353488B9DF0313A9DF05AF00161F8EC695300F5
S11353588F39E09DF0D4F061F8EC695300FC6E4F8E
S113536800C9F004FFADF0BDF2FAF28B9DF0312ACA
S11353789DF05AF00161F8EC9553008F39E09DF0E7
S11353884AF00161E8EC955300FCAF4F00C9F00CFA
S1135398FFADF0BDF4EAF4895C019DF0D4F061F846
S11353A8ECBE53008F39E09DF04AF00161E8ECBE91
S11353B85300FC475000C9F007FFADF0BDF2FAF204
S11353C88B9DF0314A9DF05AF00161F8ECDC5300F2
S11353D8FC844D00C9F007FFADF0BDF4FAF48B9DD1
S11353E8F0311A9DF05AF00161F8ECFA5300FC39D7
S11353F84700C9F007FFADF0BDF2EAF2895C019DF0
S1135408F0D4F061F8EC155400FC654A00C9F007C3
S1135418FFADF0BDF4FAF48B9DF0313A9DF05AF0EB
S11354280161F8EC335400FC824D00C9F007FFAD6C
S1135438F0BDF2FAF28B9DF0312A9DF05AF0016129
S1135448F8EC515400FC834D008F16DF9DF04AF0B0
S11354580161E8EC7E54008F17DF9DF04AF001618A
S1135468E8EC7E54008F18DF9DF04AF00161E8EC07
S11354787E5400F518DFC9F006FFADF0BDF4EAF478
S1135488895C019DF0D4F061E8ECF3540000C9F0A4
S113549806FFADF0BDF2EAF2895C019DF0D4F0613B
S11354A8F8EC9654008F15E09DF04AF00161E8ECA1
S11354B8BF5400F6BF4CE08F1CE09DF0D4F061E8C7
S11354C8ECF354008F18DF9DF0D4F061E8ECF3544A
S11354D8008F4ADF9DF04AF00161E8ECEF5400FCCC
S11354E8DD2D00ECF35400FC983D00C9F006FFAD37
S11354F8F0BDF4FAF48B9DF0311A9DF05AF0016175
S1135508E8EC8D55008F1CE09DF0D4F061E8EC8D3B
S1135518550000C9F006FFADF0BDF2FAF28B9DF01C
S1135528311A9DF05AF00161F8EC1B55008F18DF11
S11355389DF0D4F061E8EC6155008F16DF9DF04AC8
S1135548F00161E8EC6155008F17DF9DF04AF00126
S113555861E8EC615500E518DF8F15E09DF04AF02D
S11355680161E8EC735500F6BF4CE08F4ADF9DF00B
S11355784AF00161E8EC895500FCDD2D00EC8D55FD
S113558800FC7B4300C9F006FFADF0BDF4FAF48BD0
S11355989DF0312A9DF05AF00161E8ECAB5500FC0E
S11355A81C4600C9F006FFADF0BDF2FAF28B9DF07F
S11355B8312A9DF05AF00161F8EC0256008F6BDF36
S11355C89DF0D4F061E8EC0256008F1CE09DF04A8F
S11355D8F00161E8EC0256008F13DF9DF04AF002F7
S11355E861E8ECFF550051079F16DF51079F17DF4D
S11355F8E6B800FCA53300E56BDFC9F006FFADF0A3
S1135608BDF4FAF48B9DF0313A9DF05AF00161E84B
S1135618EC205600FCFC4300C9F006FFADF0BDF2D7
S1135628FAF28B9DF0313A9DF05AF00161F8EC776B
S113563856008F6ADF9DF0D4F061E8EC7756008F4E
S11356481CE09DF04AF00161E8EC7756008F13DF07
S11356589DF04AF00161E8EC74560051069F16DF8C
S113566851069F17DFF6B800FCA53300E56ADFC9C9
S1135678F003FFADF0BDF4FAF48B9DF0311A9DF000
S11356885AF00161E8EC955600FC384700C9F00E61
S1135698FFADF0BDF2FAF28B9DF0317A9DF0D4F0B3
S11356A861E8ECCC560000C9F00EFFADF0BDF4FA89
S11356B8F48B9DF0317A9DF0D4F061F8ECAF56008C
S11356C8FCF13C00C9F007FFADF0BDF2FAF28B9D86
S11356D8F0317A9DF0D4F061E8EC03570000C9F08A
S11356E807FFADF0BDF4FAF48B9DF0317A9DF0D448
S11356F8F061F8ECE65600FCCA6500C9F007FFAD96
S1135708F0BDF2FAF28B9DF0315A9DF05AF0016126
S1135718E8EC3C570000C9F007FFADF0BDF4FAF41B
S11357288B9DF0315A9DF05AF00161F8EC1E570038
S1135738FCCA6500C9F001FFADF0BDF2FAF28B9D19
S1135748F0316A9DF05AF00161E8ECA257008F131A
S1135758DF9DF0D4F061E8ECA25700F6BF4EE000FC
S1135768C9F001FFADF0BDF4FAF48B9DF0316A9DE8
S1135778F05AF00161E8EC905700AF4EE0BDF044F8
S11357888F0161E3EC685700AF4EE0BDF0448F0130
S113579861E3ECA25700FCD47200EC97500051FF6F
S11357A89F72DF88044C0161E8ECB85700F573DF99
S11357B8F574DFF575DFF576DFF577DFF578DFF576
S11357C879DFF57ADF51FF9F7BDF51FF9F7CDF5143
S11357D8259F7DDF51259F7EDF51109F7FDF51106C
S11357E89F80DF51509F81DFF582DF51109F83DF57
S11357F851FF9F84DF51109F85DF51FF9F86DF5142
S1135808309F87DF51029F88DF51029F89DFF58A25
S1135818DF51039F8BDF51059F8CDF51029F8DDF82
S1135828E58EDF51039F8FDFF590DF51069F91DFEF
S113583851049F92DF51089F93DF51029F94DF51D7
S1135848089F95DF51039F96DFF597DFF598DF51A1
S1135858FF9F99DF51FF9F9ADFE59BDF51209F9CB3
S1135868DF51509F9DDF51FF9F9EDF51FF9F9FDFB8
S113587851FF9FA0DF51FF9FA1DF51FF9FA2DFF5DA
S1135888A3DFF5A4DFF5A5DFE5A6DFF5A7DFF5A817
S1135898DFE5A9DFF5AADF51FF9FABDF51FF9FAC1E
S11358A8DF51FF9FADDFF5AEDFF5AFDFF5B0DFF514
S11358B8B1DF51059FB2DF51089FB3DF51FF9FB499
S11358C8DF51FF9FB5DF51FF9FB6DF51FF9FB7DF61
S11358D851029FB8DF51FF9FB9DFF5BADFF5BBDF8F
S11358E8F5BCDFF5BDDFF5BEDFE5BFDFF5C0DF5191
S11358F8609FC1DFF5C2DF51FF9FC3DF51FF9FC423
S1135908DF51FF9FC5DF51FF9FC6DF51FF9FC7DFF0
S113591851FF9FC8DF51FF9FC9DF51FF9FCADF5165
S1135928FF9FCBDFF5CCDF51FF9FCDDF51FF9FCE2B
S1135938DF51FF9FCFDF51FF9FD0DF51FF9FD1DFA2
S113594851FF9FD2DF51FF9FD3DF51FF9FD4DF5117
S1135958FF9FD5DFE5D6DF51249FD7DFE5D8DFE504
S1135968D9DF51029FDADF51039FDBDF51049FDC4B
S1135978DFE5DDDF51059FDEDF51239FDFDFF5E043
S1135988DFF5E1DF51FF9FE2DFF5E3DFF5E4DFF563
S1135998E5DFF5E6DF51FF9FE7DF51FF9FE8DF51C1
S11359A8FF9FE9DFF5EADFF5EBDFF5ECDFF5EDDF87
S11359B8F5EEDF51FF9FEFDF51FF9FF0DF51FF9FAF
S11359C8F1DFD72088FCA90600F6B800308000B8BB
S11359D802FCCA06008DF09887D161F8ECFE5900E4
S11359E8F6B800FC5106008DF09887D161F8ECFEFA
S11359F85900ECAF5A00C9F072DFF6B800ADF0B840
S1135A0802308000B804FCA405008DF09887D161A9
S1135A18F8EC215A00ECAF5A00F6B800308000B810
S1135A2802FC2907008DF09887D161F8EC3C5A00F4
S1135A38ECAF5A00AEF8BDF2040600BDF0F6B800AB
S1135A48ADF0B802308000B804FC0A06008DF09866
S1135A5887F19887F19886ECA25A008886318EBD22
S1135A68F0AEF8BDF4040600BDF206F0BDF0BDF4D6
S1135A78FAF48B9DF28886318EBDF00472DF168BA2
S1135A889DF08DF24BF061F8EC9B5A00E19887EC9D
S1135A98AF5A0088869DF081988688869DF0D171DA
S1135AA8FF61C8EC635A00FCC2060088879DF010A9
S1135AB888D7200851039F11DF880C9DF09800FCBB
S1135AC8A65700FCCB59008DF098073004DFB800C6
S1135AD8305F7CB802300300B804FC4A0100300689
S1135AE8DFB80030627CB802300300B804FC4A0115
S1135AF800F549DFE510DF008F49DF9DF04AF00724
S1135B0861E3EC005B008807D161E8EC415B00309D
S1135B1804DFB80030657CB802300300B804FC4ADE
S1135B2801003006DFB80030657CB802300300B8E5
S1135B3804FC4A0100EC675B003004DFB8003068FD
S1135B487CB802300300B804FC4A01003006DFB810
S1135B5800306B7CB802300300B804FC4A01000032
S1135B688F49DF9DF04AF00B61E3EC685B00F510A8
S1135B78DF51FF9F08DFF511DF1008D72006FCA9C5
S1135B880600C9F072DFF6B800ADF0B80230800044
S1135B98B804FC0A0600FCC206008F73DF9DF04AB5
S1135BA8F0FF61E8ECB75B00E19800FCBA5A00101A
S1135BB806D72002FCCB59008DF09801F549DFE5A2
S1135BC810DF008F49DF9DF04AF00561E3ECCB5B01
S1135BD800F510DF51FF9F08DF1002D7200A8F73EA
S1135BE8DF9DF09FF2DF8FB8DF9DF09FF3DF8F8A90
S1135BF8DF9DF09FF4DF8F94DF9DF0F4F1306400B3
S1135C0812ADF061DD717BFACFE80000BEF013BE7F
S1135C18F200AEF661CDBDF0BFF6DF8F96DF9DF0E2
S1135C28F4F1ADF0B800FCBE7B008DF09809318E1C
S1135C38BDF030640012ADF061DD717BFACFE8008D
S1135C4800BEF013BEF200AEF661CDBDF0BFF8DFC2
S1135C588F83DF9DF0F4F1ADF0B800FCBE7B008DBE
S1135C68F098098F88DF9DF0F4F1ADF0B800FCBE20
S1135C787B008DF09808318EBDF0BFFADF8F7DDF91
S1135C889DF0F4F1ADF0B800FCBE7B008DF09807F0
S1135C988809318EBDF28808318EBDF0ADF206F068
S1135CA8BDF28807318EBDF030640026F0BDF0AD3A
S1135CB8F012ADF261DD717BFACFE80000BEF0139B
S1135CC8BEF200AEF661CDBDF0BFFEDF8F85DF9D6D
S1135CD8F0F4F1ADF0B800FCBE7B008DF098098FAC
S1135CE889DF9DF0F4F1ADF0B800FCBE7B008DF0C7
S1135CF89808318EBDF0BFFCDF8F7EDF9DF0F4F194
S1135D08ADF0B800FCBE7B008DF098078809318E91
S1135D18BDF28808318EBDF0ADF206F0BDF28807F9
