S02200004447435F413233305F365F5265765F315F305F536F6674776172652E6D6F7472
S1070000F200FFFF08
S1130004E91CE91C3205E91CE91CE91CE91CE91C8E
S1130014E91CE91CE91CE91CE91CE91CE91CE91CB0
S1130024B00CD60BE91CE91CB5164217DF181C19D1
S1130034E91CE91CE91CE91CE91CE91CE91C2E194E
S1130044E91C9A1CD71CE91CE91CE91CE91C500690
S1130054E91CE91CE91CE91CE91CE91CE91CE91C70
S1130064E91CE91CE91CE91CE91CE91CE91CE91C60
S10F0074E91CE91CE91CE91CE91CE91C5E
S10700C0EFF3E00472
S10D00C4000000000000000000002E
S10B00D800000000000000001C
S11100E0DB05DB054130722DFF01010032000B
S11300EEF200EFFECBF8DCFE410061CF34E00036C7
S11300FE00DF61DF3600DF300EDF27311E440000E3
S113010EDD0EB161CF11A9BBA5A5A7A761DFEFEDE8
S113011E61CF30000061DF3076E0360EDF27311E0E
S113012E440000DD0AB161CFBBA7A761DFEFF16127
S113013ECFFC9A1D0000300000C1C1C1FCAB1D00F4
S113014EEFFEA80414A80616A808440000DD0A074A
S113015E128BA799A51347DFF8A804BDF0D7C9F0F1
S113016EA0FFADF0BDF2EAF2F199C9F0A1FFADF036
S113017EBDF4FAF48B9DF26AF280ADF0EAF48DF2DE
S113018E99C9F0A4FFADF0BDF4FAF48B9DF25AF2C6
S113019EEFADF0EAF48DF299C9F0A1FFADF0BDF424
S11301AEFAF48B9DF26AF240ADF0EAF48DF299C93D
S11301BEF0F300ADF0BDF2EAF2511099C9F0A4FFCC
S11301CEADF0BDF4FAF48B9DF25AF2BFADF0EAF441
S11301DE8DF299C9F0A1FFADF0BDF4FAF48B9DF246
S11301EE5AF2FEADF0EAF48DF299D72002C9F0A8C6
S11301FEFFADF0BDF2FAF28B9DF098011002D7C953
S113020EF0E4FFADF0BDF4FAF48B9DF26AF204ADA6
S113021EF0EAF48DF299C9F0E0FFADF0BDF4FAF412
S113022E8B9DF25AF2FBADF0EAF48DF299C9F0E42B
S113023EFFADF0BDF4FAF48B9DF26AF208ADF0EA6C
S113024EF48DF299C9F0E0FFADF0BDF4FAF48B9D94
S113025EF25AF2F7ADF0EAF48DF299C9F0E4FFAD7B
S113026EF0BDF4FAF48B9DF26AF210ADF0EAF48D5F
S113027EF299C9F0E0FFADF0BDF4FAF48B9DF25A99
S113028EF2EFADF0EAF48DF299C9F0E4FFADF0BDF2
S113029EF4FAF48B9DF26AF220ADF0EAF48DF29941
S11302AEC9F0E0FFADF0BDF4FAF48B9DF25AF2DF23
S11302BEADF0EAF48DF299C9F0E4FFADF0BDF4FAB5
S11302CEF48B9DF26AF240ADF0EAF48DF299C9F026
S11302DEE0FFADF0BDF4FAF48B9DF25AF2BFADF02F
S11302EEEAF48DF299C9F0E4FFADF0BDF4FAF48BA3
S11302FE9DF26AF280ADF0EAF48DF299C9F0E0FF56
S113030EADF0BDF4FAF48B9DF25AF27FADF0EAF43F
S113031E8DF299C9F0D4FFADF0BDF4FAF48B9DF2D1
S113032E6AF208ADF0EAF48DF299C9F0D0FFADF09F
S113033EBDF4FAF48B9DF25AF2F7ADF0EAF48DF2B5
S113034E99C9F0D4FFADF0BDF4FAF48B9DF26AF2C4
S113035E10ADF0EAF48DF299C9F0D0FFADF0BDF412
S113036EFAF48B9DF25AF2EFADF0EAF48DF299C9DC
S113037EF0D4FFADF0BDF4FAF48B9DF26AF220AD29
S113038EF0EAF48DF299C9F0D0FFADF0BDF4FAF4B1
S113039E8B9DF25AF2DFADF0EAF48DF299C9F0D4E6
S11303AEFFADF0BDF4FAF48B9DF26AF240ADF0EAC3
S11303BEF48DF299C9F0D0FFADF0BDF4FAF48B9D33
S11303CEF25AF2BFADF0EAF48DF299C9F0D4FFAD52
S11303DEF0BDF4FAF48B9DF26AF280ADF0EAF48D7E
S11303EEF299C9F0D0FFADF0BDF4FAF48B9DF25A38
S11303FEF27FADF0EAF48DF299C9F0D5FFADF0BD00
S113040EF4FAF48B9DF26AF201ADF0EAF48DF299EE
S113041EC9F0D1FFADF0BDF4FAF48B9DF25AF2FEA1
S113042EADF0EAF48DF299C9F0ECFFADF0BDF4FA3B
S113043EF48B9DF25AF2FBADF0EAF48DF299C9F009
S113044EE8FFADF0BDF4FAF48B9DF25AF2FBADF079
S113045EEAF48DF299C9F0DCFFADF0BDF4FAF48B39
S113046E9DF25AF27FADF0EAF48DF299C9F0D8FFFD
S113047EADF0BDF4FAF48B9DF25AF27FADF0EAF4CE
S113048E8DF299C9F039FFADF0BDF2EAF2E199C9E6
S113049EF038FFADF0BDF4EAF4E199C9F03BFFADDD
S11304AEF0BDF2EAF2510499C9F227FFC9F027FF11
S11304BEADF0BDF4FAF48B9DF06AF040ADF2BDF4EC
S11304CEEAF48DF099D7C9F0E0FFADF0BDF4FAF47B
S11304DE8B9DF25AF2FBADF0EAF48DF299C9F0E479
S11304EEFFADF0BDF4FAF48B9DF25AF2FBADF0EAD7
S11304FEF48DF299D7C9F0E4FFADF0BDF4FAF48BA4
S113050E9DF26AF204ADF0EAF48DF299C9F0E0FFBF
S113051EADF0BDF4FAF48B9DF25AF2FBADF0EAF4B1
S113052E8DF299D761CFC1C3C5C761DFC1C3C5C73A
S113053E61CF8EFDC1C9F00DFFADF0BDF2FAF28BA5
S113054E9DF0317A9DF04AF00161E8EC8F0500C907
S113055EF000FFADF0BDF4FAF48B9DF26AF240ADFB
S113056EF0EAF48DF299C9F000FFADF0BDF4FAF49F
S113057E8B9DF26AF220ADF0EAF48DF299EC3F060F
S113058E00C9F264FFAF00DFBDF0ADF2BDF4EAF4D2
S113059EADF0B9C9F26CFFAF02DFBDF0ADF2BDF440
S11305AEEAF4ADF0B98F2FDF9DF04AF00461E8EC68
S11305BEF505008F0EDF9DF0A4F08DF09F0EDF9DEC
S11305CEF04AF00661E8ECDB0500F50EDF8F0EDF76
S11305DE9DF04AF00161F3ECF10500FCED1400EC22
S11305EEF90500ECF90500FCED14008F30DF9DF0E9
S11305FE4AF00461E8EC3B06008F0FDF9DF0A4F097
S113060E8DF09F0FDF9DF04AF00661E8EC210600A5
S113061EF50FDF8F0FDF9DF04AF00161F3EC370623
S113062E00FC1D1600EC3F0600EC3F0600FC1D16F8
S113063E00C09EFD61DFC6C4C2C061CFC6C4C2C0C5
S113064E61FC61CFC1C3C5C78EFDC1C09EFDC6C4CA
S113065EC2C061FC51189F32DFF533DFD720028F01
S113066E34DF9DF04AF00161E8ECC40600A806BD33
S113067EF0BF36DFA808BDF0BF38DFA80ABDF0BF53
S113068E3ADF51049F3CDF3036DFB800FC9A990004
S113069E8DF09F3EDFECB206000000FC079A008D41
S11306AEF09F3EDF8F3EDF9DF04AF0FF61F8ECA72E
S11306BE0600ECC9060051109F3EDF8F3EDF9DF011
S11306CE1002D720028F34DF9DF04AF00161E8EC6E
S11306DE0B0700A806BDF0BF36DFA808BDF0BF3873
S11306EEDFA80ABDF0BF3ADFF53CDF3036DFB800D5
S11306FEFC9A99008DF09F3EDFEC10070051109F7D
S113070E3EDF8F3EDF9DF01002D720028F34DF9D37
S113071EF04AF00161E8EC630700A806BDF0BF36AD
S113072EDF51039F3CDF3036DFB800FC9A99008D11
S113073EF09F3EDFEC5107000000FC079A008DF09D
S113074E9F3EDF8F3EDF9DF04AF0FF61F8EC4607D7
S113075E00EC68070051109F3EDF8F3EDF9DF010C6
S113076E02D7200251189F32DFF533DF3032DFB863
S113077E00FC759900E534DF1002D7FC139A00F5DE
S113078E34DFD720028F34DF9DF04AF00161E8ECAC
S113079EE30700A806BDF0BF36DFA808BDF0BF3AD8
S11307AEDF51089F3CDF3036DFB800FC9A99008D8C
S11307BEF09F3EDFECD107000000FC079A008DF09D
S11307CE9F3EDF8F3EDF9DF04AF0FF61F8ECC607D7
S11307DE00ECE8070051109F3EDF8F3EDF9DF010C6
S11307EE02D720028F34DF9DF04AF00161E8EC421B
S11307FE0800A806BDF0BF36DFA808BDF0BF3ADF7B
S113080E51069F3CDF3036DFB800FC9A99008DF01C
S113081E9F3EDFEC3008000000FC079A008DF09F2D
S113082E3EDF8F3EDF9DF04AF0FF61F8EC250800B5
S113083EEC47080051109F3EDF8F3EDF9DF0100203
S113084ED7C9F000FFADF0BDF2EAF2516099C9F0DC
S113085E01FFADF0BDF2EAF2F199C9F002FFADF07D
S113086EBDF2EAF2F199C9F003FFADF0BDF2EAF27E
S113087EF199C9F005FFADF0BDF2EAF2F199C9F0B4
S113088E0EFFADF0BDF2EAF2F199C9F06C00ADF0D5
S113089EBDF2EAF251FE99C9F06E00ADF0BDF2EA76
S11308AEF2517F99C9F07600ADF0BDF2EAF2E1990A
S11308BEC9F020FFADF0BDF2EAF2519F99C9F021C3
S11308CEFFADF0BDF2EAF2514099C9F022FFADF04E
S11308DEBDF2EAF2F199C9F023FFADF0BDF2EAF2EE
S11308EE51FE99C9F024FFADF0BDF2EAF251FF9921
S11308FEC9F025FFADF0BDF2EAF251C399C9F02655
S113090EFFADF0BDF2EAF251FF99C9F027FFADF049
S113091EBDF2EAF251FF99C9F02CFFADF0BDF2EA37
S113092EF251FF99C9F02EFFADF0BDF2EAF251BFBC
S113093E99D7C9F0F000ADF0BDF4FAF48B9DF26ACC
S113094EF204ADF0EAF48DF29900000000C9F0262D
S113095E01ADF0BDF2EAF2304400B9FC6E0900D7E5
S113096EC9F22401C9F02401ADF0BDF4FAF4ABBD13
S113097EF06AF00CADF2BDF4EAF4ADF0B9C9F0E6EC
S113098EFFADF0BDF4FAF48B9DF26AF201ADF0EA1C
S113099EF48DF299C9F0E2FFADF0BDF4FAF48B9D3B
S11309AEF25AF2FEADF0EAF48DF299C9F0E6FFAD1B
S11309BEF0BDF4FAF48B9DF26AF202ADF0EAF48D16
S11309CEF299C9F0E2FFADF0BDF4FAF48B9DF25A40
S11309DEF2FDADF0EAF48DF299C9F0E6FFADF0BD8B
S11309EEF4FAF48B9DF26AF204ADF0EAF48DF29906
S11309FEC9F0E2FFADF0BDF4FAF48B9DF25AF2FBAE
S1130A0EADF0EAF48DF299C9F0EEFFADF0BDF4FA53
S1130A1EF48B9DF26AF201ADF0EAF48DF299C9F00D
S1130A2EEAFFADF0BDF4FAF48B9DF26AF201ADF07B
S1130A3EEAF48DF299C9F0EEFFADF0BDF4FAF48B41
S1130A4E9DF26AF202ADF0EAF48DF299C9F0EAFF72
S1130A5EADF0BDF4FAF48B9DF26AF202ADF0EAF455
S1130A6E8DF299C9F01401ADF0BDF2EAF230220014
S1130A7EB9C9F01C01ADF0BDF4EAF4309780B9C9E0
S1130A8EF044FFADF0BDF2EAF230009AB9C9F2704B
S1130A9E00C9F07000ADF0BDF4FAF48B9DF06AF06D
S1130AAE04ADF2BDF4EAF48DF099C9F00E01ADF087
S1130ABEBDF2EAF2300700B9C9F01601ADF0BDF48B
S1130ACEEAF4302201B9C9F01E01ADF0BDF2EAF22A
S1130ADE309740B9C9F046FFADF0BDF4EAF43000EA
S1130AEE9AB9C9F22801C9F02801ADF0BDF4FAF49F
S1130AFEABBDF06AF004ADF2BDF4EAF4ADF0B9C9E1
S1130B0EF23401C9F03401ADF0BDF4FAF4ABBDF02A
S1130B1EADF2BDF4EAF4ADF0B9C9F22A01C9F02A76
S1130B2E01ADF0BDF4FAF4ABBDF06AF004ADF2BD64
S1130B3EF4EAF4ADF0B9C9F26000C9F06000ADF0AA
S1130B4EBDF4FAF48B9DF05AF0F7ADF2BDF4EAF46D
S1130B5E8DF099C9F220FFC9F020FFADF0BDF4FA73
S1130B6EF48B9DF06AF008ADF2BDF4EAF48DF099C1
S1130B7EC9F26000C9F06000ADF0BDF4FAF48B9DCB
S1130B8EF05AF0FBADF2BDF4EAF48DF099C9F2001F
S1130B9EFFC9F000FFADF0BDF4FAF48B9DF06AF0DE
S1130BAE04ADF2BDF4EAF48DF099C9F220FFC9F058
S1130BBE20FFADF0BDF4FAF48B9DF05AF0FBADF2CC
S1130BCEBDF4EAF48DF099D761CFC1C3C5C761DF17
S1130BDEC1C3C5C761CF8EFDC12004C9F00601ADE6
S1130BEEF0BDF2FAF2ABBDF05AF0078DF09802C9DF
S1130BFEF20E0188029DF0F4F1ADF2BDF4EAF4AD0B
S1130C0EF0B988029DF0D4F061F8EC260C0088024D
S1130C1E9DF09800FC1C0D00C9F046FFADF0BDF22E
S1130C2EFAF28B9DF09803AF40DFBDF2AF42DFBD09
S1130C3EF0ADF246F061E3EC8F0C00AF44DFBDF093
S1130C4E88039DF2ADF0BDF4EAF48DF299AF44DF62
S1130C5EBDF0A6F0ADF0BF44DFAF42DFBDF0A6F0AD
S1130C6EADF0BF42DFAF40DFBDF2AF42DFBDF0AD4E
S1130C7EF246F061E8EC9D0C00FC190D00EC9D0CA5
S1130C8E0088039DF0F4F1ADF0B800FC1A0D0010CD
S1130C9E04C09EFD61DFC6C4C2C061CFC6C4C2C05B
S1130CAE61FC61CFC1C3C5C761DFC1C3C5C761CF15
S1130CBE8EFDC1AF48DFBDF044000061F8EC040DB9
S1130CCE00C9F244FFAF46DFBDF0BDF4FAF48B9DCC
S1130CDEF0ADF2BDF4EAF48DF099AF46DFBDF0A6A7
S1130CEEF0ADF0BF46DFAF48DFBDF0B6F0ADF0BFFC
S1130CFE48DFEC080D00FC1B0D00C09EFD61DFC635
S1130D0EC4C2C061CFC6C4C2C061FCD7D7D7D7C9CD
S1130D1EF0F000ADF0BDF4FAF48B9DF26AF201AD81
S1130D2EF0EAF48DF299C9F0B601ADF0BDF2EAF233
S1130D3E308200B9C9F0B401ADF0BDF4EAF430FF6D
S1130D4E0AB9C9F0E6FFADF0BDF4FAF48B9DF26A70
S1130D5EF210ADF0EAF48DF299C9F0E2FFADF0BDF8
S1130D6EF4FAF48B9DF25AF2EFADF0EAF48DF299A7
S1130D7EC9F0E6FFADF0BDF4FAF48B9DF26AF220F1
S1130D8EADF0EAF48DF299C9F0E2FFADF0BDF4FADC
S1130D9EF48B9DF25AF2DFADF0EAF48DF299C9F0BC
S1130DAEE5FFADF0BDF4FAF48B9DF26AF280ADF07E
S1130DBEEAF48DF299C9F0E1FFADF0BDF4FAF48BCB
S1130DCE9DF25AF27FADF0EAF48DF299C9F0E6FF86
S1130DDEADF0BDF4FAF48B9DF26AF240ADF0EAF494
S1130DEE8DF299C9F0E2FFADF0BDF4FAF48B9DF2E9
S1130DFE5AF2BFADF0EAF48DF299C9F0E6FFADF008
S1130E0EBDF4FAF48B9DF26AF280ADF0EAF48DF241
S1130E1E99C9F0E2FFADF0BDF4FAF48B9DF25AF2EB
S1130E2E7FADF0EAF48DF299C9F0E6FFADF0BDF4B2
S1130E3EFAF48B9DF26AF204ADF0EAF48DF299C9DC
S1130E4EF0E2FFADF0BDF4FAF48B9DF25AF2FBAD75
S1130E5EF0EAF48DF299C9F0E7FFADF0BDF4FAF4BF
S1130E6E8B9DF26AF280ADF0EAF48DF299C9F0E34B
S1130E7EFFADF0BDF4FAF48B9DF25AF27FADF0EAB9
S1130E8EF48DF299C9F0D4FFADF0BDF4FAF48B9D54
S1130E9EF26AF201ADF0EAF48DF299C9F0D0FFAD29
S1130EAEF0BDF4FAF48B9DF25AF2FEADF0EAF48D35
S1130EBEF299C9F0D4FFADF0BDF4FAF48B9DF26A49
S1130ECEF202ADF0EAF48DF299C9F0D0FFADF0BDA7
S1130EDEF4FAF48B9DF25AF2FDADF0EAF48DF29928
S1130EEEC9F0D4FFADF0BDF4FAF48B9DF26AF204AE
S1130EFEADF0EAF48DF299C9F0D0FFADF0BDF4FA7D
S1130F0EF48B9DF25AF2FBADF0EAF48DF299C9F02E
S1130F1EEEFFADF0BDF4FAF48B9DF26AF210ADF073
S1130F2EEAF48DF299C9F0EAFFADF0BDF4FAF48B50
S1130F3E9DF26AF210ADF0EAF48DF299C9F0EEFF6B
S1130F4EADF0BDF4FAF48B9DF26AF220ADF0EAF442
S1130F5E8DF299C9F0EAFFADF0BDF4FAF48B9DF26F
S1130F6E6AF220ADF0EAF48DF299C9F0EEFFADF01D
S1130F7EBDF4FAF48B9DF26AF240ADF0EAF48DF210
S1130F8E99C9F0EAFFADF0BDF4FAF48B9DF26AF262
S1130F9E40ADF0EAF48DF299C9F0EEFFADF0BDF478
S1130FAEFAF48B9DF26AF280ADF0EAF48DF299C9EF
S1130FBEF0EAFFADF0BDF4FAF48B9DF25AF27FAD78
S1130FCEF0EAF48DF299C9F0EFFFADF0BDF4FAF446
S1130FDE8B9DF26AF280ADF0EAF48DF299C9F0EBD2
S1130FEEFFADF0BDF4FAF48B9DF26AF280ADF0EA37
S1130FFEF48DF299C9F0DCFFADF0BDF4FAF48B9DDB
S113100EF26AF202ADF0EAF48DF299C9F0D8FFADAE
S113101EF0BDF4FAF48B9DF26AF202ADF0EAF48DAF
S113102EF299C9F0DCFFADF0BDF4FAF48B9DF26ACF
S113103EF204ADF0EAF48DF299C9F0D8FFADF0BD2B
S113104EF4FAF48B9DF25AF2FBADF0EAF48DF299B8
S113105EC9F09001ADF0BDF2EAF2F6B9C9F018FF8D
S113106EADF0BDF4EAF4302F75B9C9F2B801C9F088
S113107EB801ADF0BDF4FAF4ABBDF05AF0FEADF22A
S113108EBDF4EAF4ADF0B9C9F2BA01C9F0BA01ADD2
S113109EF0BDF4FAF4ABBDF05AF0FEADF2BDF4EAD5
S11310AEF4ADF0B9C9F09201ADF0BDF2EAF2F6B9C1
S11310BEC9F01AFFADF0BDF4EAF4305FEAB9C9F233
S11310CEBE01C9F0BE01ADF0BDF4FAF4ABBDF05AE9
S11310DEF0FDADF2BDF4EAF4ADF0B9C9F2BC01C94C
S11310EEF0BC01ADF0BDF4FAF4ABBDF05AF0FDADB9
S11310FEF2BDF4EAF4ADF0B9C9F2B801C9F0B80121
S113110EADF0BDF4FAF4ABBDF05AF0FDADF2BDF4A2
S113111EEAF4ADF0B9C9F2BA01C9F0BA01ADF0BD45
S113112EF4FAF4ABBDF05AF0FDADF2BDF4EAF4AD51
S113113EF0B9C9F09401ADF0BDF2EAF2F6B9C9F016
S113114E64FFADF0BDF4EAF4306F17B9C9F2BE0115
S113115EC9F0BE01ADF0BDF4FAF4ABBDF05AF0FB2C
S113116EADF2BDF4EAF4ADF0B9C9F2BC01C9F0BCFC
S113117E01ADF0BDF4FAF4ABBDF05AF0FBADF2BD27
S113118EF4EAF4ADF0B9C9F2B801C9F0B801ADF0A2
S113119EBDF4FAF4ABBDF05AF0FBADF2BDF4EAF4D3
S11311AEADF0B9C9F2BA01C9F0BA01ADF0BDF4FAA5
S11311BEF4ABBDF05AF0FBADF2BDF4EAF4ADF0B908
S11311CEC9F09601ADF0BDF2EAF2F6B9C9F066FFC8
S11311DEADF0BDF4EAF4306F17B9C9F2BE01C9F02F
S11311EEBE01ADF0BDF4FAF4ABBDF05AF0F7ADF2BA
S11311FEBDF4EAF4ADF0B9C9F2BC01C9F0BC01AD5D
S113120EF0BDF4FAF4ABBDF05AF0F7ADF2BDF4EA6A
S113121EF4ADF0B9C9F2B801C9F0B801ADF0BDF43E
S113122EFAF4ABBDF05AF0F7ADF2BDF4EAF4ADF05A
S113123EB9C9F2BA01C9F0BA01ADF0BDF4FAF4AB12
S113124EBDF05AF0F7ADF2BDF4EAF4ADF0B9C9F061
S113125E9801ADF0BDF2EAF2300080B9C9F068FF32
S113126EADF0BDF4EAF4301AB7B9C9F2BE01C9F053
S113127EBE01ADF0BDF4FAF4ABBDF05AF0EFADF231
S113128EBDF4EAF4ADF0B9C9F2BC01C9F0BC01ADCC
S113129EF0BDF4FAF4ABBDF05AF0EFADF2BDF4EAE2
S11312AEF4ADF0B9C9F2B801C9F0B801ADF0BDF4AE
S11312BEFAF4ABBDF05AF0EFADF2BDF4EAF4ADF0D2
S11312CEB9C9F2BA01C9F0BA01ADF0BDF4FAF4AB82
S11312DEBDF05AF0EFADF2BDF4EAF4ADF0B9C9F0D9
S11312EE9C01ADF0BDF2EAF2F6B9C9F06CFFADF0B7
S11312FEBDF4EAF4306F17B9C9F2BE01C9F0BE01EC
S113130EADF0BDF4FAF4ABBDF05AF0BFADF2BDF4DE
S113131EEAF4ADF0B9C9F2BC01C9F0BC01ADF0BD3F
S113132EF4FAF4ABBDF05AF0BFADF2BDF4EAF4AD8D
S113133EF0B9C9F2B801C9F0B801ADF0BDF4FAF4D0
S113134EABBDF05AF0BFADF2BDF4EAF4ADF0B9C9DD
S113135EF2BA01C9F0BA01ADF0BDF4FAF4ABBDF0C6
S113136E5AF0BFADF2BDF4EAF4ADF0B9C9F09E0186
S113137EADF0BDF2EAF2F6B9C9F06EFFADF0BDF410
S113138EEAF4306F17B9C9F2BE01C9F0BE01ADF06F
S113139EBDF4FAF4ABBDF05AF07FADF2BDF4EAF44D
S11313AEADF0B9C9F2BC01C9F0BC01ADF0BDF4FA9F
S11313BEF4ABBDF05AF07FADF2BDF4EAF4ADF0B982
S11313CEC9F2B801C9F0B801ADF0BDF4FAF4ABBD81
S11313DEF05AF07FADF2BDF4EAF4ADF0B9C9F2BA49
S11313EE01C9F0BA01ADF0BDF4FAF4ABBDF05AF098
S11313FE7FADF2BDF4EAF4ADF0B9D7C9F0E2FFADBA
S113140EF0BDF4FAF48B9DF25AF2EFADF0EAF48DDE
S113141EF299C9F0E6FFADF0BDF4FAF48B9DF25AE1
S113142EF2EFADF0EAF48DF299C9F2B201C9F0B25D
S113143E01ADF0BDF4FAF4ABBDF06AF001ADF2BD4E
S113144EF4EAF4ADF0B9D7C9F0E2FFADF0BDF4FAA9
S113145EF48B9DF25AF2DFADF0EAF48DF299C9F0F5
S113146EE6FFADF0BDF4FAF48B9DF25AF2DFADF067
S113147EEAF48DF299C9F2B201C9F0B201ADF0BD30
S113148EF4FAF4ABBDF06AF002ADF2BDF4EAF4ADD9
S113149EF0B9D7C9F2B401C9F0B401ADF0BDF4FA94
S11314AEF4ABBDF06AF002ADF2BDF4EAF4ADF0B9FE
S11314BEC9F0E6FFADF0BDF4FAF48B9DF26AF220AA
S11314CEADF0EAF48DF299C9F0E2FFADF0BDF4FA95
S11314DEF48B9DF25AF2DFADF0EAF48DF299D7C98E
S11314EEF0E2FFADF0BDF4FAF48B9DF25AF2BFAD0B
S11314FEF0EAF48DF299C9F0E6FFADF0BDF4FAF41A
S113150E8B9DF25AF2BFADF0EAF48DF299C9F2B2A4
S113151E01C9F0B201ADF0BDF4FAF4ABBDF06AF05E
S113152E04ADF2BDF4EAF4ADF0B9D7C9F2B401C911
S113153EF0B401ADF0BDF4FAF4ABBDF06AF004AD55
S113154EF2BDF4EAF4ADF0B9C9F0E6FFADF0BDF4C6
S113155EFAF48B9DF26AF240ADF0EAF48DF299C979
S113156EF0E2FFADF0BDF4FAF48B9DF25AF2BFAD8A
S113157EF0EAF48DF299D7C9F0E3FFADF0BDF4FAB9
S113158EF48B9DF25AF27FADF0EAF48DF299C9F024
S113159EE7FFADF0BDF4FAF48B9DF25AF27FADF095
S11315AEEAF48DF299C9F2B201C9F0B201ADF0BDFF
S11315BEF4FAF4ABBDF06AF010ADF2BDF4EAF4AD9A
S11315CEF0B9D7C9F2B401C9F0B401ADF0BDF4FA63
S11315DEF4ABBDF06AF010ADF2BDF4EAF4ADF0B9BF
S11315EEC9F0E7FFADF0BDF4FAF48B9DF26AF28018
S11315FEADF0EAF48DF299C9F0E3FFADF0BDF4FA63
S113160EF48B9DF25AF27FADF0EAF48DF299D7C9BC
S113161EF0D0FFADF0BDF4FAF48B9DF25AF2FDADAD
S113162EF0EAF48DF299C9F0D4FFADF0BDF4FAF4FA
S113163E8B9DF25AF2FDADF0EAF48DF299C9F2B235
S113164E01C9F0B201ADF0BDF4FAF4ABBDF06AF02D
S113165E40ADF2BDF4EAF4ADF0B9D7C9F2B401C9A4
S113166EF0B401ADF0BDF4FAF4ABBDF06AF040ADE8
S113167EF2BDF4EAF4ADF0B9C9F0D4FFADF0BDF4A7
S113168EFAF48B9DF26AF202ADF0EAF48DF299C986
S113169EF0D0FFADF0BDF4FAF48B9DF25AF2FDAD2D
S11316AEF0EAF48DF299D761CFC1C3C5C761DFC12A
S11316BEC3C5C761CF8EFDC1AF74E0BDF0A6F0AD5A
S11316CEF0BF74E08F5EDF9DF0A4F08DF09F5EDFBF
S11316DE9DF04AF00461E8ECEC1600F55EDF8F1124
S11316EEDF9DF0D4F061E8EC051700FC333D00FCFF
S11316FE1A2400EC091700FC8822008F17DF9DF0D6
S113170E4AF00161E8EC3117008F18DF9DF0A4F068
S113171E8DF09F18DF9DF04AF01461E8EC3117004C
S113172EF517DFC09EFD61DFC6C4C2C061CFC6C45B
S113173EC2C061FC61CFC1C3C5C761DFC1C3C5C728
S113174E61CF8EFDC1AF4CDFBDF0A6F0ADF0BF4C46
S113175EDF8F19DF9DF04AF00261F8EC7B17008FE2
S113176E19DF9DF04AF00461E8ECC01700AF4EDFBC
S113177EBDF0A6F0ADF0BF4EDF8F2FDF9DF04AF027
S113178E0361F8ECA317008F2FDF9DF04AF002617E
S113179EE8ECB41700AF58DFBDF0040300BDF0BF92
S11317AE58DFECC01700AF58DFBDF0A6F0ADF0BFA8
S11317BE58DF8F1ADF9DF04AF00261F8ECDC170057
S11317CE8F1ADF9DF04AF00461E8EC211800AF5047
S11317DEDFBDF0A6F0ADF0BF50DF8F30DF9DF04AD5
S11317EEF00361F8EC0418008F30DF9DF04AF0022C
S11317FE61E8EC151800AF4ADFBDF0040300BDF03C
S113180EBF4ADFEC211800AF4ADFBDF0A6F0ADF001
S113181EBF4ADF8F16DF9DF04AF00161E8EC4918EC
S113182E00AF52DFBDF0A6F0ADF0BF52DFBDF04405
S113183E040061E8EC491800F516DF8F15DF9DF002
S113184E4AF00161E8EC771800AF54DFBDF0A6F062
S113185EADF0BF54DFBDF2AF5EE0BDF0ADF246F0C9
S113186E61E8EC771800F515DF8F14DF9DF0D4F0E6
S113187E61F8EC8C1800FCE23000FC2032008F2F53
S113188EDF9DF04AF00161E8ECAD1800AF00DFBD5A
S113189EF2AF0CDFBDF0ADF226F0BDF0BF00DF8F6E
S11318AE30DF9DF04AF00161E8ECCE1800AF02DFA4
S11318BEBDF2AF0CDFBDF0ADF226F0BDF0BF02DF1E
S11318CEC09EFD61DFC6C4C2C061CFC6C4C2C061C2
S11318DEFC61CFC1C3C5C761DFC1C3C5C761CF8EAC
S11318EEFDC1FC391500C9F000FFADF0BDF4FAF4EA
S11318FE8B9DF25AF2BFADF0EAF48DF299C09EFDC3
S113190E61DFC6C4C2C061CFC6C4C2C061FC61CFB0
S113191EC1C3C5C78EFDC1C09EFDC6C4C2C061FC95
S113192E61CFC1C3C5C761DFC1C3C561CF8EFDC160
S113193E8F10DF9DF04AF00161E8EC6519008F0805
S113194EDF9DF07AF0FF8DF09F08DF8F57DF9DF05B
S113195EA4F08DF09F57DF8F6FDF9DF04AF0016189
S113196EE8EC7F19008F74DF9DF0A4F08DF09F7466
S113197EDF8F12DF9DF04AF00161E8ECE91A008F67
S113198E66DF9DF04AF00261E8ECDF1900C9F2024D
S113199EFFC9F002FFADF0BDF4FAF48B9DF0311ADD
S11319AE9DF05AF0017AF0FF5AF0015AF0018DF0D1
S11319BE61019DF0ADF2BDF4FAF48B9DF15AF1FD87
S11319CE8DF16BF09DF0ADF2EAF48DF099ECE91A1D
S11319DE008F66DF9DF04AF00161E8EC4B1A008F30
S11319EE56DF9DF0A4F08DF09F56DF9DF04AF00374
S11319FE61E8ECE91A00F556DFC9F202FFC9F002FC
S1131A0EFFADF0BDF4FAF48B9DF0311A9DF05AF04F
S1131A1E017AF0FF5AF0015AF0018DF061019DF048
S1131A2EADF2BDF4FAF48B9DF15AF1FD8DF16BF02C
S1131A3E9DF0ADF2EAF48DF099ECE91A008F66DFB1
S1131A4E9DF04AF00361E8ECE91A008F56DF9DF031
S1131A5EA4F08DF09F56DF9DF04AF00361E8ECA4EC
S1131A6E1A00C9F002FFADF0BDF2FAF28B9DF0310F
S1131A7E1A9DF05AF00161E8ECA41A00F556DFC97C
S1131A8EF002FFADF0BDF4FAF48B9DF26AF202ADF2
S1131A9EF0EAF48DF2998F56DF9DF04AF00661E874
S1131AAEECE91A00C9F002FFADF0BDF2FAF28B9D1B
S1131ABEF0311A9DF05AF0014AF00161E8ECE91A8E
S1131ACE00F556DFC9F002FFADF0BDF4FAF48B9DBC
S1131ADEF25AF2FDADF0EAF48DF2998F24DF9DF007
S1131AEE4AF00161E8EC2E1B00AF7EDFBDF0A6F0DC
S1131AFEADF0BF7EDFBDF2AF7CDFBDF0ADF246F0E0
S1131B0E61E8EC2E1B00F524DFC9F002FFADF0BD39
S1131B1EF4FAF48B9DF25AF2FEADF0EAF48DF299DA
S1131B2E8F25DF9DF0F4F1ADF044020061F8ECB6C0
S1131B3E1B00ADF044030061F8ECF41B00ADF0445F
S1131B4E010061F8EC5A1B00EC5C1C008F26DF9D33
S1131B5EF0A4F08DF09F26DF9DF04AF00361E8ECCF
S1131B6EB21B00F526DFC9F002FFC9F202FFADF287
S1131B7EBDF4FAF48B9DF2317A9DF27AF2FF5AF2A9
S1131B8E018DF231799DF2ADF0BDF4FAF48B9DF333
S1131B9E5AF37F8DF36BF29DF2ADF0EAF48DF29968
S1131BAEEC5C1C00EC5C1C00C9F002FFC9F202FFE5
S1131BBEADF2BDF4FAF48B9DF2317A9DF27AF2FF16
S1131BCE5AF2018DF231799DF2ADF0BDF4FAF48B37
S1131BDE9DF35AF37F8DF36BF29DF2ADF0EAF48D23
S1131BEEF299EC5C1C008F26DF9DF0A4F08DF09F23
S1131BFE26DF9DF04AF01E61E8EC0E1C00F526DF90
S1131C0E8F26DF9DF0D4F061F8EC291C008F26DFBF
S1131C1E9DF04AF00261E8EC441C00C9F002FFADED
S1131C2EF0BDF4FAF48B9DF26AF280ADF0EAF48D15
S1131C3EF299EC5B1C00C9F002FFADF0BDF4FAF4AE
S1131C4E8B9DF25AF27FADF0EAF48DF299008F2853
S1131C5EDF9DF04AF00161E8EC8A1C00AF2ADFBD7B
S1131C6EF0A6F0ADF0BF2ADFBDF2AF32E0BDF0ADAD
S1131C7EF246F061E8EC8A1C00E527DFC09EFD61A8
S1131C8EDFC4C2C061CFC6C4C2C061FC61CFC1C3D0
S1131C9EC5C761DFC1C3C5C761CF8EFDC1FC69165F
S1131CAE00C9F000FFADF0BDF4FAF48B9DF25AF2C8
S1131CBEDFADF0EAF48DF299C09EFD61DFC6C4C2B9
S1131CCEC061CFC6C4C2C061FC61CFC1C3C5C78EDB
S1131CDEFDC1C09EFDC6C4C2C061FC61CFC1C3C5F7
S1131CEEC78EFDC1C09EFDC6C4C2C061FC61EFC1FA
S1131CFEC361CF2008C9F07700ADF0BDF2EAF2F16E
S1131D0E99FCF90100FC6C0100FC4F0800FC400931
S1131D1E00FC1D0D00FC0D0200C9F07800ADF0BDF5
S1131D2EF4EAF4F199C9F09000ADF0BDF4FAF48B35
S1131D3E9DF26AF201ADF0EAF48DF299F6B804F66A
S1131D4EB806EC771D0000A804BDF0B800A806BDC7
S1131D5EF2B802A800040100BDF0A80261D8A1BD2A
S1131D6EF2ADF0B804ADF2B806A804BDE8A806BDFD
S1131D7EEAADEA440000ADE861F844090061E3EC21
S1131D8E541D00100861EFC2C061CFD72002717BD1
S1131D9EFAFCFB1C00E6B800BDF01002D72006FCCE
S1131DAE631E003004DFB80030FA96B80230030028
S1131DBEB804FC5001003006DFB80030FA96B802C1
S1131DCE300300B804FC50010051039F11DFFC09DD
S1131DDE1400FC851500F557DFE510DF008F57DF83
S1131DEE9DF0D4F061F8ECEB1D00F510DF51FF9F70
S1131DFE08DFF511DFFC620600C9F007FFADF0BD88
S1131E0EF2FAF28B9DF0317A9DF0D4F061E8EC4158
S1131E1E1E00C9F007FFADF0BDF2FAF28B9DF03152
S1131E2E5A9DF05AF00161E8EC411E00F6B800FC30
S1131E3EE57300FCAF7400FC0F7500F55BDFE55A2B
S1131E4EDFE55CDFE579DFE57ADFE580DFFC166947
S1131E5E00EC5F1E00717AFAD72012AEF8BDF204C0
S1131E6E0700BDF0C9F4FD96C9F20A00B800ADF43E
S1131E7EB802ADF2B804FC5001008816318EBDF0E4
S1131E8E444F0061F8EC3D2000ADF0444F0071FF6B
S1131E9E61F3EC431F00ADF044410061F8EC0D20FA
S1131EAE00ADF044410071FF61F3ECF71E00ADF09C
S1131EBE442D0061F8EC952000ADF0442D0071FF27
S1131ECE61F3ECE31E00ADF044200061F8EC9D20BC
S1131EDE00ECA42000ADF004D0FFBDF04409006175
S1131EEEF3ECA42000ECE81F00ADF044460061F8CA
S1131EFEEC252000ADF044460071FF61F3EC291F80
S1131F0E00ADF044430061F8EC152000ADF04445FB
S1131F1E0061F8EC1D2000ECA42000ADF044480054
S1131F2E61F8EC2D2000ADF0444A0061F8EC352048
S1131F3E00ECA42000ADF044680061F8EC652000CC
S1131F4EADF044680071FF61F3EC9C1F00ADF044EA
S1131F5E530061F8EC4D2000ADF044530071FF6165
S1131F6EF3EC821F00ADF044500061F8EC45200004
S1131F7EECA42000ADF044550061F8EC552000AD02
S1131F8EF044640061F8EC5D2000ECA42000ADF098
S1131F9E446F0061F8EC7D2000ADF0446F0071FFDA
S1131FAE61F3ECCE1F00ADF044690061F8EC6D20D6
S1131FBE00ADF0446E0061F8EC752000ECA4200036
S1131FCEADF044720061F8EC852000ADF04474006D
S1131FDE61F8EC8D2000ECA420008816318EBDF043
S1131FEE04D0FFBDF0AEF8BDF4040700BDF206F058
S1131FFEBDF0BDF2FAF28B9DF09811ECA9200051C0
S113200EEE9811ECA92000519C9811ECA9200051D6
S113201E9E9811ECA92000518E9811ECA920005124
S113202E6E9811ECA9200051709811ECA920005162
S113203EFC9811ECA9200051CE9811ECA920005166
S113204EB69811ECA92000517C9811ECA9200051EE
S113205E7A9811ECA92000512E9811ECA920005168
S113206E189811ECA92000512A9811ECA9200051BE
S113207E3A9811ECA92000510A9811ECA9200051AC
S113208E1E9811ECA9200051029811ECA92000F120
S113209E9811ECA92000516C98110088119DF01034
S11320AE12D7C9F00EFF88049DF2317A9DF25AF2CE
S11320BE018DF231699DF2ADF0BDF4FAF48B9DF30E
S11320CE5AF3BF8DF36BF29DF2ADF0EAF48DF299F3
S11320DEC9F201FF8804318EBDF05AF040F4F1AD1F
S11320EEF0440000C9F0000061E8E4F05AF001ADDC
S11320FEF2BDF4FAF48B9DF15AF1FE8DF16BF09D65
S113210EF0ADF2EAF48DF099C9F201FF8804318E34
S113211EBDF05AF020F4F1ADF0440000C9F0000017
S113212E61E8E4F05AF0018DF061019DF0ADF2BD6D
S113213EF4FAF48B9DF15AF1FD8DF16BF09DF0AD37
S113214EF2EAF48DF099C9F201FF8804318EBDF0E4
S113215E5AF010F4F1ADF0440000C9F0000061E84B
S113216EE4F05AF0018DF031299DF0ADF2BDF4FA90
S113217EF48B9DF15AF1FB8DF16BF09DF0ADF2EA0B
S113218EF48DF099C9F201FF8804318EBDF05AF036
S113219E08F4F1ADF0440000C9F0000061E8E4F089
S11321AE5AF0018DF031399DF0ADF2BDF4FAF48B95
S11321BE9DF15AF1F78DF16BF09DF0ADF2EAF48DCD
S11321CEF099C9F201FF8804318EBDF05AF004F47F
S11321DEF1ADF0440000C9F0000061E8E4F05AF0FB
S11321EE018DF031499DF0ADF2BDF4FAF48B9DF101
S11321FE5AF1EF8DF16BF09DF0ADF2EAF48DF0999A
S113220EC9F201FF8804318EBDF05AF002F4F1AD2B
S113221EF0440000C9F0000061E8E4F05AF0018DCA
S113222EF031599DF0ADF2BDF4FAF48B9DF15AF1F3
S113223EDF8DF16BF09DF0ADF2EAF48DF099C9F2F9
S113224E01FF8804318EBDF05AF001F4F1ADF04473
S113225E0000C9F0000061E8E4F08DF031799DF0E2
S113226EADF2BDF4FAF48B9DF15AF17F8DF16BF062
S113227E9DF0ADF2EAF48DF099D720028F5EDF9DCA
S113228EF0F4F1ADF044010061F8EC242300ADF05C
S113229E44010071FF61F3ECB82200ADF04400007C
S11322AE61F8ECD22200EC172400ADF04402006178
S11322BEF8EC762300ADF044030061F8ECC823007B
S11322CEEC172400C9F005FFADF0BDF4FAF48B9DB4
S11322DEF25AF2EFADF0EAF48DF2998F07DF9DF02A
S11322EE9800FC671E008DF09DF18F08DF9DF08D28
S11322FEF15BF09DF09800FCB02000C9F005FFAD35
S113230EF0BDF4FAF48B9DF26AF220ADF0EAF48D8E
S113231EF299EC172400C9F005FFADF0BDF4FAF400
S113232E8B9DF25AF2DFADF0EAF48DF2998F06DF4F
S113233E9DF09800FC671E008DF09DF18F08DF9DC7
S113234EF08DF15BF09DF09800FCB02000C9F00513
S113235EFFADF0BDF4FAF48B9DF26AF204ADF0EA2F
S113236EF48DF299EC172400C9F005FFADF0BDF41D
S113237EFAF48B9DF25AF2FBADF0EAF48DF2998FDA
S113238E05DF9DF09800FC671E008DF09DF18F080F
S113239EDF9DF08DF15BF09DF09800FCB02000C93C
S11323AEF005FFADF0BDF4FAF48B9DF26AF208ADC0
S11323BEF0EAF48DF299EC172400C9F005FFADF0A4
S11323CEBDF4FAF48B9DF25AF2F7ADF0EAF48DF205
S11323DE998F04DF9DF09800FC671E008DF09DF12F
S11323EE8F08DF9DF08DF15BF09DF09800FCB0201E
S11323FE00C9F005FFADF0BDF4FAF48B9DF26AF25C
S113240E10ADF0EAF48DF299001002D720028F5E1F
S113241EDF9DF0F4F1ADF044010061F8ECA124006D
S113242EADF044010071FF61F3EC4A2400ADF044B9
S113243E000061F8EC642400EC552500ADF0440274
S113244E0061F8ECDE2400ADF044030061F8EC1BEF
S113245E2500EC552500C9F005FFADF0BDF4FAF4E6
S113246E8B9DF25AF2EFADF0EAF48DF2998F60DFA4
S113247E9DF09800FCB02000C9F005FFADF0BDF44E
S113248EFAF48B9DF26AF220ADF0EAF48DF299EC37
S113249E552500C9F005FFADF0BDF4FAF48B9DF29D
S11324AE5AF2DFADF0EAF48DF2998F5FDF9DF0986A
S11324BE00FCB02000C9F005FFADF0BDF4FAF48BBA
S11324CE9DF26AF204ADF0EAF48DF299EC55250012
S11324DEC9F005FFADF0BDF4FAF48B9DF25AF2FB90
S11324EEADF0EAF48DF2998F5DDF9DF09800FCB0AB
S11324FE2000C9F005FFADF0BDF4FAF48B9DF26A2D
S113250EF208ADF0EAF48DF299EC552500C9F00508
S113251EFFADF0BDF4FAF48B9DF25AF2F7ADF0EA8A
S113252EF48DF2998F09DF9DF09800FCB02000C95C
S113253EF005FFADF0BDF4FAF48B9DF26AF210AD26
S113254EF0EAF48DF299001002D7C9F002FFADF053
S113255EBDF4FAF48B9DF25AF2DFADF0EAF48DF28B
S113256E99C9F002FFADF0BDF4FAF48B9DF25AF264
S113257EBFADF0EAF48DF299D7C9F002FFADF0BD0C
S113258EF4FAF48B9DF26AF220ADF0EAF48DF2992E
S113259ED7C9F002FFADF0BDF4FAF48B9DF26AF2E6
S11325AE40ADF0EAF48DF299D7C9F002FFADF0BD5B
S11325BEF4FAF48B9DF25AF2F7ADF0EAF48DF29937
S11325CEC9F002FFADF0BDF4FAF48B9DF25AF2EFAE
S11325DEADF0EAF48DF299D7C9F002FFADF0BDF477
S11325EEFAF48B9DF26AF208ADF0EAF48DF299D703
S11325FEC9F002FFADF0BDF4FAF48B9DF26AF2104D
S113260EADF0EAF48DF299D7F6BF0CDFAF06E0BD5C
S113261EF044000061F8ECBA260030EBA9BF00DFED
S113262EAF08E0BDF044000061F8EC7B2600AF4E2D
S113263EE0BDF030EBA926F0BDF2AF06E0BDF0DA56
S113264EF0ADF261DD717BFACFE80080BEF013BE0F
S113265EF6F6BEF2BEF4CFE800818FE8003103FA3D
S113266EAEF061CDBDF0BF0CDFECDC2600AF4AE06E
S113267EBDF030EBA926F0BDF2AF06E0BDF0DAF006
S113268EADF261DD717BFACFE80080BEF013BEF6C9
S113269EF6BEF2BEF4CFE800818FE8003103FAAE45
S11326AEF061CDBDF0BF0CDFECDC2600AF08E0BD61
S11326BEF044000061F8ECD42600AF4EE0BDF0BF4C
S11326CE00DFECDC2600AF4AE0BDF0BF00DFD7AF81
S11326DE06E0BDF044000061F8EC7D270030EBA964
S11326EEBF02DFAF08E0BDF044000061F8EC3E2706
S11326FE00AF4EE0BDF030EBA926F0BDF2AF06E020
S113270EBDF0DAF0ADF261DD717BFACFE80080BE88
S113271EF013BEF6F6BEF2BEF4CFE800818FE800E9
S113272E3103FAAEF061CDBDF0BF0CDFEC9F270094
S113273EAF4AE0BDF030EBA926F0BDF2AF06E0BD26
S113274EF0DAF0ADF261DD717BFACFE80080BEF015
S113275E13BEF6F6BEF2BEF4CFE800818FE8003168
S113276E03FAAEF061CDBDF0BF0CDFEC9F2700AFD6
S113277E08E0BDF044000061F8EC972700AF4EE08E
S113278EBDF0BF02DFEC9F2700AF4AE0BDF0BF02F1
S113279EDFD720028F38E09DF04AF00161E8ECEBC0
S11327AE2700C9F002FFADF0BDF4FAF48B9DF26A76
S11327BEF201ADF0EAF48DF29930DC05B800FC0FAD
S11327CE9500C9F002FFADF0BDF4FAF48B9DF25AF8
S11327DEF2FEADF0EAF48DF299EC1028008F38E099
S11327EE9DF04AF00161E3EC102800C9F002FFAD40
S11327FEF0BDF4FAF48B9DF26AF201ADF0EAF48DB9
S113280EF2998F37E09DF0D4F061E8EC242800F5BE
S113281E66DFEC5B28008F37E09DF04AF00161E83B
S113282EEC3F2800E566DFE512DFF556DFEC5B28AA
S113283E0088064C0161E8EC52280051029F66DFC5
S113284EEC552800E566DFE512DFF556DFC9F00228
S113285EFFADF0BDF4FAF48B9DF26AF202ADF0EA2C
S113286EF48DF2998F13DF9DF0D4F061E8EC862895
S113287E00F56FDFEC1629008F13DF9DF04AF00987
S113288E61F3ECDD2800C9F002FFADF0BDF4FAF4FB
S113289E8B9DF26AF202ADF0EAF48DF299E56FDFE8
S11328AEF574DF008F74DF9DF0318EBDF28F13DF70
S11328BE9DF0F4F1ADF001BDF0ADF246F071FF7193
S11328CE77F161D8ECB22800F56FDFEC1629008899
S11328DE064C0161E8EC162900C9F002FFADF0BD0B
S11328EEF4FAF48B9DF26AF202ADF0EAF48DF299E9
S11328FEE56FDFF574DF008F74DF9DF04AF0096138
S113290EE3EC052900F56FDFC9F002FFADF0BDF46D
S113291EFAF48B9DF26AF202ADF0EAF48DF299109C
S113292E02D72004FC1626008808D161E8EC53294E
S113293E00AF1AE0BDF2AF20DFBDF0ADF226F0B865
S113294E02EC5A2900AF20DFBDF0B802AF20E0BD83
S113295EF2A802BDF0ADF246F061C8EC1A2A00AF3F
S113296E06E0BDF0BF62DFAF20E0BDF0A80226F0A6
S113297EB802AF24E0BDF2A802BDF0ADF246F0619C
S113298EC8ECF82900AF24E0BDF0A80226F0B80286
S113299EAF08E0BDF2BDF001BDF006F2BDF2A80233
S11329AEBDF0ADF246F061C8ECDA2900AF08E0BD27
S11329BEF2BDF001BDF006F2BDF2AF62DFBDF0ADC7
S11329CEF206F0BDF0BF6ADFECE12900A802BDF00B
S11329DEBF6ADFAF24E0BDF2AF6ADFBDF0ADF20631
S11329EEF0BDF0BF72DFEC032A00F6BF6ADFA80267
S11329FEBDF0BF72DFAF20E0BDF2AF72DFBDF0AD50
S1132A0EF206F0BDF0BF6CDFEC332A00F6BF62DFD6
S1132A1EBDF0BF6ADFBDF0BF72DFBDF0A80206F0E5
S1132A2EBDF0BF6CDF8808D161E8EC612A008F1914
S1132A3EDF9DF04AF00761E8EC822A00AF2EE0BD7C
S1132A4EF2AF6CDFBDF0ADF206F0BDF0BF6CDFECA3
S1132A5E822A008F19DF9DF04AF00661E8EC822A83
S1132A6E00AF2EE0BDF2AF6CDFBDF0ADF206F0BDEF
S1132A7EF0BF6CDF8F03E09DF04AF00161E8EC9A41
S1132A8E2A0088089DF09800FCA027001004D72087
S1132A9E04FCDD26008808D161E8ECC02A00AF1CD6
S1132AAEE0BDF2AF22DFBDF0ADF226F0B802ECC706
S1132ABE2A00AF22DFBDF0B802AF22E0BDF2A802B9
S1132ACEBDF0ADF246F061C8EC872B00AF06E0BD59
S1132ADEF0BF70DFAF22E0BDF0A80226F0B802AF5F
S1132AEE26E0BDF2A802BDF0ADF246F061C8EC6579
S1132AFE2B00AF26E0BDF0A80226F0B802AF08E026
S1132B0EBDF2BDF001BDF006F2BDF2A802BDF0ADFE
S1132B1EF246F061C8EC472B00AF08E0BDF2BDF001
S1132B2E01BDF006F2BDF2AF70DFBDF0ADF206F0FE
S1132B3EBDF0BF76DFEC4E2B00A802BDF0BF76DFF2
S1132B4EAF26E0BDF2AF76DFBDF0ADF206F0BDF01C
S1132B5EBF68DFEC702B00F6BF76DFA802BDF0BFB6
S1132B6E68DFAF22E0BDF2AF68DFBDF0ADF206F074
S1132B7EBDF0BF64DFECA02B00F6BF70DFBDF0BF6D
S1132B8E76DFBDF0BF68DFBDF0A80206F0BDF0BF72
S1132B9E64DF8808D161E8ECCE2B008F1ADF9DF03C
S1132BAE4AF00761E8ECEF2B00AF2EE0BDF2AF6404
S1132BBEDFBDF0ADF206F0BDF0BF64DFECEF2B002D
S1132BCE8F1ADF9DF04AF00661E8ECEF2B00AF2E72
S1132BDEE0BDF2AF64DFBDF0ADF206F0BDF0BF6450
S1132BEEDF8F03E09DF04AF00261E8EC072C0088C9
S1132BFE089DF09800FCA027001004D72004FC16B2
S1132C0E26008F03E09DF04AF00261E8EC6E2D0081
S1132C1E8808D161E8EC3B2C00AF1EE0BDF2AF207A
S1132C2EDFBDF0ADF226F0B802EC422C00AF20DF8F
S1132C3EBDF0B802AF20E0BDF2A802BDF0ADF24681
S1132C4EF061C8EC022D00AF06E0BDF0BF62DFAF4D
S1132C5E20E0BDF0A80226F0B802AF24E0BDF2A831
S1132C6E02BDF0ADF246F061C8ECE02C00AF24E0FA
S1132C7EBDF0A80226F0B802AF08E0BDF2BDF00127
S1132C8EBDF006F2BDF2A802BDF0ADF246F061C889
S1132C9EECC22C00AF08E0BDF2BDF001BDF006F2AF
S1132CAEBDF2AF62DFBDF0ADF206F0BDF0BF6ADF7C
S1132CBEECC92C00A802BDF0BF6ADFAF24E0BDF260
S1132CCEAF6ADFBDF0ADF206F0BDF0BF72DFECEB24
S1132CDE2C00F6BF6ADFA802BDF0BF72DFAF20E0A2
S1132CEEBDF2AF72DFBDF0ADF206F0BDF0BF6CDF2A
S1132CFEEC1B2D00F6BF62DFBDF0BF6ADFBDF0BF77
S1132D0E72DFBDF0A80206F0BDF0BF6CDF8808D1FB
S1132D1E61E8EC492D008F19DF9DF04AF00761E858
S1132D2EECC02E00AF2EE0BDF2AF6CDFBDF0ADF205
S1132D3E06F0BDF0BF6CDFECC02E008F19DF9DF0E6
S1132D4E4AF00861E8ECC02E00AF2EE0BDF2AF6C85
S1132D5EDFBDF0ADF206F0BDF0BF6CDFECC02E00AF
S1132D6E8808D161E8ECBF2D00AF1EE0BDF2AF20A4
S1132D7EDFBDF0ADF246F061E3EC9F2D00AF1EE037
S1132D8EBDF2AF20DFBDF0ADF226F0B802ECA22DFD
S1132D9E00F6B802F6BF62DFBDF0BF6ADFBDF0A871
S1132DAE0206F0BDF0BF72DFBDF0BF6CDFECC02ECB
S1132DBE00AF20DFBDF0B802AF20E0BDF2A802BD27
S1132DCEF0ADF246F061C8EC862E00AF06E0BDF021
S1132DDEBF62DFAF20E0BDF0A80226F0B802AF2438
S1132DEEE0BDF2A802BDF0ADF246F061C8EC642E6F
S1132DFE00AF24E0BDF0A80226F0B802AF08E0BD93
S1132E0EF2BDF001BDF006F2BDF2A802BDF0ADF2C6
S1132E1E46F061C8EC462E00AF08E0BDF2BDF001ED
S1132E2EBDF006F2BDF2AF62DFBDF0ADF206F0BD4D
S1132E3EF0BF6ADFEC4D2E00A802BDF0BF6ADFAF13
S1132E4E24E0BDF2AF6ADFBDF0ADF206F0BDF0BF17
S1132E5E72DFEC6F2E00F6BF6ADFA802BDF0BF7200
S1132E6EDFAF20E0BDF2AF72DFBDF0ADF206F0BD14
S1132E7EF0BF6CDFEC9F2E00F6BF62DFBDF0BF6AC1
S1132E8EDFBDF0BF72DFBDF0A80206F0BDF0BF6C6F
S1132E9EDF8F19DF9DF04AF00861E8ECC02E00AF19
S1132EAE2EE0BDF2AF6CDFBDF0ADF206F0BDF0BFAB
S1132EBE6CDF88089DF09800FCA027001004D72032
S1132ECE063004DFB800301797B802300300B80498
S1132EDEFC5001003006DFB800301A97B8023003F8
S1132EEE00B804FC50010051039F11DFF557DFE5D4
S1132EFE10DFE512DFC9F002FFADF0BDF4FAF48B7A
S1132F0E9DF26AF202ADF0EAF48DF299E56FDFF507
S1132F1E74DF51039F66DFF556DF008F74DF9DF07B
S1132F2E4AF00961E3EC292F00F56FDFC9F002FFC7
S1132F3EADF0BDF4FAF48B9DF26AF202ADF0EAF450
S1132F4E8DF299F6BF4CDFFC551400FCD40400C975
S1132F5EF003FFADF0BDF4FAF48B9DF26AF201AD0D
S1132F6EF0EAF48DF299C9F000FFADF0BDF4FAF475
S1132F7E8B9DF26AF240ADF0EAF48DF299C9F0003D
S1132F8EFFADF0BDF4FAF48B9DF26AF220ADF0EAD7
S1132F9EF48DF299AF1AE0BDF0BF20DFBDF0BF1C77
S1132FAEDFAF1AE0BDF0BF22DFBDF0BF1EDFF55B61
S1132FBEDF1006D7F512DFC9F002FFADF0BDF4FA4B
S1132FCEF48B9DF25AF2FDADF0EAF48DF299F51000
S1132FDEDF51FF9F08DFF511DFD720063004DFB87D
S1132FEE00301797B802300300B804FC50010030CB
S1132FFE06DFB800301A97B802300300B804FC504C
S113300E010051039F11DFF557DFE510DFC9F00210
S113301EFFADF0BDF4FAF48B9DF26AF202ADF0EA64
S113302EF48DF299E512DF51039F66DFF556DFAF9B
S113303E4AE0BDF0BF00DFAF4AE0BDF0BF02DFF5EE
S113304E2FDFF530DFF6BF4CDFFC551400FCD40443
S113305E00C9F003FFADF0BDF4FAF48B9DF26AF2F1
S113306E01ADF0EAF48DF299C9F000FFADF0BDF4B4
S113307EFAF48B9DF26AF240ADF0EAF48DF299C93E
S113308EF000FFADF0BDF4FAF48B9DF26AF220ADC0
S113309EF0EAF48DF299F6BF4CDFF6BF4EDFF6BFC1
S11330AE50DFE519DFE51ADFF55BDF1006D7F51201
S11330BEDFC9F002FFADF0BDF4FAF48B9DF25AF2C3
S11330CEFDADF0EAF48DF299F510DF51FF9F08DFA4
S11330DEF511DFD7AF58DFBDF2AF6CDFBDF0ADF247
S11330EE46F061E3EC663100F52FDFFC5825008FC6
S11330FE14DF9DF0F4F1ADF044020061F8EC4E31B2
S113310E00ADF044020071FF61F3EC2B3100ADF021
S113311E44010061F8EC453100EC623100ADF0443D
S113312E030061F8EC553100ADF044040061F8EC95
S113313E5E3100EC62310051039F19DFEC62310005
S113314EE519DFEC62310051059F19DFEC623100A5
S113315EE519DF00ECE63100AF58DFBDF2AF72DFE8
S113316EBDF0ADF246F061E3EC8B310051049F2FBC
S113317EDFAF4CE0BDF0BF00DFECE63100AF58DF4F
S113318EBDF2AF6ADFBDF0ADF246F061E3ECB031F3
S113319E0051039F2FDFAF4AE0BDF0BF00DFECE626
S11331AE3100AF58DFBDF2AF62DFBDF0ADF246F0D5
S11331BE61E3ECD5310051029F2FDFAF4EE0BDF03D
S11331CEBF00DFECE63100AF58DFBDF04400006114
S11331DEF8ECE63100E52FDFAF2CE0BDF2AF4CDFAB
S11331EEBDF0ADF246F061F3EC1F32008F19DF9D96
S11331FEF04AF00161F8EC1F32008F14DF9DF04AA3
S113320EF00261E8EC1F3200FC9F250051049F1967
S113321EDFD78F03E09DF04AF00261E8EC673200DD
S113322EAF2AE0BDF2AF4CDFBDF0ADF246F061F374
S113323EEC6732008F1ADF9DF04AF00361F8EC67F9
S113324E32008F14DF9DF04AF00161E8EC67320022
S113325EFCE6250051029F1ADF8F03E09DF04AF031
S113326E0261E8EC423300AF4ADFBDF2AF64DFBD6A
S113327EF0ADF246F061E3ECC23200F530DFFCB79C
S113328E25008F14DF9DF0F4F1ADF044010061F8D8
S113329EECB13200ADF044020061F8ECBA3200EC4D
S11332AEBE320051039F1ADFECBE3200E51ADF0076
S11332BEEC423300AF4ADFBDF2AF68DFBDF0ADF2D2
S11332CE46F061E3ECE7320051049F30DFAF4CE08F
S11332DEBDF0BF02DFEC423300AF4ADFBDF2AF7682
S11332EEDFBDF0ADF246F061E3EC0C330051039F09
S11332FE30DFAF4AE0BDF0BF02DFEC423300AF4A2D
S113330EDFBDF2AF70DFBDF0ADF246F061E3EC313C
S113331E330051029F30DFAF4EE0BDF0BF02DFEC51
S113332E423300AF4ADFBDF044000061F8EC423393
S113333E00E530DFD7200288069DF09800FCA02718
S113334E00AF50E0BDF0BF00DFF52FDF8806D1617E
S113335EE8EC703300FC87250051029F19DFEC79ED
S113336E3300FC9F250051049F19DFF6BF4CDFC9C3
S113337EF003FFADF0BDF4FAF48B9DF26AF201ADE9
S113338EF0EAF48DF299FCD40400FC5514001002FA
S113339ED700AF40E0BDF2AF4CDFBDF0ADF246F06A
S11333AE61F3ECA03300FCA11400FC030500C9F08A
S11333BE03FFADF0BDF4FAF48B9DF25AF2FEADF0BC
S11333CEEAF48DF299C9F000FFADF0BDF4FAF48B76
S11333DE9DF26AF240ADF0EAF48DF299FC582500A4
S11333EE8804D161E8EC453400AF40E0BDF2BDF095
S11333FE01BDF006F2BDF2AF1CDFBDF0ADF206F07A
S113340EBDF0BF20DF51069F19DFAF1AE0BDF2AF4A
S113341E20DFBDF0ADF246F061C8EC393400510343
S113342E9F19DFAF1AE0BDF0BF20DFAF20DFBDF084
S113343EBF1CDFEC96340051079F19DFAF40E0BD8F
S113344EF2BDF001BDF006F2BDF2AF1CDFBDF0AD72
S113345EF246F061C8EC873400AF1CDFBDF4AF4018
S113346EE0BDF2BDF001BDF006F2BDF0ADF426F004
S113347EBDF0BF20DFEC8E3400E519DFF6BF20DF90
S113348EAF20DFBDF0BF1CDFF512DFC9F002FFADC8
S113349EF0BDF4FAF48B9DF25AF2FDADF0EAF48D20
S11334AEF2998F03E09DF04AF00261F8ECC2340009
S11334BEFCA84000D720028F03E09DF04AF0026181
S11334CEF8ECDD340088069DF09800FCA02700AFD0
S11334DE50E0BDF0BF02DFF530DF8806D161E8ECC5
S11334EE08350088084C0261E8EC1B3500FCE62523
S11334FE0051029F1ADFEC1B350088084C0261E86C
S113350EEC1B3500FCFE250051049F1ADFC9F003A5
S113351EFFADF0BDF2EAF2895C019DF04AF0016163
S113352EF8EC563500F6BF4CDFC9F003FFADF0BD25
S113353EF4FAF48B9DF26AF201ADF0EAF48DF2998D
S113354EFCD40400FC5514001002D700AF40E0BDBB
S113355EF2AF4CDFBDF0ADF246F061F3EC5A35003C
S113356EFCA11400FC030500C9F003FFADF0BDF48B
S113357EFAF48B9DF25AF2FEADF0EAF48DF299C98B
S113358EF000FFADF0BDF4FAF48B9DF26AF220ADBB
S113359EF0EAF48DF299FCB725008804D161E8ECC9
S11335AE09360088064C0261E8EC643600AF40E050
S11335BEBDF2BDF001BDF006F2BDF2AF1EDFBDF0EF
S11335CEADF206F0BDF0BF22DF51069F19DFAF1C2E
S11335DEE0BDF2AF22DFBDF0ADF246F061C8ECFD06
S11335EE350051039F19DFAF1CE0BDF0BF22DFAFE2
S11335FE22DFBDF0BF1EDFEC64360088064C02618C
S113360EE8EC64360051079F1ADFAF40E0BDF2BD0F
S113361EF001BDF006F2BDF2AF1EDFBDF0ADF24615
S113362EF061C8EC553600AF1EDFBDF4AF40E0BD0F
S113363EF2BDF001BDF006F2BDF0ADF426F0BDF022
S113364EBF22DFEC5C3600E51ADFF6BF22DFAF22C5
S113365EDFBDF0BF1EDFF512DFC9F002FFADF0BD16
S113366EF4FAF48B9DF25AF2FDADF0EAF48DF29970
S113367EFCA84000D72002F19800FC302900C9F0C4
S113368E03FFADF0BDF2EAF2895C019DF04AF00150
S113369E61F8ECBF3600C9F003FFADF0BDF4FAF4E7
S11336AE8B9DF26AF201ADF0EAF48DF299FCD4042A
S11336BE008F19DF9DF04AF00361F8ECD63600FC5A
S11336CE87250051029F19DFF6BF4EDFF6BF58DF84
S11336DE8F14DF9DF04AF00161F8ECF73600F6BF67
S11336EE4CDFE514DFFC5514008F03E09DF04AF027
S11336FE0161E8EC0C3700F19800FCA027001002E1
S113370ED72002F19800FC9D2A00C9F003FFADF00A
S113371EBDF2EAF2895C019DF04AF00161F8EC4BCE
S113372E3700C9F003FFADF0BDF4FAF48B9DF26AD5
S113373EF201ADF0EAF48DF299FCD40400F6BF5018
S113374EDFF6BF4ADF8F14DF9DF04AF00161F8EC1B
S113375E6C3700F6BF4CDFE514DFFC551400F1980E
S113376E00FCA027001002D72002E19800FC3029AB
S113377E00C9F003FFADF0BDF2EAF2895C019DF0E1
S113378E4AF00161F8ECB23700C9F003FFADF0BDA9
S113379EF4FAF48B9DF26AF201ADF0EAF48DF2992B
S11337AEFCD404008F03E09DF04AF00161E8ECD7ED
S11337BE37008F19DF9DF04AF00161F8ECD737001E
S11337CEFC9F250051049F19DFF6BF4EDFF6BF584C
S11337DEDF8F14DF9DF04AF00261F8ECFA3700F641
S11337EEBF4CDF51029F14DFFC5514001002D7208A
S11337FE02E19800FC9D2A00C9F003FFADF0BDF272
S113380EEAF2895C019DF04AF00161F8EC39380066
S113381EC9F003FFADF0BDF4FAF48B9DF26AF20128
S113382EADF0EAF48DF299FCD404008F03E09DF020
S113383E4AF00261E8EC5E38008F1ADF9DF04AF020
S113384E0161F8EC5E3800FCFE250051049F1ADF7E
S113385EF6BF50DFF6BF4ADF8F14DF9DF04AF00249
S113386E61F8EC813800F6BF4CDF51029F14DFFC87
S113387E5514001002D7C9F003FFADF0BDF2EAF201
S113388E895C019DF0D4F061F8ECBA3800FCA11407
S113389E00FC030500C9F003FFADF0BDF4FAF48B90
S11338AE9DF25AF2FEADF0EAF48DF299C9F000FFE2
S11338BEADF0BDF4FAF48B9DF26AF240ADF0EAF489
S11338CE8DF299FC582500E517DFF518DF008F17E8
S11338DEDF9DF04AF00161F8ECDC38008804D16118
S11338EEE8EC2E39008F19DF9DF04AF00361F8ECF5
S11338FE1D3900AF1CDFBDF2AF58DFBDF0ADF206CF
S113390EF0BDF0BF20DFBDF0BF1CDFEC613900AFAE
S113391E1AE0BDF0BF20DFBDF0BF1CDFEC61390043
S113392E8F19DF9DF04AF00161F8EC583900AF1C95
S113393EDFBDF2AF58DFBDF0ADF226F0BDF0BF2013
S113394EDFBDF0BF1CDFEC613900F6BF20DFBDF038
S113395EBF1CDF8F14DF9DF0D4F061F8EC8B3900BF
S113396EF514DFF512DFC9F002FFADF0BDF4FAF481
S113397E8B9DF25AF2FDADF0EAF48DF299D7C9F0AF
S113398E03FFADF0BDF2EAF2895C019DF0D4F06163
S113399EF8ECC23900FCA11400FC030500C9F003C5
S11339AEFFADF0BDF4FAF48B9DF25AF2FEADF0EADF
S11339BEF48DF299C9F000FFADF0BDF4FAF48B9DCD
S11339CEF26AF220ADF0EAF48DF299FCB72500E527
S11339DE17DFF518DF008F17DF9DF04AF00161F84D
S11339EEECE439008804D161E8EC363A008F1ADF32
S11339FE9DF04AF00361F8EC253A00AF1EDFBDF2EC
S1133A0EAF4ADFBDF0ADF206F0BDF0BF22DFBDF070
S1133A1EBF1EDFEC693A00AF1CE0BDF0BF22DFBD74
S1133A2EF0BF1EDFEC693A008F1ADF9DF04AF001F9
S1133A3E61F8EC603A00AF1EDFBDF2AF4ADFBDF0B5
S1133A4EADF226F0BDF0BF22DFBDF0BF1EDFEC6984
S1133A5E3A00F6BF22DFBDF0BF1EDF8F14DF9DF0EC
S1133A6ED4F061F8EC933A00F514DFF512DFC9F0E7
S1133A7E02FFADF0BDF4FAF48B9DF25AF2FDADF0F7
S1133A8EEAF48DF299FCA84000D7FC582500F6BF45
S1133A9E52DFE516DF008F16DF9DF04AF00161F864
S1133AAEECA43A0051069F2FDFAF60E0BDF0BF00DB
S1133ABEDF8804D161E8ECD03A00FC9F2500ECD4F9
S1133ACE3A00FC872500F6BF54DFE515DF008F159D
S1133ADEDF9DF04AF00161F8ECDC3A00D7FCB72523
S1133AEE00FC582500F6BF52DFE516DF008F16DF07
S1133AFE9DF04AF00161F8ECFB3A0051069F2FDF6E
S1133B0E51069F30DFAF60E0BDF0BF00DFAF60E075
S1133B1EBDF0BF02DF8804D161E8EC383B00FC9FA6
S1133B2E2500FCFE2500EC403B00FC872500FCE64E
S1133B3E2500F6BF54DFE515DF008F15DF9DF04A33
S1133B4EF00161F8EC483B00D7FCB72500F6BF52F4
S1133B5EDFE516DF008F16DF9DF04AF00161F8EC09
S1133B6E633B0051069F30DFAF60E0BDF0BF02DF64
S1133B7E8804D161E8EC8F3B00FCFE2500EC933BFE
S1133B8E00FCE62500F6BF54DFE515DF008F15DFD8
S1133B9E9DF04AF00161F8EC9B3B00D72002F198AE
S1133BAE00FC0A2C00C9F003FFADF0BDF4FAF48B4F
S1133BBE9DF26AF201ADF0EAF48DF299FCD40400A0
S1133BCEFC87250051029F19DFF6BF4CDFF6BF4E6E
S1133BDEDFF6BF58DF51039F14DFFC5514001002AB
S1133BEED72002E19800FC0A2C00C9F003FFADF0C7
S1133BFEBDF4FAF48B9DF26AF201ADF0EAF48DF2A3
S1133C0E99FCD40400FC9F250051049F19DFF6BFD4
S1133C1E4CDFF6BF4EDFF6BF58DF51049F14DFFCB6
S1133C2E5514001002D7FCA11400FC030500C9F0C2
S1133C3E03FFADF0BDF4FAF48B9DF25AF2FEADF033
S1133C4EEAF48DF299C9F000FFADF0BDF4FAF48BED
S1133C5E9DF26AF240ADF0EAF48DF299C9F000FFDC
S1133C6EADF0BDF4FAF48B9DF26AF220ADF0EAF4F5
S1133C7E8DF299FC582500E517DFF518DF008F1734
S1133C8EDF9DF04AF00161F8EC8C3C008804D161B0
S1133C9EE8ECDE3C008F19DF9DF04AF00561F8EC8C
S1133CAECD3C00AF1CDFBDF2AF58DFBDF0ADF20668
S1133CBEF0BDF0BF20DFBDF0BF1CDFEC113D00AF47
S1133CCE1EE0BDF0BF20DFBDF0BF1CDFEC113D00D8
S1133CDE8F19DF9DF04AF00161F8EC083D00AF1C2E
S1133CEEDFBDF2AF58DFBDF0ADF226F0BDF0BF2060
S1133CFEDFBDF0BF1CDFEC113D00F6BF20DFBDF0D1
S1133D0EBF1CDFF514DFF512DFC9F002FFADF0BD05
S1133D1EF4FAF48B9DF25AF2FDADF0EAF48DF299B9
S1133D2EFCA84000D7C9F007FFADF0BDF2FAF28B44
S1133D3E9DF0314A9DF05AF00161F8EC5E3D008F22
S1133D4E5DDF9DF06AF0018DF09F5DDFEC6B3D0051
S1133D5E8F5DDF9DF05AF0FE8DF09F5DDFC9F00799
S1133D6EFFADF0BDF2FAF28B9DF0311A9DF05AF0D0
S1133D7E0161F8EC963D008F5FDF9DF06AF0808D57
S1133D8EF09F5FDFECA33D008F5FDF9DF05AF07F65
S1133D9E8DF09F5FDFC9F007FFADF0BDF2FAF28B35
S1133DAE9DF0313A9DF05AF00161F8ECCE3D008F52
S1133DBE5FDF9DF06AF0028DF09F5FDFECDB3D006C
S1133DCE8F5FDF9DF05AF0FD8DF09F5FDFC9F00429
S1133DDEFFADF0BDF2FAF28B9DF0311A9DF05AF060
S1133DEE0161F8EC063E008F5FDF9DF06AF0088DEE
S1133DFEF09F5FDFEC133E008F5FDF9DF05AF0F70C
S1133E0E8DF09F5FDFC9F004FFADF0BDF2FAF28BC7
S1133E1E9DF0312A9DF05AF00161F8EC3E3E008F80
S1133E2E5FDF9DF06AF0208DF09F5FDFEC4B3E006C
S1133E3E8F5FDF9DF05AF0DF8DF09F5FDFC9F005D5
S1133E4EFFADF0BDF2EAF2895C019DF0D4F061F8A9
S1133E5EEC733E008F5FDF9DF06AF0018DF09F5F83
S1133E6EDFEC803E008F5FDF9DF05AF0FE8DF09FF9
S1133E7E5FDFC9F007FFADF0BDF2EAF2895C019D88
S1133E8EF0D4F061F8ECA83E008F60DF9DF06AF08C
S1133E9E808DF09F60DFECB53E008F60DF9DF05AA1
S1133EAEF07F8DF09F60DFC9F007FFADF0BDF2FA31
S1133EBEF28B9DF0312A9DF05AF00161F8ECE03E50
S1133ECE008F60DF9DF06AF0028DF09F60DFECEDF5
S1133EDE3E008F60DF9DF05AF0FD8DF09F60DFC9CC
S1133EEEF004FFADF0BDF2FAF28B9DF0313A9DF085
S1133EFE5AF00161F8EC183F008F60DF9DF06AF014
S1133F0E088DF09F60DFEC253F008F60DF9DF05A37
S1133F1EF0F78DF09F60DFC9F00CFFADF0BDF2EA53
S1133F2EF2895C019DF0D4F061F8EC4D3F008F6096
S1133F3EDF9DF06AF0208DF09F60DFEC5A3F008F1A
S1133F4E60DF9DF05AF0DF8DF09F60DFC9F005FF52
S1133F5EADF0BDF2FAF28B9DF0311A9DF05AF001DC
S1133F6E61F8EC853F008F60DF9DF06AF0018DF003
S1133F7E9F60DFEC923F008F60DF9DF05AF0FE8D64
S1133F8EF09F60DFC9F006FFADF0BDF2FAF28B9D33
S1133F9EF0313A9DF05AF00161E8ECBD3F008F0913
S1133FAEDF9DF06AF0808DF09F09DFECCA3F008F31
S1133FBE09DF9DF05AF07F8DF09F09DFC9F006FFEF
S1133FCEADF0BDF2FAF28B9DF0312A9DF05AF0015C
S1133FDE61E8ECF53F008F09DF9DF06AF0108DF07B
S1133FEE9F09DFEC0240008F09DF9DF05AF0EF8D40
S1133FFEF09F09DFC9F006FFADF0BDF2EAF2895C6D
S113400E019DF0D4F061E8EC2A40008F09DF9DF0A9
S113401E6AF0028DF09F09DFEC3740008F09DF9DB7
S113402EF05AF0FD8DF09F09DFC9F006FFADF0BD2B
S113403EF2FAF28B9DF0311A9DF05AF00161E8EC20
S113404E6240008F5DDF9DF06AF0808DF09F5DDF32
S113405EEC6F40008F5DDF9DF05AF07F8DF09F5D19
S113406EDFC9F003FFADF0BDF2FAF28B9DF0311A09
S113407E9DF05AF00161E8EC9A40008F5DDF9DF0EF
S113408E6AF0108DF09F5DDFECA740008F5DDF9D21
S113409EF05AF0EF8DF09F5DDFD7F524DF8F38E017
S11340AE9DF04AF00261E3EC274100E524DF8F38EE
S11340BEE09DF04AF05B61F3ECDD40008F38E09D4B
S11340CEF0F4F1ADF001BDF0BF7CDFEC0841008FE0
S11340DE38E09DF04AF05B61E3EC0841008F38E074
S11340EE9DF0F4F1ADF004A6FFBDF0313DBDF0310D
S11340FE4DBDF226F0BDF0BF7CDFC9F002FFADF07E
S113410EBDF4FAF48B9DF26AF201ADF0EAF48DF28D
S113411E99F6BF7EDFEC3E4100C9F002FFADF0BD63
S113412EF4FAF48B9DF25AF2FEADF0EAF48DF299A4
S113413ED720028F14DF9DF0F4F1ADF0440200613C
S113414EF8ECB84100ADF044020071FF61F3EC7A73
S113415E4100ADF044000061F8EC944100ADF04430
S113416E010061F8EC9C4100ECF14100ADF0440318
S113417E0061F8ECD44100ADF044040061F8ECE4C5
S113418E4100ECF14100FCCD9100ECF141005106EF
S113419E9F19DF51069F1ADFF6B800FC843800F62B
S11341AEB800FC8C3900ECF1410051079F19DF5126
S11341BE079F1ADFE6B800FC843800E6B800FC8CD2
S11341CE3900ECF1410051069F19DFF6B800FC34BA
S11341DE3C00ECF1410051079F19DFE6B800FC34B6
S11341EE3C00001002D720028F14DF9DF0F4F1ADD5
S11341FEF044030061F8EC944300ADF04404006114
S113420EF8ECB54300ADF044000061F8EC22420036
S113421EECEA43008F1ADF9DF04AF00161F8EC3EA0
S113422E42008F03E09DF04AF00161E8EC904300F8
S113423E8F19DF9DF04AF00161E8ECA74200C9F046
S113424E07FFADF0BDF2FAF28B9DF0311A9DF05AD4
S113425EF00161F8EC7342008F54E09DF0D4F061EC
S113426EF8EC904300C9F007FFADF0BDF2EAF28915
S113427E5C019DF0D4F061F8EC9742008F57E09DFD
S113428EF0D4F061F8EC9043008F36E09DF09F136C
S113429EDFFCAA3B00ECEA43008F19DF9DF04AF0E5
S11342AE0761E8ECD94200AF1EE0BDF2AF20DFBDDE
S11342BEF0ADF246F061D8EC9043008F36E09DF0FD
S11342CE9F13DFFCAA3B00ECEA43008F19DF9DF03D
S11342DE4AF00861E8EC2443008F3AE09DF04AF07E
S11342EE0161E8EC1443008F78DF9DF09F2CDFF61C
S11342FEBF2ADFF528DF8F36E09DF09F13DFFCAA7F
S113430E3B00EC9043008F36E09DF09F13DFFCEFF3
S113431E3B00ECEA43008F3AE09DF0D4F061E8EC08
S113432E7243008F19DF9DF04AF00561E8EC4E43AD
S113433E008F78DF9DF09F2CDFF6BF2ADFF528DF94
S113434EAF1EE0BDF2AF20DFBDF0ADF246F061D896
S113435EEC9043008F36E09DF09F13DFFCEF3B00A3
S113436EECEA43008F19DF9DF04AF00561E8EC900A
S113437E43008F78DF9DF09F2CDFF6BF2ADFECEA37
S113438E4300ECEA43008F3AE09DF0D4F061E8EC90
S113439EB1430051089F19DFF6B800FC343C00EC21
S11343AEEA4300ECEA430051079F19DF8F78DF9D43
S11343BEF09F2CDFF6BF2ADFF528DFE6B800FC34C9
S11343CE3C008F3AE09DF04AF00161E8ECE94300CD
S11343DEF513DFFCAA3B00ECE94300001002D720E2
S11343EE028F14DF9DF0F4F1ADF044020061F8EC9D
S11343FE314500ADF044020071FF61F3EC28440036
S113440EADF044000061F8EC424400ADF04401000C
S113441E61F8EC154500EC6A4500ADF0440300610B
S113442EF8EC4D4500ADF044040061F8EC5D450038
S113443EEC6A45008F19DF9DF04AF00161E8ECAF9C
S113444E4400C9F007FFADF0BDF2FAF28B9DF031D6
S113445E1A9DF05AF00161F8EC7744008F54E09DF8
S113446EF0D4F061F8EC114500C9F007FFADF0BDD2
S113447EF2EAF2895C019DF0D4F061F8EC9B440001
S113448E8F57E09DF0D4F061F8EC1145008F36E0C3
S113449E9DF09F13DFFC833600FC0F3700EC6A455A
S11344AE008F19DF9DF04AF00761E8ECD144008FCC
S11344BE36E09DF09F13DFFC833600FC0F3700ECD3
S11344CE1145008F19DF9DF04AF00561F8ECED44BB
S11344DE008F19DF9DF04AF00861E8ECFD44008F6F
S11344EE36E09DF09F13DFFCEF3B00EC1145008F8F
S11344FE36E09DF09F13DFFC763700FCFD3700ECB1
S113450E6A4500EC6A450051069F19DF51069F1A51
S113451EDFF6B800FC843800F6B800FC8C3900ECE9
S113452E6A450051079F19DF51079F1ADFE6B8004D
S113453EFC843800E6B800FC8C3900EC6A45005166
S113454E089F19DFF6B800FC343C00EC6A450051B4
S113455E079F19DFE6B800FC343C00001002D72098
S113456E028F14DF9DF0F4F1ADF044020061F8EC1B
S113457EC94600ADF044020071FF61F3ECA845009A
S113458EADF044000061F8ECC24500ADF04401000A
S113459E61F8EC724700EC734700ADF04403006120
S11345AEF8EC2D4700ADF044040061F8EC484700E8
S11345BEEC7347008F19DF9DF04AF00361E8ECDEDF
S11345CE45008F03E09DF04AF00161F8EC084600C7
S11345DE8F19DF9DF04AF00361E8EC1B46008F1A39
S11345EEDF9DF04AF00361E8EC1B46008F03E09D6B
S11345FEF04AF00261E8EC1B46008F78DF9DF09FD5
S113460E2CDFF6BF2ADFE528DFECC546008F19DF65
S113461E9DF04AF00561E8EC444600F6BF2ADFF54A
S113462E28DF8F36E09DF09F13DFFC833600FC0FEE
S113463E3700ECC546008F19DF9DF04AF00161E8A2
S113464EECB14600C9F007FFADF0BDF2FAF28B9D56
S113465EF0311A9DF05AF00161F8EC7946008F544E
S113466EE09DF0D4F061F8ECC54600C9F007FFAD4B
S113467EF0BDF2EAF2895C019DF0D4F061F8EC9D94
S113468E46008F57E09DF0D4F061F8ECC546008FDC
S113469E36E09DF09F13DFFC833600FC0F3700ECF1
S11346AE7347008F36E09DF09F13DFFC833600FCCA
S11346BE0F3700EC734700EC73470051079F19DF67
S11346CE51079F1ADF8F5CE09DF04AF00161E8EC20
S11346DE0147008F03E09DF04AF00261E8ECFA46D0
S11346EE00E6B800FCEB3A00EC014700E6B800FC2B
S11346FE983A00E6B800FC843800E6B800FC8C3921
S113470E00F6BF2ADFF528DF8F78DF9DF09F2CDFC0
S113471EF513DFFC833600FC0F3700EC73470051B2
S113472E089F19DFF6B800FC343C00F513DFFC8358
S113473E3600FC0F3700EC73470051079F19DFE674
S113474EB800FC343C00F6BF2ADFF528DF8F78DF93
S113475E9DF09F2CDFF513DFFC833600FC0F370032
S113476EEC734700001002D720028F14DF9DF0F483
S113477EF1ADF044020061F8ECDA4800ADF0440209
S113478E0071FF61F3ECB14700ADF044000061F835
S113479EECCB4700ADF044010061F8EC834900EC2A
S11347AE844900ADF044030061F8EC3E4900ADF0DD
S11347BE44040061F8EC594900EC8449008F19DF78
S11347CE9DF04AF00361E8ECE747008F03E09DF0AB
S11347DE4AF00161F8EC1148008F19DF9DF04AF0A0
S11347EE0361E8EC2C48008F1ADF9DF04AF0036158
S11347FEE8EC2C48008F03E09DF04AF00261E8ECEF
S113480E2C4800F6BF2ADFF528DF8F36E09DF09F97
S113481E13DFFC763700FCFD3700ECD648008F1909
S113482EDF9DF04AF00561E8EC554800F6BF2ADF3B
S113483EF528DF8F36E09DF09F13DFFC833600FCF6
S113484E0F3700ECD648008F19DF9DF04AF0016156
S113485EE8ECC24800C9F007FFADF0BDF2FAF28BE6
S113486E9DF0311A9DF05AF00161F8EC8A48008FE0
S113487E54E09DF0D4F061F8ECD64800C9F007FF7F
S113488EADF0BDF2EAF2895C019DF0D4F061F8EC72
S113489EAE48008F57E09DF0D4F061F8ECD6480096
S11348AE8F36E09DF09F13DFFC833600FC0F37003C
S11348BEEC8449008F36E09DF09F13DFFC833600B5
S11348CEFC0F3700EC844900EC84490051079F1912
S11348DEDF51079F1ADF8F5CE09DF04AF00161E81B
S11348EEEC1249008F03E09DF04AF00261E8EC0BF4
S11348FE4900E6B800FCEB3A00EC124900E6B800B9
S113490EFC983A00E6B800FC843800E6B800FC8C4B
S113491E3900F6BF2ADFF528DF8F78DF9DF09F2C54
S113492EDFF513DFFC833600FC0F3700EC844900FF
S113493E51089F19DFF6B800FC343C00F513DFFC78
S113494E833600FC0F3700EC84490051079F19DFB2
S113495EE6B800FC343C00F6BF2ADFF528DF8F787A
S113496EDF9DF09F2CDFF513DFFC833600FC0F3741
S113497E00EC844900001002D720028F14DF9DF052
S113498EF4F1ADF044020061F8EC044B00ADF044D8
S113499E020071FF61F3ECC24900ADF04400006106
S11349AEF8ECDC4900ADF044010061F8ECAF4A00CC
S11349BEECB24B00ADF044030061F8EC594B00AD82
S11349CEF044040061F8EC854B00ECB24B008F19F7
S11349DEDF9DF04AF00161E8EC494A00C9F007FF97
S11349EEADF0BDF2FAF28B9DF0311A9DF05AF00142
S11349FE61F8EC114A008F54E09DF0D4F061F8ECAC
S1134A0EAB4A00C9F007FFADF0BDF2EAF2895C01D2
S1134A1E9DF0D4F061F8EC354A008F57E09DF0D448
S1134A2EF061F8ECAB4A008F36E09DF09F13DFFC8B
S1134A3E833600FC0F3700ECB24B008F19DF9DF06C
S1134A4E4AF00761E8EC6B4A008F36E09DF09F1345
S1134A5EDFFC833600FC0F3700ECAB4A008F19DF06
S1134A6E9DF04AF00561F8EC874A008F19DF9DF03E
S1134A7E4AF00861E8EC974A008F36E09DF09F13E8
S1134A8EDFFCEF3B00ECAB4A008F36E09DF09F134A
S1134A9EDFFC763700FCFD3700ECB24B00ECB24B7A
S1134AAE0051069F19DF51069F1ADF8F5CE09DF0BF
S1134ABE4AF00161E8ECE74A008F03E09DF04AF00A
S1134ACE0261E8ECE04A00F6B800FCEB3A00ECE7D1
S1134ADE4A00F6B800FC983A00F6B800FC84380098
S1134AEEF6B800FC8C3900F513DFFC763700FCFDBC
S1134AFE3700ECB24B0051079F19DF51079F1ADFA5
S1134B0E8F5CE09DF04AF00161E8EC3C4B008F03B2
S1134B1EE09DF04AF00261E8EC354B00E6B800FC8B
S1134B2EEB3A00EC3C4B00E6B800FC983A00E6B8D1
S1134B3E00FC843800E6B800FC8C3900F513DFFC69
S1134B4E833600FC0F3700ECB24B0051089F19DF7F
S1134B5E8F5CE09DF04AF00161E8EC734B00F6B80F
S1134B6E00FC983A00F6B800FC343C00F513DFFC68
S1134B7EEF3B00ECB24B0051079F19DF8F5CE09DB9
S1134B8EF04AF00161E8EC9F4B00E6B800FC983A5D
S1134B9E00E6B800FC343C00F513DFFC833600FC61
S1134BAE0F3700001002D720028F14DF9DF0F4F1AE
S1134BBEADF044020061F8EC324D00ADF044020059
S1134BCE71FF61F3ECF04B00ADF044000061F8ECC2
S1134BDE0A4C00ADF044010061F8ECDD4C00EC87AA
S1134BEE4D00ADF044030061F8EC4E4D00ADF044C1
S1134BFE040061F8EC7A4D00EC874D008F19DF9DAF
S1134C0EF04AF00161E8EC774C00C9F007FFADF013
S1134C1EBDF2FAF28B9DF0311A9DF05AF00161F853
S1134C2EEC3F4C008F54E09DF0D4F061F8ECD94C7D
S1134C3E00C9F007FFADF0BDF2EAF2895C019DF008
S1134C4ED4F061F8EC634C008F57E09DF0D4F06122
S1134C5EF8ECD94C008F36E09DF09F13DFFC8336C1
S1134C6E00FC0F3700EC874D008F19DF9DF04AF0E2
S1134C7E0761E8EC994C008F36E09DF09F13DFFC42
S1134C8E833600FC0F3700ECD94C008F19DF9DF0F2
S1134C9E4AF00561F8ECB54C008F19DF9DF04AF02F
S1134CAE0861E8ECC54C008F36E09DF09F13DFFCE5
S1134CBEEF3B00ECD94C008F36E09DF09F13DFFCE8
S1134CCE763700FCFD3700EC874D00EC874D005124
S1134CDE069F19DF51069F1ADF8F5CE09DF04AF0A4
S1134CEE0161E8EC154D008F03E09DF04AF002617E
S1134CFEE8EC0E4D00F6B800FCEB3A00EC154D0056
S1134D0EF6B800FC983A00F6B800FC843800F6B801
S1134D1E00FC8C3900F513DFFC763700FCFD370000
S1134D2EEC874D0051079F19DF51079F1ADFE6B834
S1134D3E00FC843800E6B800FC8C3900EC874D008A
S1134D4E51089F19DF8F5CE09DF04AF00161E8EC99
S1134D5E684D00F6B800FC983A00F6B800FC343CF6
S1134D6E00F513DFFCEF3B00EC874D0051079F1954
S1134D7EDFE6B800FC343C00001002D78F35E09D0E
S1134D8EF0F4F1ADF044020061F8ECED4D00ADF03D
S1134D9E44020071FF61F3ECC34D00ADF04400001A
S1134DAE61F8ECDD4D00ADF044010061F8ECE54D29
S1134DBE00EC054E00ADF044030061F8ECF54D0037
S1134DCEADF044040061F8ECFD4D00EC054E00FC22
S1134DDEED4300EC0A4E00FC6D4500EC0A4E00FC5F
S1134DEE764700EC0A4E00FC874900EC0A4E00FCA4
S1134DFEB54B00EC0A4E00FCED430000D720028FA9
S1134E0E3CE09DF0D4F061E8ECF14F0000C9F006EF
S1134E1EFFADF0BDF2FAF28B9DF0313A9DF05AF0EF
S1134E2E0161F8EC1B4E008F14DF9DF0F4F1ADF030
S1134E3E44020061F8EC1B4F00ADF044020071FF18
S1134E4E61F3EC6E4E00ADF044000061F8EC884E58
S1134E5E00ADF044010061F8ECEC4F00ECED4F00B6
S1134E6EADF044030061F8EC704F00ADF044040063
S1134E7E61F8ECAE4F00ECED4F008F19DF9DF04A58
S1134E8EF00161E8ECF54E00C9F007FFADF0BDF29C
S1134E9EFAF28B9DF0311A9DF05AF00161F8ECBDD7
S1134EAE4E008F54E09DF0D4F061F8EC174F00C91A
S1134EBEF007FFADF0BDF2EAF2895C019DF0D4F08B
S1134ECE61F8ECE14E008F57E09DF0D4F061F8EC00
S1134EDE174F008F36E09DF09F13DFFC833600FCE6
S1134EEE0F3700ECED4F008F19DF9DF04AF0036190
S1134EFEF8EC174F008F36E09DF09F13DFFC8336DE
S1134F0E00FC0F3700ECED4F00ECED4F0051079F06
S1134F1E19DF51079F1ADF8F5CE09DF04AF00161A3
S1134F2EE8EC534F008F03E09DF04AF00261E8EC89
S1134F3E4C4F00E6B800FCEB3A00EC534F00E6B8D9
S1134F4E00FC983A00E6B800FC843800E6B800FC91
S1134F5E8C3900F513DFFC833600FC0F3700ECEDC3
S1134F6E4F0051089F19DF8F5CE09DF04AF00161FC
S1134F7EE8EC984F008F03E09DF04AF00261E8ECF4
S1134F8E984F00F6B800FC983A00F6B800FC343C92
S1134F9E00F513DFFC833600FC0F3700ECED4F00F9
S1134FAE51079F19DF8F5CE09DF04AF00161E8EC38
S1134FBED64F008F03E09DF04AF00261E8ECD64F25
S1134FCE00E6B800FC983A00E6B800FC343C00F564
S1134FDE13DFFC833600FC0F3700ECED4F0000ECC2
S1134FEEBA51008F79DF9DF04AF00161E8ECBA51B5
S1134FFE00F579DF8F14DF9DF0F4F1ADF04402007B
S113500E61F8ECE85000ADF044020071FF61F3EC7E
S113501E3B5000ADF044000061F8EC555000ADF08B
S113502E44010061F8ECB95100ECBA5100ADF04402
S113503E030061F8EC3D5100ADF044040061F8EC5E
S113504E7B5100ECBA51008F19DF9DF04AF00161DB
S113505EE8ECC25000C9F007FFADF0BDF2FAF28BD6
S113506E9DF0311A9DF05AF00161F8EC8A50008FD0
S113507E54E09DF0D4F061F8ECE45000C9F007FF61
S113508EADF0BDF2EAF2895C019DF0D4F061F8EC6A
S113509EAE50008F57E09DF0D4F061F8ECE4500070
S11350AE8F36E09DF09F13DFFC833600FC0F370034
S11350BEECBA51008F19DF9DF04AF00361F8ECE46D
S11350CE50008F36E09DF09F13DFFC833600FC0FFB
S11350DE3700ECBA5100ECBA510051079F19DF5159
S11350EE079F1ADF8F5CE09DF04AF00161E8EC2027
S11350FE51008F03E09DF04AF00261E8EC19510073
S113510EE6B800FCEB3A00EC205100E6B800FC983F
S113511E3A00E6B800FC843800E6B800FC8C39008E
S113512EF513DFFC833600FC0F3700ECBA51005147
S113513E089F19DF8F5CE09DF04AF00161E8EC6591
S113514E51008F03E09DF04AF00261E8EC655100D6
S113515EF6B800FC983A00F6B800FC343C00F5139F
S113516EDFFC833600FC0F3700ECBA510051079F69
S113517E19DF8F5CE09DF04AF00161E8ECA3510069
S113518E8F03E09DF04AF00261E8ECA35100E6B80B
S113519E00FC983A00E6B800FC343C00F513DFFC42
S11351AE833600FC0F3700ECBA5100001002D720F2
S11351BE028F3CE09DF0D4F061E8EC3F53008F1475
S11351CEDF9DF0F4F1ADF044010061F8ECA2520061
S11351DEADF044030061F8ECF75200ADF04400006A
S11351EE61F8ECF85100EC2053008F19DF9DF04A62
S11351FEF00361E8EC1452008F03E09DF04AF001D5
S113520E61F8EC4C52008F19DF9DF04AF00361E80F
S113521EEC3E52008F1ADF9DF04AF00361E8EC3E3B
S113522E52008F03E09DF04AF00261F8EC4C5200FC
S113523E8F19DF9DF04AF00561E8EC5B52008F7820
S113524EDF9DF09F2CDFF6BF2ADFF528DF8F36E0D7
S113525E9DF09F13DF8F19DF9DF04AF00561F8EC86
S113526E8D52008F19DF9DF04AF00861F8EC8D52D3
S113527E008F1ADF9DF04AF00161E8EC965200FCB3
S113528EEF3B0000EC205300FC763700FCFD3700AA
S113529EEC20530051069F19DF51069F1ADF8F5CD5
S11352AEE09DF04AF00161E8ECDA52008F03E09DD4
S11352BEF04AF00261E8ECD35200F6B800FCEB3A87
S11352CE00ECDA5200F6B800FC983A00F6B800FC8E
S11352DE843800F6B800FC8C3900F513DFFC763701
S11352EE00FCFD3700EC20530051089F19DF8F5C42
S11352FEE09DF04AF00161E8EC115300F6B800FCB1
S113530E983A00F6B800FC343C00F513DFFCEF3B92
S113531E000000C9F006FFADF0BDF2FAF28B9DF06D
S113532E312A9DF05AF00161F8EC215300ECA4549B
S113533E008F7ADF9DF04AF00161E8ECA45400F589
S113534E7ADF8F14DF9DF0F4F1ADF044010061F8C3
S113535EEC265400ADF044030061F8EC7B5400AD30
S113536EF044000061F8EC7C5300ECA454008F1957
S113537EDF9DF04AF00361E8EC9853008F03E09D43
S113538EF04AF00161F8ECD053008F19DF9DF04A1A
S113539EF00361E8ECC253008F1ADF9DF04AF0036C
S11353AE61E8ECC253008F03E09DF04AF00261F80D
S11353BEECD053008F19DF9DF04AF00561E8ECDF65
S11353CE53008F78DF9DF09F2CDFF6BF2ADFF52880
S11353DEDF8F36E09DF09F13DF8F19DF9DF04AF0CB
S11353EE0561F8EC1154008F19DF9DF04AF0086145
S11353FEF8EC1154008F1ADF9DF04AF00161E8ECCD
S113540E1A5400FCEF3B0000ECA45400FC76370069
S113541EFCFD3700ECA4540051069F19DF51069F82
S113542E1ADF8F5CE09DF04AF00161E8EC5E5400F7
S113543E8F03E09DF04AF00261E8EC575400F6B891
S113544E00FCEB3A00EC5E5400F6B800FC983A000F
S113545EF6B800FC843800F6B800FC8C3900F5135D
S113546EDFFC763700FCFD3700ECA4540051089F96
S113547E19DF8F5CE09DF04AF00161E8EC95540071
S113548EF6B800FC983A00F6B800FC343C00F5136C
S113549EDFFCEF3B00001002D7F527DFF528DFF61F
S11354AEBF2ADFC9F003FFADF0BDF2FAF28B9DF017
S11354BE311A9DF05AF00161F8EC3755008F2CDF4C
S11354CE9DF0D4F061F8ECF254008F2CDF9DF04A7D
S11354DEF06361F8ECF254008F2CDF9DF0B4F08D84
S11354EEF09F2CDF8F19DF9DF04AF00561E8EC0C7C
S11354FE55008F36E09DF09F13DFFCEF3B008F19B4
S113550EDF9DF04AF00161F8EC3755008F14DF9DF2
S113551EF0D4F061E8EC3755008F36E09DF09F1320
S113552EDFFC763700FCFD3700D720028F14DF9D99
S113553EF0F4F1ADF044020061F8EC205600ADF049
S113554E44020071FF61F3EC735500ADF0440000AA
S113555E61F8EC8D5500ADF044010061F8ECAB56EA
S113556E00ECAC5600ADF044030061F8EC75560047
S113557EADF044040061F8EC905600ECAC56008F8C
S113558E19DF9DF04AF00161E8ECFA5500C9F00705
S113559EFFADF0BDF2FAF28B9DF0311A9DF05AF088
S11355AE0161F8ECC255008F54E09DF0D4F061F81F
S11355BEEC1C5600C9F007FFADF0BDF2EAF2895CAF
S11355CE019DF0D4F061F8ECE655008F57E09DF0A4
S11355DED4F061F8EC1C56008F36E09DF09F13DF7B
S11355EEFC833600FC0F3700ECAC56008F19DF9DA0
S11355FEF04AF00361F8EC1C56008F36E09DF09FE4
S113560E13DFFC833600FC0F3700ECAC5600ECAC19
S113561E560051079F19DF51079F1ADF8F5CE09DDB
S113562EF04AF00161E8EC5856008F03E09DF04A11
S113563EF00261E8EC515600E6B800FCEB3A00ECDF
S113564E585600E6B800FC983A00E6B800FC8438D8
S113565E00E6B800FC8C3900F513DFFC833600FC41
S113566E0F3700ECAC560051089F19DFF6B800FC5A
S113567E343C00F513DFFC833600FC0F3700ECAC32
S113568E560051079F19DFE6B800FC343C00F513B1
S113569EDFFC833600FC0F3700ECAC560000100222
S11356AED720028F14DF9DF0F4F1ADF044020061B7
S11356BEF8EC885700ADF044020071FF61F3ECEA98
S11356CE5600ADF044000061F8EC045700ADF04410
S11356DE010061F8EC185700EC8E5700ADF044034E
S11356EE0061F8EC6D5700ADF044040061F8EC8DE8
S11356FE5700EC8E57008F36E09DF09F13DFFC763B
S113570E3700FCFD3700EC8E570051069F19DF5110
S113571E069F1ADF8F5CE09DF04AF00161E8EC50C1
S113572E57008F03E09DF04AF00261E8EC49570000
S113573EF6B800FCEB3A00EC505700F6B800FC98B3
S113574E3A00F6B800FC843800F6B800FC8C390038
S113575EF513DFFC763700FCFD3700EC8E57005155
S113576E089F19DFF6B800FC343C00F513DFFC7615
S113577E3700FCFD3700EC8E570000EC8E5700000E
S113578E1002D720028F14DF9DF0F4F1ADF0440225
S113579E0061F8EC395900ADF044020071FF61F379
S11357AEECCC5700ADF044000061F8ECE65700ADC8
S11357BEF044010061F8EC515800EC7E5B00ADF052
S11357CE44030061F8EC215A00ADF044040061F882
S11357DEECD15A00EC7E5B008F19DF9DF04AF0018C
S11357EE61E8EC1658008F54E09DF04AF00261E82F
S11357FEEC1658008F36E09DF09F13DFFC833600C5
S113580EFC0F3700EC4D58008F19DF9DF04AF00164
S113581E61F8EC4D58008F58E09DF04AF00161E8B4
S113582EEC4D580000C9F007FFADF0BDF2FAF28B53
S113583E9DF0311A9DF05AF00161E8EC335800ECFA
S113584E7E5B008F52E09DF0D4F061F8EC35590088
S113585E51069F19DF51069F1ADF8F5AE09DF04AB9
S113586EF00161E8EC9658008F03E09DF04AF002D7
S113587E61E8EC8F5800F6B800FCEB3A00EC965851
S113588E00F6B800FC983A00F6B800FC843800F62E
S113589EB800FC8C39008F52E09DF04AF00261E3AF
S11358AEECF9580000C9F007FFADF0BDF2FAF28B27
S11358BE9DF0311A9DF05AF00161E8ECB358008F57
S11358CE52E09DF04AF00361E8ECEA5800F513DF6C
S11358DEFC833600FC0F3700EC355900F513DFFC62
S11358EE763700FCFD3700EC7E5B008F52E09DF0B6
S11358FE4AF00261E8EC3559008F53E09DF0D4F084
S113590E61F8EC265900F6B800FC843800F6B800AD
S113591EFC8C3900EC355900F513DFFC763700FCAE
S113592EFD3700EC7E5B00EC7E5B008F53E09DF058
S113593ED4F061F8EC1D5A0051079F19DF51079FEF
S113594E1ADF8F5AE09DF04AF00161E8EC7E5900AF
S113595E8F03E09DF04AF00261E8EC775900E6B857
S113596E00FCEB3A00EC7E5900E6B800FC983A00D5
S113597EE6B800FC843800E6B800FC8C39008F537E
S113598EE09DF04AF00261E3ECE1590000C9F00732
S113599EFFADF0BDF2FAF28B9DF0311A9DF05AF084
S11359AE0161E8EC9B59008F53E09DF04AF00361CE
S11359BEE8ECD25900F513DFFC763700FCFD370016
S11359CEEC1D5A00F513DFFC833600FC0F3700EC98
S11359DE7E5B008F53E09DF04AF00261E8EC1D5AA5
S11359EE008F52E09DF0D4F061F8EC0E5A00E6B848
S11359FE00FC843800E6B800FC8C3900EC1D5A001B
S1135A0EF513DFFC833600FC0F3700EC7E5B00ECF5
S1135A1E7E5B008F52E09DF0D4F061F8ECCD5A001D
S1135A2E51089F19DF8F5AE09DF04AF00161E8ECAE
S1135A3E485A00F6B800FC983A00F6B800FC343C1C
S1135A4E008F52E09DF04AF00261E3EC9C5A000094
S1135A5EC9F007FFADF0BDF2FAF28B9DF0311A9D3D
S1135A6EF05AF00161E8EC5E5A008F52E09DF04A64
S1135A7EF00361E8EC915A00F513DFFCAA3B00EC4D
S1135A8ECD5A00F513DFFCEF3B00EC7E5B008F522A
S1135A9EE09DF04AF00261E8ECCD5A008F53E09D90
S1135AAEF0D4F061F8ECC25A00F6B800FC343C00B5
S1135ABEECCD5A00F513DFFCEF3B00EC7E5B00EC03
S1135ACE7E5B008F53E09DF0D4F061F8EC7D5B00BB
S1135ADE51079F19DF8F5AE09DF04AF00161E8ECFF
S1135AEEF85A00E6B800FC983A00E6B800FC343CDC
S1135AFE008F53E09DF04AF00261E3EC4C5B000032
S1135B0EC9F007FFADF0BDF2FAF28B9DF0311A9D8C
S1135B1EF05AF00161E8EC0E5B008F53E09DF04A01
S1135B2EF00361E8EC415B00F513DFFCEF3B00ECA6
S1135B3E7D5B00F513DFFCAA3B00EC7D5B008F530D
S1135B4EE09DF04AF00261E8EC7D5B008F52E09D2F
S1135B5EF0D4F061F8EC725B00E6B800FC343C0063
S1135B6EEC7D5B00F513DFFCAA3B00EC7D5B0000D3
S1135B7E1002D720028F14DF9DF0F4F1ADF0440231
S1135B8E0061F8EC235D00ADF044020071FF61F397
S1135B9EECBC5B00ADF044000061F8ECD65B00ADEC
S1135BAEF044010061F8EC3E5C00EC5F5F00ADF088
S1135BBE44030061F8EC085E00ADF044040061F8A3
S1135BCEECB55E00EC5F5F008F19DF9DF04AF001CB
S1135BDE61E8EC065C008F57E09DF04AF00261E844
S1135BEEEC065C008F36E09DF09F13DFFC833600DD
S1135BFEFC0F3700EC3A5C008F19DF9DF04AF00180
S1135C0E61F8EC3A5C008F58E09DF04AF00261E8CE
S1135C1EEC3A5C0000C9F007FFADF0BDF2EAF28980
S1135C2E5C019DF0D4F061E8EC235C00EC5F5F0056
S1135C3E8F55E09DF0D4F061F8EC1F5D0051069F86
S1135C4E19DF51069F1ADF8F5AE09DF04AF0016169
S1135C5EE8EC835C008F03E09DF04AF00261E8EC0F
S1135C6E7C5C00F6B800FCEB3A00EC835C00F6B802
S1135C7E00FC983A00F6B800FC843800F6B800FC34
S1135C8E8C39008F55E09DF04AF00261E3ECE35C41
S1135C9E0000C9F007FFADF0BDF2EAF2895C019D88
S1135CAEF0D4F061E8ECA05C008F55E09DF04AF072
S1135CBE0361E8ECD45C00F513DFFC833600FC0FC3
S1135CCE3700EC1F5D00F513DFFC763700FCFD3763
S1135CDE00EC5F5F008F55E09DF04AF00261E8EC46
S1135CEE1F5D008F56E09DF0D4F061F8EC105D005E
S1135CFEF6B800FC843800F6B800FC8C3900EC1FB2
S1135D0E5D00F513DFFC763700FCFD3700EC5F5FBA
