S02200004447435F413233305F365F5265765F315F305F536F6674776172652E6D6F7472
S1070000EA00FFFF10
S1130004DD1CDD1C2A05DD1CDD1CDD1CDD1CDD1CEA
S1130014DD1CDD1CDD1CDD1CDD1CDD1CDD1CDD1C10
S1130024A80CCE0BDD1CDD1CAD163A17D318101921
S1130034DD1CDD1CDD1CDD1CDD1CDD1CDD1C2219AE
S1130044DD1C8E1CCB1CDD1CDD1CDD1CDD1C4806EC
S1130054DD1CDD1CDD1CDD1CDD1CDD1CDD1CDD1CD0
S1130064DD1CDD1CDD1CDD1CDD1CDD1CDD1CDD1CC0
S10F0074DD1CDD1CDD1CDD1CDD1CDD1CA6
S10700C0EFF3E00472
S10D00C4000000000000000000002E
S11100D8DB05DB054130722DFF010100320013
S11300E6EA00EFFECBF8DCFE410061CF34D80036DF
S11300F600DF61DF3600DF300EDF27311E440000EB
S1130106DD0EB161CF11A9BBA5A5A7A761DFEFEDF0
S113011661CF30000061DF3074E0360EDF27311E18
S1130126440000DD0AB161CFBBA7A761DFEFF1612F
S1130136CFFC8E1D0000300000C1C1C1FC9F1D0014
S1130146EFFEA80414A80616A808440000DD0A0752
S1130156128BA799A51347DFF8A804BDF0D7C9F0F9
S1130166A0FFADF0BDF2EAF2F199C9F0A1FFADF03E
S1130176BDF4FAF48B9DF26AF280ADF0EAF48DF2E6
S113018699C9F0A4FFADF0BDF4FAF48B9DF25AF2CE
S1130196EFADF0EAF48DF299C9F0A1FFADF0BDF42C
S11301A6FAF48B9DF26AF240ADF0EAF48DF299C945
S11301B6F0F300ADF0BDF2EAF2511099C9F0A4FFD4
S11301C6ADF0BDF4FAF48B9DF25AF2BFADF0EAF449
S11301D68DF299C9F0A1FFADF0BDF4FAF48B9DF24E
S11301E65AF2FEADF0EAF48DF299D72002C9F0A8CE
S11301F6FFADF0BDF2FAF28B9DF098011002D7C95B
S1130206F0E4FFADF0BDF4FAF48B9DF26AF204ADAE
S1130216F0EAF48DF299C9F0E0FFADF0BDF4FAF41A
S11302268B9DF25AF2FBADF0EAF48DF299C9F0E433
S1130236FFADF0BDF4FAF48B9DF26AF208ADF0EA74
S1130246F48DF299C9F0E0FFADF0BDF4FAF48B9D9C
S1130256F25AF2F7ADF0EAF48DF299C9F0E4FFAD83
S1130266F0BDF4FAF48B9DF26AF210ADF0EAF48D67
S1130276F299C9F0E0FFADF0BDF4FAF48B9DF25AA1
S1130286F2EFADF0EAF48DF299C9F0E4FFADF0BDFA
S1130296F4FAF48B9DF26AF220ADF0EAF48DF29949
S11302A6C9F0E0FFADF0BDF4FAF48B9DF25AF2DF2B
S11302B6ADF0EAF48DF299C9F0E4FFADF0BDF4FABD
S11302C6F48B9DF26AF240ADF0EAF48DF299C9F02E
S11302D6E0FFADF0BDF4FAF48B9DF25AF2BFADF037
S11302E6EAF48DF299C9F0E4FFADF0BDF4FAF48BAB
S11302F69DF26AF280ADF0EAF48DF299C9F0E0FF5E
S1130306ADF0BDF4FAF48B9DF25AF27FADF0EAF447
S11303168DF299C9F0D4FFADF0BDF4FAF48B9DF2D9
S11303266AF208ADF0EAF48DF299C9F0D0FFADF0A7
S1130336BDF4FAF48B9DF25AF2F7ADF0EAF48DF2BD
S113034699C9F0D4FFADF0BDF4FAF48B9DF26AF2CC
S113035610ADF0EAF48DF299C9F0D0FFADF0BDF41A
S1130366FAF48B9DF25AF2EFADF0EAF48DF299C9E4
S1130376F0D4FFADF0BDF4FAF48B9DF26AF220AD31
S1130386F0EAF48DF299C9F0D0FFADF0BDF4FAF4B9
S11303968B9DF25AF2DFADF0EAF48DF299C9F0D4EE
S11303A6FFADF0BDF4FAF48B9DF26AF240ADF0EACB
S11303B6F48DF299C9F0D0FFADF0BDF4FAF48B9D3B
S11303C6F25AF2BFADF0EAF48DF299C9F0D4FFAD5A
S11303D6F0BDF4FAF48B9DF26AF280ADF0EAF48D86
S11303E6F299C9F0D0FFADF0BDF4FAF48B9DF25A40
S11303F6F27FADF0EAF48DF299C9F0D5FFADF0BD08
S1130406F4FAF48B9DF26AF201ADF0EAF48DF299F6
S1130416C9F0D1FFADF0BDF4FAF48B9DF25AF2FEA9
S1130426ADF0EAF48DF299C9F0ECFFADF0BDF4FA43
S1130436F48B9DF25AF2FBADF0EAF48DF299C9F011
S1130446E8FFADF0BDF4FAF48B9DF25AF2FBADF081
S1130456EAF48DF299C9F0DCFFADF0BDF4FAF48B41
S11304669DF25AF27FADF0EAF48DF299C9F0D8FF05
S1130476ADF0BDF4FAF48B9DF25AF27FADF0EAF4D6
S11304868DF299C9F039FFADF0BDF2EAF2E199C9EE
S1130496F038FFADF0BDF4EAF4E199C9F03BFFADE5
S11304A6F0BDF2EAF2510499C9F227FFC9F027FF19
S11304B6ADF0BDF4FAF48B9DF06AF040ADF2BDF4F4
S11304C6EAF48DF099D7C9F0E0FFADF0BDF4FAF483
S11304D68B9DF25AF2FBADF0EAF48DF299C9F0E481
S11304E6FFADF0BDF4FAF48B9DF25AF2FBADF0EADF
S11304F6F48DF299D7C9F0E4FFADF0BDF4FAF48BAC
S11305069DF26AF204ADF0EAF48DF299C9F0E0FFC7
S1130516ADF0BDF4FAF48B9DF25AF2FBADF0EAF4B9
S11305268DF299D761CFC1C3C5C761DFC1C3C5C742
S113053661CF8EFDC1C9F00DFFADF0BDF2FAF28BAD
S11305469DF0317A9DF04AF00161E8EC870500C917
S1130556F000FFADF0BDF4FAF48B9DF26AF240AD03
S1130566F0EAF48DF299C9F000FFADF0BDF4FAF4A7
S11305768B9DF26AF220ADF0EAF48DF299EC37061F
S113058600C9F264FFAF00DFBDF0ADF2BDF4EAF4DA
S1130596ADF0B9C9F26CFFAF02DFBDF0ADF2BDF448
S11305A6EAF4ADF0B98F2FDF9DF04AF00461E8EC70
S11305B6ED05008F0EDF9DF0A4F08DF09F0EDF9DFC
S11305C6F04AF00661E8ECD30500F50EDF8F0EDF86
S11305D69DF04AF00161F3ECE90500FCE51400EC3A
S11305E6F10500ECF10500FCE514008F30DF9DF009
S11305F64AF00461E8EC3306008F0FDF9DF0A4F0A7
S11306068DF09F0FDF9DF04AF00661E8EC190600B5
S1130616F50FDF8F0FDF9DF04AF00161F3EC2F0633
S113062600FC151600EC370600EC370600FC151620
S113063600C09EFD61DFC6C4C2C061CFC6C4C2C0CD
S113064661FC61CFC1C3C5C78EFDC1C09EFDC6C4D2
S1130656C2C061FC51189F32DFF533DFD720028F09
S113066634DF9DF04AF00161E8ECBC0600A806BD43
S1130676F0BF36DFA808BDF0BF38DFA80ABDF0BF5B
S11306863ADF51049F3CDF3036DFB800FCA6950004
S11306968DF09F3EDFECAA06000000FC1396008D49
S11306A6F09F3EDF8F3EDF9DF04AF0FF61F8EC9F3E
S11306B60600ECC1060051109F3EDF8F3EDF9DF021
S11306C61002D720028F34DF9DF04AF00161E8EC76
S11306D6030700A806BDF0BF36DFA808BDF0BF3883
S11306E6DFA80ABDF0BF3ADFF53CDF3036DFB800DD
S11306F6FCA695008DF09F3EDFEC08070051109F85
S11307063EDF8F3EDF9DF01002D720028F34DF9D3F
S1130716F04AF00161E8EC5B0700A806BDF0BF36BD
S1130726DF51039F3CDF3036DFB800FCA695008D11
S1130736F09F3EDFEC4907000000FC1396008DF0A5
S11307469F3EDF8F3EDF9DF04AF0FF61F8EC3E07E7
S113075600EC60070051109F3EDF8F3EDF9DF010D6
S113076602D7200251189F32DFF533DF3032DFB86B
S113077600FC819500E534DF1002D7FC1F9600F5D6
S113078634DFD720028F34DF9DF04AF00161E8ECB4
S1130796DB0700A806BDF0BF36DFA808BDF0BF3AE8
S11307A6DF51089F3CDF3036DFB800FCA695008D8C
S11307B6F09F3EDFECC907000000FC1396008DF0A5
S11307C69F3EDF8F3EDF9DF04AF0FF61F8ECBE07E7
S11307D600ECE0070051109F3EDF8F3EDF9DF010D6
S11307E602D720028F34DF9DF04AF00161E8EC3A2B
S11307F60800A806BDF0BF36DFA808BDF0BF3ADF83
S113080651069F3CDF3036DFB800FCA695008DF01C
S11308169F3EDFEC2808000000FC1396008DF09F35
S11308263EDF8F3EDF9DF04AF0FF61F8EC1D0800C5
S1130836EC3F080051109F3EDF8F3EDF9DF0100213
S1130846D7C9F000FFADF0BDF2EAF2516099C9F0E4
S113085601FFADF0BDF2EAF2F199C9F002FFADF085
S1130866BDF2EAF2F199C9F003FFADF0BDF2EAF286
S1130876F199C9F005FFADF0BDF2EAF2F199C9F0BC
S11308860EFFADF0BDF2EAF2F199C9F06C00ADF0DD
S1130896BDF2EAF251FE99C9F06E00ADF0BDF2EA7E
S11308A6F2517F99C9F07600ADF0BDF2EAF2E19912
S11308B6C9F020FFADF0BDF2EAF2519F99C9F021CB
S11308C6FFADF0BDF2EAF2514099C9F022FFADF056
S11308D6BDF2EAF2F199C9F023FFADF0BDF2EAF2F6
S11308E651FE99C9F024FFADF0BDF2EAF251FF9929
S11308F6C9F025FFADF0BDF2EAF251C399C9F0265D
S1130906FFADF0BDF2EAF251FF99C9F027FFADF051
S1130916BDF2EAF251FF99C9F02CFFADF0BDF2EA3F
S1130926F251FF99C9F02EFFADF0BDF2EAF251BFC4
S113093699D7C9F0F000ADF0BDF4FAF48B9DF26AD4
S1130946F204ADF0EAF48DF29900000000C9F02635
S113095601ADF0BDF2EAF2304400B9FC660900D7F5
S1130966C9F22401C9F02401ADF0BDF4FAF4ABBD1B
S1130976F06AF00CADF2BDF4EAF4ADF0B9C9F0E6F4
S1130986FFADF0BDF4FAF48B9DF26AF201ADF0EA24
S1130996F48DF299C9F0E2FFADF0BDF4FAF48B9D43
S11309A6F25AF2FEADF0EAF48DF299C9F0E6FFAD23
S11309B6F0BDF4FAF48B9DF26AF202ADF0EAF48D1E
S11309C6F299C9F0E2FFADF0BDF4FAF48B9DF25A48
S11309D6F2FDADF0EAF48DF299C9F0E6FFADF0BD93
S11309E6F4FAF48B9DF26AF204ADF0EAF48DF2990E
S11309F6C9F0E2FFADF0BDF4FAF48B9DF25AF2FBB6
S1130A06ADF0EAF48DF299C9F0EEFFADF0BDF4FA5B
S1130A16F48B9DF26AF201ADF0EAF48DF299C9F015
S1130A26EAFFADF0BDF4FAF48B9DF26AF201ADF083
S1130A36EAF48DF299C9F0EEFFADF0BDF4FAF48B49
S1130A469DF26AF202ADF0EAF48DF299C9F0EAFF7A
S1130A56ADF0BDF4FAF48B9DF26AF202ADF0EAF45D
S1130A668DF299C9F01401ADF0BDF2EAF23022001C
S1130A76B9C9F01C01ADF0BDF4EAF4309780B9C9E8
S1130A86F044FFADF0BDF2EAF230009AB9C9F27053
S1130A9600C9F07000ADF0BDF4FAF48B9DF06AF075
S1130AA604ADF2BDF4EAF48DF099C9F00E01ADF08F
S1130AB6BDF2EAF2300700B9C9F01601ADF0BDF493
S1130AC6EAF4302201B9C9F01E01ADF0BDF2EAF232
S1130AD6309740B9C9F046FFADF0BDF4EAF43000F2
S1130AE69AB9C9F22801C9F02801ADF0BDF4FAF4A7
S1130AF6ABBDF06AF004ADF2BDF4EAF4ADF0B9C9E9
S1130B06F23401C9F03401ADF0BDF4FAF4ABBDF032
S1130B16ADF2BDF4EAF4ADF0B9C9F22A01C9F02A7E
S1130B2601ADF0BDF4FAF4ABBDF06AF004ADF2BD6C
S1130B36F4EAF4ADF0B9C9F26000C9F06000ADF0B2
S1130B46BDF4FAF48B9DF05AF0F7ADF2BDF4EAF475
S1130B568DF099C9F220FFC9F020FFADF0BDF4FA7B
S1130B66F48B9DF06AF008ADF2BDF4EAF48DF099C9
S1130B76C9F26000C9F06000ADF0BDF4FAF48B9DD3
S1130B86F05AF0FBADF2BDF4EAF48DF099C9F20027
S1130B96FFC9F000FFADF0BDF4FAF48B9DF06AF0E6
S1130BA604ADF2BDF4EAF48DF099C9F220FFC9F060
S1130BB620FFADF0BDF4FAF48B9DF05AF0FBADF2D4
S1130BC6BDF4EAF48DF099D761CFC1C3C5C761DF1F
S1130BD6C1C3C5C761CF8EFDC12004C9F00601ADEE
S1130BE6F0BDF2FAF2ABBDF05AF0078DF09802C9E7
S1130BF6F20E0188029DF0F4F1ADF2BDF4EAF4AD13
S1130C06F0B988029DF0D4F061F8EC1E0C0088025D
S1130C169DF09800FC140D00C9F046FFADF0BDF23E
S1130C26FAF28B9DF09803AF40DFBDF2AF42DFBD11
S1130C36F0ADF246F061E3EC870C00AF44DFBDF0A3
S1130C4688039DF2ADF0BDF4EAF48DF299AF44DF6A
S1130C56BDF0A6F0ADF0BF44DFAF42DFBDF0A6F0B5
S1130C66ADF0BF42DFAF40DFBDF2AF42DFBDF0AD56
S1130C76F246F061E8EC950C00FC110D00EC950CC5
S1130C860088039DF0F4F1ADF0B800FC120D0010DD
S1130C9604C09EFD61DFC6C4C2C061CFC6C4C2C063
S1130CA661FC61CFC1C3C5C761DFC1C3C5C761CF1D
S1130CB68EFDC1AF48DFBDF044000061F8ECFC0CCA
S1130CC600C9F244FFAF46DFBDF0BDF4FAF48B9DD4
S1130CD6F0ADF2BDF4EAF48DF099AF46DFBDF0A6AF
S1130CE6F0ADF0BF46DFAF48DFBDF0B6F0ADF0BF04
S1130CF648DFEC000D00FC130D00C09EFD61DFC64D
S1130D06C4C2C061CFC6C4C2C061FCD7D7D7D7C9D5
S1130D16F0F000ADF0BDF4FAF48B9DF26AF201AD89
S1130D26F0EAF48DF299C9F0B601ADF0BDF2EAF23B
S1130D36308200B9C9F0B401ADF0BDF4EAF430FF75
S1130D460AB9C9F0E6FFADF0BDF4FAF48B9DF26A78
S1130D56F210ADF0EAF48DF299C9F0E2FFADF0BD00
S1130D66F4FAF48B9DF25AF2EFADF0EAF48DF299AF
S1130D76C9F0E6FFADF0BDF4FAF48B9DF26AF220F9
S1130D86ADF0EAF48DF299C9F0E2FFADF0BDF4FAE4
S1130D96F48B9DF25AF2DFADF0EAF48DF299C9F0C4
S1130DA6E5FFADF0BDF4FAF48B9DF26AF280ADF086
S1130DB6EAF48DF299C9F0E1FFADF0BDF4FAF48BD3
S1130DC69DF25AF27FADF0EAF48DF299C9F0E6FF8E
S1130DD6ADF0BDF4FAF48B9DF26AF240ADF0EAF49C
S1130DE68DF299C9F0E2FFADF0BDF4FAF48B9DF2F1
S1130DF65AF2BFADF0EAF48DF299C9F0E6FFADF010
S1130E06BDF4FAF48B9DF26AF280ADF0EAF48DF249
S1130E1699C9F0E2FFADF0BDF4FAF48B9DF25AF2F3
S1130E267FADF0EAF48DF299C9F0E6FFADF0BDF4BA
S1130E36FAF48B9DF26AF204ADF0EAF48DF299C9E4
S1130E46F0E2FFADF0BDF4FAF48B9DF25AF2FBAD7D
S1130E56F0EAF48DF299C9F0E7FFADF0BDF4FAF4C7
S1130E668B9DF26AF280ADF0EAF48DF299C9F0E353
S1130E76FFADF0BDF4FAF48B9DF25AF27FADF0EAC1
S1130E86F48DF299C9F0D4FFADF0BDF4FAF48B9D5C
S1130E96F26AF201ADF0EAF48DF299C9F0D0FFAD31
S1130EA6F0BDF4FAF48B9DF25AF2FEADF0EAF48D3D
S1130EB6F299C9F0D4FFADF0BDF4FAF48B9DF26A51
S1130EC6F202ADF0EAF48DF299C9F0D0FFADF0BDAF
S1130ED6F4FAF48B9DF25AF2FDADF0EAF48DF29930
S1130EE6C9F0D4FFADF0BDF4FAF48B9DF26AF204B6
S1130EF6ADF0EAF48DF299C9F0D0FFADF0BDF4FA85
S1130F06F48B9DF25AF2FBADF0EAF48DF299C9F036
S1130F16EEFFADF0BDF4FAF48B9DF26AF210ADF07B
S1130F26EAF48DF299C9F0EAFFADF0BDF4FAF48B58
S1130F369DF26AF210ADF0EAF48DF299C9F0EEFF73
S1130F46ADF0BDF4FAF48B9DF26AF220ADF0EAF44A
S1130F568DF299C9F0EAFFADF0BDF4FAF48B9DF277
S1130F666AF220ADF0EAF48DF299C9F0EEFFADF025
S1130F76BDF4FAF48B9DF26AF240ADF0EAF48DF218
S1130F8699C9F0EAFFADF0BDF4FAF48B9DF26AF26A
S1130F9640ADF0EAF48DF299C9F0EEFFADF0BDF480
S1130FA6FAF48B9DF26AF280ADF0EAF48DF299C9F7
S1130FB6F0EAFFADF0BDF4FAF48B9DF25AF27FAD80
S1130FC6F0EAF48DF299C9F0EFFFADF0BDF4FAF44E
S1130FD68B9DF26AF280ADF0EAF48DF299C9F0EBDA
S1130FE6FFADF0BDF4FAF48B9DF26AF280ADF0EA3F
S1130FF6F48DF299C9F0DCFFADF0BDF4FAF48B9DE3
S1131006F26AF202ADF0EAF48DF299C9F0D8FFADB6
S1131016F0BDF4FAF48B9DF26AF202ADF0EAF48DB7
S1131026F299C9F0DCFFADF0BDF4FAF48B9DF26AD7
S1131036F204ADF0EAF48DF299C9F0D8FFADF0BD33
S1131046F4FAF48B9DF25AF2FBADF0EAF48DF299C0
S1131056C9F09001ADF0BDF2EAF2F6B9C9F018FF95
S1131066ADF0BDF4EAF4302F75B9C9F2B801C9F090
S1131076B801ADF0BDF4FAF4ABBDF05AF0FEADF232
S1131086BDF4EAF4ADF0B9C9F2BA01C9F0BA01ADDA
S1131096F0BDF4FAF4ABBDF05AF0FEADF2BDF4EADD
S11310A6F4ADF0B9C9F09201ADF0BDF2EAF2F6B9C9
S11310B6C9F01AFFADF0BDF4EAF4305FEAB9C9F23B
S11310C6BE01C9F0BE01ADF0BDF4FAF4ABBDF05AF1
S11310D6F0FDADF2BDF4EAF4ADF0B9C9F2BC01C954
S11310E6F0BC01ADF0BDF4FAF4ABBDF05AF0FDADC1
S11310F6F2BDF4EAF4ADF0B9C9F2B801C9F0B80129
S1131106ADF0BDF4FAF4ABBDF05AF0FDADF2BDF4AA
S1131116EAF4ADF0B9C9F2BA01C9F0BA01ADF0BD4D
S1131126F4FAF4ABBDF05AF0FDADF2BDF4EAF4AD59
S1131136F0B9C9F09401ADF0BDF2EAF2F6B9C9F01E
S113114664FFADF0BDF4EAF4306F17B9C9F2BE011D
S1131156C9F0BE01ADF0BDF4FAF4ABBDF05AF0FB34
S1131166ADF2BDF4EAF4ADF0B9C9F2BC01C9F0BC04
S113117601ADF0BDF4FAF4ABBDF05AF0FBADF2BD2F
S1131186F4EAF4ADF0B9C9F2B801C9F0B801ADF0AA
S1131196BDF4FAF4ABBDF05AF0FBADF2BDF4EAF4DB
S11311A6ADF0B9C9F2BA01C9F0BA01ADF0BDF4FAAD
S11311B6F4ABBDF05AF0FBADF2BDF4EAF4ADF0B910
S11311C6C9F09601ADF0BDF2EAF2F6B9C9F066FFD0
S11311D6ADF0BDF4EAF4306F17B9C9F2BE01C9F037
S11311E6BE01ADF0BDF4FAF4ABBDF05AF0F7ADF2C2
S11311F6BDF4EAF4ADF0B9C9F2BC01C9F0BC01AD65
S1131206F0BDF4FAF4ABBDF05AF0F7ADF2BDF4EA72
S1131216F4ADF0B9C9F2B801C9F0B801ADF0BDF446
S1131226FAF4ABBDF05AF0F7ADF2BDF4EAF4ADF062
S1131236B9C9F2BA01C9F0BA01ADF0BDF4FAF4AB1A
S1131246BDF05AF0F7ADF2BDF4EAF4ADF0B9C9F069
S11312569801ADF0BDF2EAF2300080B9C9F068FF3A
S1131266ADF0BDF4EAF4301AB7B9C9F2BE01C9F05B
S1131276BE01ADF0BDF4FAF4ABBDF05AF0EFADF239
S1131286BDF4EAF4ADF0B9C9F2BC01C9F0BC01ADD4
S1131296F0BDF4FAF4ABBDF05AF0EFADF2BDF4EAEA
S11312A6F4ADF0B9C9F2B801C9F0B801ADF0BDF4B6
S11312B6FAF4ABBDF05AF0EFADF2BDF4EAF4ADF0DA
S11312C6B9C9F2BA01C9F0BA01ADF0BDF4FAF4AB8A
S11312D6BDF05AF0EFADF2BDF4EAF4ADF0B9C9F0E1
S11312E69C01ADF0BDF2EAF2F6B9C9F06CFFADF0BF
S11312F6BDF4EAF4306F17B9C9F2BE01C9F0BE01F4
S1131306ADF0BDF4FAF4ABBDF05AF0BFADF2BDF4E6
S1131316EAF4ADF0B9C9F2BC01C9F0BC01ADF0BD47
S1131326F4FAF4ABBDF05AF0BFADF2BDF4EAF4AD95
S1131336F0B9C9F2B801C9F0B801ADF0BDF4FAF4D8
S1131346ABBDF05AF0BFADF2BDF4EAF4ADF0B9C9E5
S1131356F2BA01C9F0BA01ADF0BDF4FAF4ABBDF0CE
S11313665AF0BFADF2BDF4EAF4ADF0B9C9F09E018E
S1131376ADF0BDF2EAF2F6B9C9F06EFFADF0BDF418
S1131386EAF4306F17B9C9F2BE01C9F0BE01ADF077
S1131396BDF4FAF4ABBDF05AF07FADF2BDF4EAF455
S11313A6ADF0B9C9F2BC01C9F0BC01ADF0BDF4FAA7
S11313B6F4ABBDF05AF07FADF2BDF4EAF4ADF0B98A
S11313C6C9F2B801C9F0B801ADF0BDF4FAF4ABBD89
S11313D6F05AF07FADF2BDF4EAF4ADF0B9C9F2BA51
S11313E601C9F0BA01ADF0BDF4FAF4ABBDF05AF0A0
S11313F67FADF2BDF4EAF4ADF0B9D7C9F0E2FFADC2
S1131406F0BDF4FAF48B9DF25AF2EFADF0EAF48DE6
S1131416F299C9F0E6FFADF0BDF4FAF48B9DF25AE9
S1131426F2EFADF0EAF48DF299C9F2B201C9F0B265
S113143601ADF0BDF4FAF4ABBDF06AF001ADF2BD56
S1131446F4EAF4ADF0B9D7C9F0E2FFADF0BDF4FAB1
S1131456F48B9DF25AF2DFADF0EAF48DF299C9F0FD
S1131466E6FFADF0BDF4FAF48B9DF25AF2DFADF06F
S1131476EAF48DF299C9F2B201C9F0B201ADF0BD38
S1131486F4FAF4ABBDF06AF002ADF2BDF4EAF4ADE1
S1131496F0B9D7C9F2B401C9F0B401ADF0BDF4FA9C
S11314A6F4ABBDF06AF002ADF2BDF4EAF4ADF0B906
S11314B6C9F0E6FFADF0BDF4FAF48B9DF26AF220B2
S11314C6ADF0EAF48DF299C9F0E2FFADF0BDF4FA9D
S11314D6F48B9DF25AF2DFADF0EAF48DF299D7C996
S11314E6F0E2FFADF0BDF4FAF48B9DF25AF2BFAD13
S11314F6F0EAF48DF299C9F0E6FFADF0BDF4FAF422
S11315068B9DF25AF2BFADF0EAF48DF299C9F2B2AC
S113151601C9F0B201ADF0BDF4FAF4ABBDF06AF066
S113152604ADF2BDF4EAF4ADF0B9D7C9F2B401C919
S1131536F0B401ADF0BDF4FAF4ABBDF06AF004AD5D
S1131546F2BDF4EAF4ADF0B9C9F0E6FFADF0BDF4CE
S1131556FAF48B9DF26AF240ADF0EAF48DF299C981
S1131566F0E2FFADF0BDF4FAF48B9DF25AF2BFAD92
S1131576F0EAF48DF299D7C9F0E3FFADF0BDF4FAC1
S1131586F48B9DF25AF27FADF0EAF48DF299C9F02C
S1131596E7FFADF0BDF4FAF48B9DF25AF27FADF09D
S11315A6EAF48DF299C9F2B201C9F0B201ADF0BD07
S11315B6F4FAF4ABBDF06AF010ADF2BDF4EAF4ADA2
S11315C6F0B9D7C9F2B401C9F0B401ADF0BDF4FA6B
S11315D6F4ABBDF06AF010ADF2BDF4EAF4ADF0B9C7
S11315E6C9F0E7FFADF0BDF4FAF48B9DF26AF28020
S11315F6ADF0EAF48DF299C9F0E3FFADF0BDF4FA6B
S1131606F48B9DF25AF27FADF0EAF48DF299D7C9C4
S1131616F0D0FFADF0BDF4FAF48B9DF25AF2FDADB5
S1131626F0EAF48DF299C9F0D4FFADF0BDF4FAF402
S11316368B9DF25AF2FDADF0EAF48DF299C9F2B23D
S113164601C9F0B201ADF0BDF4FAF4ABBDF06AF035
S113165640ADF2BDF4EAF4ADF0B9D7C9F2B401C9AC
S1131666F0B401ADF0BDF4FAF4ABBDF06AF040ADF0
S1131676F2BDF4EAF4ADF0B9C9F0D4FFADF0BDF4AF
S1131686FAF48B9DF26AF202ADF0EAF48DF299C98E
S1131696F0D0FFADF0BDF4FAF48B9DF25AF2FDAD35
S11316A6F0EAF48DF299D761CFC1C3C5C761DFC132
S11316B6C3C5C761CF8EFDC1AF72E0BDF0A6F0AD64
S11316C6F0BF72E08F5CDF9DF0A4F08DF09F5CDFCD
S11316D69DF04AF00461E8ECE41600F55CDF8F1136
S11316E6DF9DF0D4F061E8ECFD1600FC123D00FC31
S11316F61B2400EC011700FC8922008F17DF9DF0E4
S11317064AF00161E8EC2917008F18DF9DF0A4F078
S11317168DF09F18DF9DF04AF01461E8EC2917005C
S1131726F517DFC09EFD61DFC6C4C2C061CFC6C463
S1131736C2C061FC61CFC1C3C5C761DFC1C3C5C730
S113174661CF8EFDC1AF4CDFBDF0A6F0ADF0BF4C4E
S1131756DF8F19DF9DF04AF00261F8EC7317008FF2
S113176619DF9DF04AF00461E8ECB81700AF4EDFCC
S1131776BDF0A6F0ADF0BF4EDF8F2FDF9DF04AF02F
S11317860361F8EC9B17008F2FDF9DF04AF002618E
S1131796E8ECAC1700AF58DFBDF0040300BDF0BFA2
S11317A658DFECB81700AF58DFBDF0A6F0ADF0BFB8
S11317B658DF8F1ADF9DF04AF00261F8ECD4170067
S11317C68F1ADF9DF04AF00461E8EC191800AF5057
S11317D6DFBDF0A6F0ADF0BF50DF8F30DF9DF04ADD
S11317E6F00361F8ECFC17008F30DF9DF04AF0023D
S11317F661E8EC0D1800AF4ADFBDF0040300BDF04C
S1131806BF4ADFEC191800AF4ADFBDF0A6F0ADF011
S1131816BF4ADF8F16DF9DF04AF00161E8EC4118FC
S113182600AF52DFBDF0A6F0ADF0BF52DFBDF0440D
S1131836040061E8EC411800F516DF8F15DF9DF012
S11318464AF00161E8EC6F1800AF54DFBDF0A6F072
S1131856ADF0BF54DFBDF2AF5CE0BDF0ADF246F0D3
S113186661E8EC6F1800F515DF8F14DF9DF0D4F0F6
S113187661F8EC801800FC6133008F2FDF9DF04A7D
S1131886F00161E8ECA11800AF00DFBDF2AF0CDF98
S1131896BDF0ADF226F0BDF0BF00DF8F30DF9DF066
S11318A64AF00161E8ECC21800AF02DFBDF2AF0CEA
S11318B6DFBDF0ADF226F0BDF0BF02DFC09EFD61D4
S11318C6DFC6C4C2C061CFC6C4C2C061FC61CFC199
S11318D6C3C5C761DFC1C3C5C761CF8EFDC1FC31B6
S11318E61500C9F000FFADF0BDF4FAF48B9DF25A71
S11318F6F2BFADF0EAF48DF299C09EFD61DFC6C475
S1131906C2C061CFC6C4C2C061FC61CFC1C3C5C772
S11319168EFDC1C09EFDC6C4C2C061FC61CFC1C3F9
S1131926C5C761DFC1C3C561CF8EFDC18F10DF9D01
S1131936F04AF00161E8EC5919008F08DF9DF07A4E
S1131946F0FF8DF09F08DF8F57DF9DF0A4F08DF038
S11319569F57DF8F6CDF9DF04AF00161E8EC731945
S1131966008F72DF9DF0A4F08DF09F72DF8F12DF7F
S11319769DF04AF00161E8ECDD1A008F64DF9DF00A
S11319864AF00261E8ECD31900C9F202FFC9F00279
S1131996FFADF0BDF4FAF48B9DF0311A9DF05AF0C8
S11319A6017AF0FF5AF0015AF0018DF061019DF0C1
S11319B6ADF2BDF4FAF48B9DF15AF1FD8DF16BF0A5
S11319C69DF0ADF2EAF48DF099ECDD1A008F64DF38
S11319D69DF04AF00161E8EC3F1A008F56DF9DF056
S11319E6A4F08DF09F56DF9DF04AF00361E8ECDD2C
S11319F61A00F556DFC9F202FFC9F002FFADF0BDC9
S1131A06F4FAF48B9DF0311A9DF05AF0017AF0FF46
S1131A165AF0015AF0018DF061019DF0ADF2BDF46A
S1131A26FAF48B9DF15AF1FD8DF16BF09DF0ADF258
S1131A36EAF48DF099ECDD1A008F64DF9DF04AF02C
S1131A460361E8ECDD1A008F56DF9DF0A4F08DF0FB
S1131A569F56DF9DF04AF00361E8EC981A00C9F03E
S1131A6602FFADF0BDF2FAF28B9DF0311A9DF05AE9
S1131A76F00161E8EC981A00F556DFC9F002FFADF3
S1131A86F0BDF4FAF48B9DF26AF202ADF0EAF48D3D
S1131A96F2998F56DF9DF04AF00661E8ECDD1A00F4
S1131AA6C9F002FFADF0BDF2FAF28B9DF0311A9D3A
S1131AB6F05AF0014AF00161E8ECDD1A00F556DF50
S1131AC6C9F002FFADF0BDF4FAF48B9DF25AF2FDB3
S1131AD6ADF0EAF48DF2998F24DF9DF04AF00161AE
S1131AE6E8EC221B00AF7CDFBDF0A6F0ADF0BF7CB6
S1131AF6DFBDF2AF7ADFBDF0ADF246F061E8EC226D
S1131B061B00F524DFC9F002FFADF0BDF4FAF48B37
S1131B169DF25AF2FEADF0EAF48DF2998F25DF9D1F
S1131B26F0F4F1ADF044020061F8ECAA1B00ADF04C
S1131B3644030061F8ECE81B00ADF044010061F8D1
S1131B46EC4E1B00EC501C008F26DF9DF0A4F08D9C
S1131B56F09F26DF9DF04AF00361E8ECA61B00F532
S1131B6626DFC9F002FFC9F202FFADF2BDF4FAF4B2
S1131B768B9DF2317A9DF27AF2FF5AF2018DF2319F
S1131B86799DF2ADF0BDF4FAF48B9DF35AF37F8D93
S1131B96F36BF29DF2ADF0EAF48DF299EC501C0071
S1131BA6EC501C00C9F002FFC9F202FFADF2BDF40D
S1131BB6FAF48B9DF2317A9DF27AF2FF5AF2018D94
S1131BC6F231799DF2ADF0BDF4FAF48B9DF35AF33C
S1131BD67F8DF36BF29DF2ADF0EAF48DF299EC5041
S1131BE61C008F26DF9DF0A4F08DF09F26DF9DF06C
S1131BF64AF01E61E8EC021C00F526DF8F26DF9D05
S1131C06F0D4F061F8EC1D1C008F26DF9DF04AF03D
S1131C160261E8EC381C00C9F002FFADF0BDF4FA2D
S1131C26F48B9DF26AF280ADF0EAF48DF299EC4FF2
S1131C361C00C9F002FFADF0BDF4FAF48B9DF25A14
S1131C46F27FADF0EAF48DF299008F28DF9DF04A19
S1131C56F00161E8EC7E1C00AF2ADFBDF0A6F0AD12
S1131C66F0BF2ADFBDF2AF30E0BDF0ADF246F06161
S1131C76E8EC7E1C00E527DFC09EFD61DFC4C2C020
S1131C8661CFC6C4C2C061FC61CFC1C3C5C761DF31
S1131C96C1C3C5C761CF8EFDC1FC611600C9F00082
S1131CA6FFADF0BDF4FAF48B9DF25AF2DFADF0EA23
S1131CB6F48DF299C09EFD61DFC6C4C2C061CFC671
S1131CC6C4C2C061FC61CFC1C3C5C78EFDC1C09E7D
S1131CD6FDC6C4C2C061FC61CFC1C3C5C78EFDC108
S1131CE6C09EFDC6C4C2C061FC61EFC1C361CF2002
S1131CF608C9F07700ADF0BDF2EAF2F199FCF10102
S1131D0600FC640100FC470800FC380900FC150DC2
S1131D1600FC050200C9F07800ADF0BDF4EAF4F168
S1131D2699C9F09000ADF0BDF4FAF48B9DF26AF215
S1131D3601ADF0EAF48DF299F6B804F6B806EC6B48
S1131D461D0000A804BDF0B800A806BDF2B802A89C
S1131D5600040100BDF0A80261D8A1BDF2ADF0B83F
S1131D6604ADF2B806A804BDE8A806BDEAADEA4487
S1131D760000ADE861F844090061E3EC481D001079
S1131D860861EFC2C061CFD72002717BFAFCEF1C59
S1131D9600E6B800BDF01002D72006FC641E003031
S1131DA604DFB800300693B802300300B804FC48D8
S1131DB601003006DFB800300693B802300300B8DD
S1131DC604FC48010051039F11DFFC011400FC7D53
S1131DD61500F557DFE510DF008F57DF9DF04AF059
S1131DE60961E3ECDF1D00F510DF51FF9F08DFF505
S1131DF611DFFC5A0600C9F007FFADF0BDF2FAF296
S1131E068B9DF0317A9DF0D4F061E8EC361E00C962
S1131E16F007FFADF0BDF2FAF28B9DF0315A9DF05A
S1131E265AF00161E8EC361E00F6B800FCF06F00CB
S1131E36FCBA7000FC177100E55ADF8F32E09DF0A2
S1131E464AF00161E8EC531E00FCD82D00E577DF6B
S1131E56E578DFE57EDFFCA76500EC601E00717A9D
S1131E66FAD72012AEF8BDF2040700BDF0C9F40992
S1131E7693C9F20A00B800ADF4B802ADF2B804FC96
S1131E864801008816318EBDF0444F0061F8EC3EDF
S1131E962000ADF0444F0071FF61F3EC441F00AD28
S1131EA6F044410061F8EC0E2000ADF044410071AD
S1131EB6FF61F3ECF81E00ADF0442D0061F8EC96DA
S1131EC62000ADF0442D0071FF61F3ECE41E00AD7B
S1131ED6F044200061F8EC9E2000ECA52000ADF053
S1131EE604D0FFBDF044090061F3ECA52000ECE941
S1131EF61F00ADF044460061F8EC262000ADF04426
S1131F06460071FF61F3EC2A1F00ADF04443006103
S1131F16F8EC162000ADF044450061F8EC1E2000F4
S1131F26ECA52000ADF044480061F8EC2E2000AD8D
S1131F36F0444A0061F8EC362000ECA52000ADF030
S1131F4644680061F8EC662000ADF044680071FF57
S1131F5661F3EC9D1F00ADF044530061F8EC4E2094
S1131F6600ADF044530071FF61F3EC831F00ADF044
S1131F7644500061F8EC462000ECA52000ADF04486
S1131F86550061F8EC562000ADF044640061F8ECAD
S1131F965E2000ECA52000ADF0446F0061F8EC7EF5
S1131FA62000ADF0446F0071FF61F3ECCF1F00AD6C
S1131FB6F044690061F8EC6E2000ADF0446E0061F7
S1131FC6F8EC762000ECA52000ADF044720061F830
S1131FD6EC862000ADF044740061F8EC8E2000EC31
S1131FE6A520008816318EBDF004D0FFBDF0AEF8F2
S1131FF6BDF4040700BDF206F0BDF0BDF2FAF28BA3
S11320069DF09811ECAA200051EE9811ECAA20003C
S1132016519C9811ECAA2000519E9811ECAA20001C
S1132026518E9811ECAA2000516E9811ECAA20004A
S113203651709811ECAA200051FC9811ECAA2000CA
S113204651CE9811ECAA200051B69811ECAA2000A2
S1132056517C9811ECAA2000517A9811ECAA200020
S1132066512E9811ECAA200051189811ECAA2000C0
S1132076512A9811ECAA2000513A9811ECAA200092
S1132086510A9811ECAA2000511E9811ECAA2000BE
S113209651029811ECAA2000F19811ECAA200051E3
S11320A66C98110088119DF01012D7C9F00EFF88A4
S11320B6049DF2317A9DF25AF2018DF231699DF254
S11320C6ADF0BDF4FAF48B9DF35AF3BF8DF36BF2C6
S11320D69DF2ADF0EAF48DF299C9F201FF8804315C
S11320E68EBDF05AF040F4F1ADF0440000C9F000A2
S11320F60061E8E4F05AF001ADF2BDF4FAF48B9D08
S1132106F15AF1FE8DF16BF09DF0ADF2EAF48DF02B
S113211699C9F201FF8804318EBDF05AF020F4F11A
S1132126ADF0440000C9F0000061E8E4F05AF001A3
S11321368DF061019DF0ADF2BDF4FAF48B9DF15A78
S1132146F1FD8DF16BF09DF0ADF2EAF48DF099C9D5
S1132156F201FF8804318EBDF05AF010F4F1ADF0AF
S1132166440000C9F0000061E8E4F05AF0018DF083
S113217631299DF0ADF2BDF4FAF48B9DF15AF1FBD1
S11321868DF16BF09DF0ADF2EAF48DF099C9F20190
S1132196FF8804318EBDF05AF008F4F1ADF0440026
S11321A600C9F0000061E8E4F05AF0018DF031391D
S11321B69DF0ADF2BDF4FAF48B9DF15AF1F78DF171
S11321C66BF09DF0ADF2EAF48DF099C9F201FF8847
S11321D604318EBDF05AF004F4F1ADF0440000C9A8
S11321E6F0000061E8E4F05AF0018DF031499DF009
S11321F6ADF2BDF4FAF48B9DF15AF1EF8DF16BF06B
S11322069DF0ADF2EAF48DF099C9F201FF8804312C
S11322168EBDF05AF002F4F1ADF0440000C9F000AE
S11322260061E8E4F05AF0018DF031599DF0ADF209
S1132236BDF4FAF48B9DF15AF1DF8DF16BF09DF04C
S1132246ADF2EAF48DF099C9F201FF8804318EBD2E
S1132256F05AF001F4F1ADF0440000C9F000006159
S1132266E8E4F08DF031799DF0ADF2BDF4FAF48B2B
S11322769DF15AF17F8DF16BF09DF0ADF2EAF48D8C
S1132286F099D720028F5CDF9DF0F4F1ADF04401A4
S11322960061F8EC252300ADF044010071FF61F301
S11322A6ECB92200ADF044000061F8ECD32200EC56
S11322B6182400ADF044020061F8EC772300ADF079
S11322C644030061F8ECC92300EC182400C9F005A6
S11322D6FFADF0BDF4FAF48B9DF25AF2EFADF0EADD
S11322E6F48DF2998F07DF9DF09800FC681E008D2F
S11322F6F09DF18F08DF9DF08DF15BF09DF0980065
S1132306FCB12000C9F005FFADF0BDF4FAF48B9DD5
S1132316F26AF220ADF0EAF48DF299EC182400C9C1
S1132326F005FFADF0BDF4FAF48B9DF25AF2DFAD81
S1132336F0EAF48DF2998F06DF9DF09800FC681E92
S1132346008DF09DF18F08DF9DF08DF15BF09DF01F
S11323569800FCB12000C9F005FFADF0BDF4FAF415
S11323668B9DF26AF204ADF0EAF48DF299EC18242E
S113237600C9F005FFADF0BDF4FAF48B9DF25AF2F4
S1132386FBADF0EAF48DF2998F05DF9DF09800FC21
S1132396681E008DF09DF18F08DF9DF08DF15BF0D6
S11323A69DF09800FCB12000C9F005FFADF0BDF426
S11323B6FAF48B9DF26AF208ADF0EAF48DF299EC28
S11323C6182400C9F005FFADF0BDF4FAF48B9DF2B4
S11323D65AF2F7ADF0EAF48DF2998F04DF9DF09886
S11323E600FC681E008DF09DF18F08DF9DF08DF1D5
S11323F65BF09DF09800FCB12000C9F005FFADF03C
S1132406BDF4FAF48B9DF26AF210ADF0EAF48DF2A3
S113241699001002D720028F5CDF9DF0F4F1ADF035
S113242644010061F8ECA22400ADF044010071FF00
S113243661F3EC4B2400ADF044000061F8EC652434
S113244600EC562500ADF044020061F8ECDF2400F0
S1132456ADF044030061F8EC1C2500EC562500C9D8
S1132466F005FFADF0BDF4FAF48B9DF25AF2EFAD30
S1132476F0EAF48DF2998F5EDF9DF09800FCB120AE
S113248600C9F005FFADF0BDF4FAF48B9DF26AF2D3
S113249620ADF0EAF48DF299EC562500C9F005FF5B
S11324A6ADF0BDF4FAF48B9DF25AF2DFADF0EAF426
S11324B68DF2998F5DDF9DF09800FCB12000C9F084
S11324C605FFADF0BDF4FAF48B9DF26AF204ADF0AB
S11324D6EAF48DF299EC562500C9F005FFADF0BD7E
S11324E6F4FAF48B9DF25AF2FBADF0EAF48DF2990C
S11324F68F5BDF9DF09800FCB12000C9F005FFADAD
S1132506F0BDF4FAF48B9DF26AF208ADF0EAF48DAC
S1132516F299EC562500C9F005FFADF0BDF4FAF4C6
S11325268B9DF25AF2F7ADF0EAF48DF2998F09DF3A
S11325369DF09800FCB12000C9F005FFADF0BDF494
S1132546FAF48B9DF26AF210ADF0EAF48DF299007A
S11325561002D7C9F002FFADF0BDF4FAF48B9DF278
S11325665AF2DFADF0EAF48DF299C9F002FFADF04C
S1132576BDF4FAF48B9DF25AF2BFADF0EAF48DF293
S113258699D7C9F002FFADF0BDF4FAF48B9DF26A57
S1132596F220ADF0EAF48DF299D7C9F002FFADF05E
S11325A6BDF4FAF48B9DF26AF240ADF0EAF48DF2D2
S11325B699D7C9F002FFADF0BDF4FAF48B9DF25A37
S11325C6F2F7ADF0EAF48DF299C9F002FFADF0BD71
S11325D6F4FAF48B9DF25AF2EFADF0EAF48DF29927
S11325E6D7C9F002FFADF0BDF4FAF48B9DF26AF29E
S11325F608ADF0EAF48DF299D7C9F002FFADF0BD4B
S1132606F4FAF48B9DF26AF210ADF0EAF48DF299C5
S1132616D7F6BF0CDFAF04E0BDF044000061F8EC70
S1132626C1260030EBA9BF00DF30EBA9BF02DFAF44
S113263606E0BDF044000061F8EC822600AF4CE0F1
S1132646BDF030EBA926F0BDF2AF04E0BDF0DAF040
S1132656ADF261DD717BFACFE80080BEF013BEF601
S1132666F6BEF2BEF4CFE800818FE8003103FAAE7D
S1132676F061CDBDF0BF0CDFECF32600AF48E0BD42
S1132686F030EBA926F0BDF2AF04E0BDF0DAF0AD10
S1132696F261DD717BFACFE80080BEF013BEF6F678
S11326A6BEF2BEF4CFE800818FE8003103FAAEF043
S11326B661CDBDF0BF0CDFECF32600AF06E0BDF044
S11326C644000061F8ECE32600AF4CE0BDF0BF0027
S11326D6DFAF4CE0BDF0BF02DFECF32600AF48E00D
S11326E6BDF0BF00DFAF48E0BDF0BF02DFD7200278
S11326F68F36E09DF04AF00161E8EC3F2700C9F00F
S113270602FFADF0BDF4FAF48B9DF26AF201ADF06E
S1132716EAF48DF29930DC05B800FC1A9100C9F090
S113272602FFADF0BDF4FAF48B9DF25AF2FEADF061
S1132736EAF48DF299EC6427008F36E09DF04AF0B6
S11327460161E3EC642700C9F002FFADF0BDF4FAC1
S1132756F48B9DF26AF201ADF0EAF48DF2998F35AD
S1132766E09DF0D4F061E8EC782700F564DFECAF87
S113277627008F35E09DF04AF00161E8EC932700CD
S1132786E564DFE512DFF556DFECAF270088064C7B
S11327960161E8ECA6270051029F64DFECA927003B
S11327A6E564DFE512DFF556DFC9F002FFADF0BDE3
S11327B6F4FAF48B9DF26AF202ADF0EAF48DF29922
S11327C68F13DF9DF0D4F061E8ECDA2700F56CDFB7
S11327D6EC6A28008F13DF9DF04AF00961F3EC31AF
S11327E62800C9F002FFADF0BDF4FAF48B9DF26A3D
S11327F6F202ADF0EAF48DF299E56CDFF572DF00D2
S11328068F72DF9DF0318EBDF28F13DF9DF0F4F1F0
S1132816ADF001BDF0ADF246F071FF7177F161D80C
S1132826EC062800F56CDFEC6A280088064C01618A
S1132836E8EC6A2800C9F002FFADF0BDF4FAF48BA7
S11328469DF26AF202ADF0EAF48DF299E56CDFF5D9
S113285672DF008F72DF9DF04AF00961E3EC5928BC
S113286600F56CDFC9F002FFADF0BDF4FAF48B9D00
S1132876F26AF202ADF0EAF48DF2991002D720065C
S1132886FC172600880AD161E8ECB72800AF18E0E7
S1132896BDF2AF20DFBDF0ADF226F0B804AF1AE00A
S11328A6BDF2AF22DFBDF0ADF226F0B802ECC528CA
S11328B600AF20DFBDF0B804AF22DFBDF0B802AF31
S11328C61EE0BDF2A804BDF0ADF246F061C8EC8589
S11328D62900AF04E0BDF0BF60DFAF1EE0BDF0A885
S11328E60426F0B804AF22E0BDF2A804BDF0ADF2B0
S11328F646F061C8EC632900AF22E0BDF0A80426C7
S1132906F0B804AF06E0BDF2BDF001BDF006F2BDBD
S1132916F2A804BDF0ADF246F061C8EC452900AF5B
S113292606E0BDF2BDF001BDF006F2BDF2AF60DF18
S1132936BDF0ADF206F0BDF0BF68DFEC4C2900A88F
S113294604BDF0BF68DFAF22E0BDF2AF68DFBDF0C3
S1132956ADF206F0BDF0BF70DFEC6E2900F6BF687D
S1132966DFA804BDF0BF70DFAF1EE0BDF2AF70DFBD
S1132976BDF0ADF206F0BDF0BF6ADFEC9E2900F6AD
S1132986BF60DFBDF0BF68DFBDF0BF70DFBDF0A87C
S11329960406F0BDF0BF6ADFAF20E0BDF2A802BDB9
S11329A6F0ADF246F061C8EC5E2A00AF04E0BDF07B
S11329B6BF6EDFAF20E0BDF0A80226F0B802AF2458
S11329C6E0BDF2A802BDF0ADF246F061C8EC3C2AC7
S11329D600AF24E0BDF0A80226F0B802AF06E0BDC1
S11329E6F2BDF001BDF006F2BDF2A802BDF0ADF2F3
S11329F646F061C8EC1E2A00AF06E0BDF2BDF00148
S1132A06BDF006F2BDF2AF6EDFBDF0ADF206F0BD6D
S1132A16F0BF74DFEC252A00A802BDF0BF74DFAF57
S1132A2624E0BDF2AF74DFBDF0ADF206F0BDF0BF39
S1132A3666DFEC472A00F6BF74DFA802BDF0BF6666
S1132A46DFAF20E0BDF2AF66DFBDF0ADF206F0BD4C
S1132A56F0BF62DFEC772A00F6BF6EDFBDF0BF740D
S1132A66DFBDF0BF66DFBDF0A80206F0BDF0BF62B1
S1132A76DF880AD161E8ECC62A008F19DF9DF04A87
S1132A86F00761E8ECA12A00AF2CE0BDF2AF6ADFE3
S1132A96BDF0ADF206F0BDF0BF6ADF8F1ADF9DF020
S1132AA64AF00761E8EC082B00AF2CE0BDF2AF62F8
S1132AB6DFBDF0ADF206F0BDF0BF62DFEC082B001F
S1132AC68F19DF9DF04AF00661E8ECE72A00AF2C87
S1132AD6E0BDF2AF6ADFBDF0ADF206F0BDF0BF6A4D
S1132AE6DF8F1ADF9DF04AF00661E8EC082B00AF91
S1132AF62CE0BDF2AF62DFBDF0ADF206F0BDF0BF73
S1132B0662DF880A9DF09800FCF426001006D720A0
S1132B1604FC1726008F01E09DF04AF00261E8EC00
S1132B26792C008808D161E8EC462B00AF1CE0BD87
S1132B36F2AF20DFBDF0ADF226F0B802EC4D2B006B
S1132B46AF20DFBDF0B802AF1EE0BDF2A802BDF0B3
S1132B56ADF246F061C8EC0D2C00AF04E0BDF0BF49
S1132B6660DFAF1EE0BDF0A80226F0B802AF22E097
S1132B76BDF2A802BDF0ADF246F061C8ECEB2B0045
S1132B86AF22E0BDF0A80226F0B802AF06E0BDF21F
S1132B96BDF001BDF006F2BDF2A802BDF0ADF246ED
S1132BA6F061C8ECCD2B00AF06E0BDF2BDF001BD6F
S1132BB6F006F2BDF2AF60DFBDF0ADF206F0BDF097
S1132BC6BF68DFECD42B00A802BDF0BF68DFAF22DC
S1132BD6E0BDF2AF68DFBDF0ADF206F0BDF0BF7048
S1132BE6DFECF62B00F6BF68DFA802BDF0BF70DF8E
S1132BF6AF1EE0BDF2AF70DFBDF0ADF206F0BDF082
S1132C06BF6ADFEC262C00F6BF60DFBDF0BF68DFCD
S1132C16BDF0BF70DFBDF0A80206F0BDF0BF6ADFED
S1132C268808D161E8EC542C008F19DF9DF04AF036
S1132C360761E8ECCB2D00AF2CE0BDF2AF6ADFBD37
S1132C46F0ADF206F0BDF0BF6ADFECCB2D008F19B4
S1132C56DF9DF04AF00861E8ECCB2D00AF2CE0BD17
S1132C66F2AF6ADFBDF0ADF206F0BDF0BF6ADFEC8D
S1132C76CB2D008808D161E8ECCA2C00AF1CE0BD5E
S1132C86F2AF20DFBDF0ADF246F061E3ECAA2C0012
S1132C96AF1CE0BDF2AF20DFBDF0ADF226F0B80206
S1132CA6ECAD2C00F6B802F6BF60DFBDF0BF68DFFE
S1132CB6BDF0A80206F0BDF0BF70DFBDF0BF6ADF4D
S1132CC6ECCB2D00AF20DFBDF0B802AF1EE0BDF2A5
S1132CD6A802BDF0ADF246F061C8EC912D00AF0438
S1132CE6E0BDF0BF60DFAF1EE0BDF0A80226F0B87D
S1132CF602AF22E0BDF2A802BDF0ADF246F061C813
S1132D06EC6F2D00AF22E0BDF0A80226F0B802AFAA
S1132D1606E0BDF2BDF001BDF006F2BDF2A802BDAB
S1132D26F0ADF246F061C8EC512D00AF06E0BDF2FD
S1132D36BDF001BDF006F2BDF2AF60DFBDF0ADF24D
S1132D4606F0BDF0BF68DFEC582D00A802BDF0BF49
S1132D5668DFAF22E0BDF2AF68DFBDF0ADF206F08A
S1132D66BDF0BF70DFEC7A2D00F6BF68DFA802BDA8
S1132D76F0BF70DFAF1EE0BDF2AF70DFBDF0ADF2A5
S1132D8606F0BDF0BF6ADFECAA2D00F6BF60DFBD1A
S1132D96F0BF68DFBDF0BF70DFBDF0A80206F0BD6E
S1132DA6F0BF6ADF8F19DF9DF04AF00861E8ECCBCB
S1132DB62D00AF2CE0BDF2AF6ADFBDF0ADF206F038
S1132DC6BDF0BF6ADF88089DF09800FCF426001069
S1132DD604D72008F198073004DFB800302393B8ED
S1132DE602300300B804FC4801003006DFB80030A6
S1132DF62693B802300300B804FC48010051039F2F
S1132E0611DFF557DFE510DFE512DFC9F002FFAD8C
S1132E16F0BDF4FAF48B9DF26AF202ADF0EAF48D99
S1132E26F299E56CDFF572DF51039F64DFF556DF37
S1132E36008F72DF9DF04AF00961E3EC372E00F54E
S1132E466CDFC9F002FFADF0BDF4FAF48B9DF26AB3
S1132E56F202ADF0EAF48DF2998F61E09DF0D4F0C0
S1132E6661E8EC443000AF48E0BDF0BF00DFAF4896
S1132E76E0BDF0BF02DFF52FDFF530DFC9F003FF59
S1132E86ADF0BDF4FAF48B9DF26AF201ADF0EAF40A
S1132E968DF299FCCC04008F01E09DF04AF00261AA
S1132EA6E8ECB82E00FCFF250051049F1ADFECC1A4
S1132EB62E00FCA0250051049F19DFF6BF4CDFF657
S1132EC6BF4EDFF6BF50DFF19807FC4D14008F01AB
S1132ED6E09DF04AF00261E8EC042F0000AF2AE01E
S1132EE6BDF2AF4CDFBDF0ADF246F061F3ECE32E7C
S1132EF600F6BF4EDFFCA0250051049F19DFECDB72
S1132F062F00AF0CE0BDF2AF4EDFBDF0ADF246F0E0
S1132F1661E3EC442F00C9F004FFADF0BDF2FAF210
S1132F268B9DF0312A9DF05AF00161F8EC4B2F008D
S1132F368F60E09DF04AF00161E8EC4B2F00FC59EC
S1132F462500E519DF8F01E09DF04AF00261E8EC07
S1132F56992F00AF0EE0BDF2AF50DFBDF0ADF246E3
S1132F66F061E3EC922F00C9F00CFFADF0BDF4EA7A
S1132F76F4895C019DF0D4F061F8EC992F008F6020
S1132F86E09DF04AF00161E8EC992F00FCB82500B9
S1132F96E51ADF8F01E09DF04AF00261E8ECCA2FE2
S1132FA6008F19DF9DF04AF00161E8ECDB2F008FFA
S1132FB61ADF9DF04AF00161E8ECDB2F00E1980787
S1132FC6ECDB2F008F19DF9DF04AF00161E8ECDBA2
S1132FD62F00E198078807D161F8EC082F00FC99C7
S1132FE61400FCFB0400C9F003FFADF0BDF4FAF4D1
S1132FF68B9DF25AF2FEADF0EAF48DF299C9F00017
S1133006FFADF0BDF4FAF48B9DF26AF240ADF0EA3E
S1133016F48DF299C9F000FFADF0BDF4FAF48B9D7E
S1133026F26AF220ADF0EAF48DF299F6BF20DFF6EB
S1133036BF1CDFF6BF22DFF6BF1EDFF55ADFF5122F
S1133046DFC9F002FFADF0BDF4FAF48B9DF25AF23B
S1133056FDADF0EAF48DF299F510DF51FF9F08DF1C
S1133066F511DF1008D72008F198073004DFB800FF
S1133076302393B802300300B804FC48010030063C
S1133086DFB800302693B802300300B804FC4801C8
S11330960051039F11DFF557DFE510DFC9F002FF8A
S11330A6ADF0BDF4FAF48B9DF26AF202ADF0EAF4E7
S11330B68DF299E512DF51039F64DFF556DFF1982F
S11330C607FC7C32008F01E09DF04AF00261E8ECD7
S11330D6F2300000AF28E0BDF2AF4CDFBDF0ADF238
S11330E646F061F3ECDA3000FCC53200ECCE310078
S11330F6AF0CE0BDF2AF4EDFBDF0ADF246F061E3DA
S1133106EC313100C9F004FFADF0BDF2FAF28B9D4B
S1133116F0311A9DF05AF00161F8EC3A31008F60F3
S1133126E09DF0D4F061F8EC3A3100FC59250051E9
S1133136039F19DF8F01E09DF04AF00261E8EC8CF1
S11331463100AF0EE0BDF2AF50DFBDF0ADF246F098
S113315661E3EC833100C9F004FFADF0BDF4FAF489
S11331668B9DF0313A9DF05AF00161F8EC8C3100F8
S11331768F60E09DF0D4F061F8EC8C3100FCB8254A
S11331860051039F1ADF8F01E09DF04AF00261E8C7
S1133196ECBD31008F19DF9DF04AF00361E8ECCEF7
S11331A631008F1ADF9DF04AF00361E8ECCE31005E
S11331B6E19807ECCE31008F19DF9DF04AF00361E8
S11331C6E8ECCE3100E198078807D161F8ECF630D7
S11331D600F6BF4CDF00AF4CDFBDF044630061E393
S11331E6ECDC3100FC991400FCFB0400C9F003FF7D
S11331F6ADF0BDF4FAF48B9DF25AF2FEADF0EAF4AA
S11332068DF299C9F000FFADF0BDF4FAF48B9DF28E
S11332166AF240ADF0EAF48DF299C9F000FFADF020
S1133226BDF4FAF48B9DF26AF220ADF0EAF48DF265
S113323699AF18E0BDF0BF20DFBDF0BF1CDFAF18AB
S1133246E0BDF0BF22DFBDF0BF1EDFF55ADFF51289
S1133256DFC9F002FFADF0BDF4FAF48B9DF25AF229
S1133266FDADF0EAF48DF299F510DF51FF9F08DF0A
S1133276F511DF1008D78F61E09DF0D4F061E8EC1A
S1133286C43200AF48E0BDF0BF00DFF52FDFC9F060
S113329603FFADF0BDF4FAF48B9DF26AF201ADF0D2
S11332A6EAF48DF299FCCC0400FC88250051029FB7
S11332B619DFF6BF4CDFF6BF4EDFFC4D1400D78F87
S11332C661E09DF0D4F061E8EC603300AF48E0BD06
S11332D6F0BF02DFF530DFC9F003FFADF0BDF2EA5F
S11332E6F2895C019DF04AF00161F8EC103300C9E3
S11332F6F003FFADF0BDF4FAF48B9DF26AF201AD72
S1133306F0EAF48DF299FCCC0400AF28E0BDF2AFEC
S11333164CDFBDF0ADF246F061C8EC2C3300F6BFCD
S11333264CDFFC4D1400F6BF50DF8F01E09DF04AE0
S1133336F00261E8EC60330000AF28E0BDF2AF4C68
S1133346DFBDF0ADF246F061F3EC3F3300F6BF505B
S1133356DFFCE7250051029F1ADFD7AF58DFBDF225
S1133366AF6ADFBDF0ADF246F061E3ECE53300F59C
S11333762FDFFC5925008F14DF9DF0F4F1ADF044E6
S1133386020061F8ECCD3300ADF044020071FF6138
S1133396F3ECAA3300ADF044010061F8ECC4330049
S11333A6ECE13300ADF044030061F8ECD43300AD36
S11333B6F044040061F8ECDD3300ECE13300510322
S11333C69F19DFECE13300E519DFECE13300510529
S11333D69F19DFECE13300E519DF00EC653400AF3B
S11333E658DFBDF2AF70DFBDF0ADF246F061E3EC3D
S11333F60A340051049F2FDFAF4AE0BDF0BF00DF5F
S1133406EC653400AF58DFBDF2AF68DFBDF0ADF256
S113341646F061E3EC2F340051039F2FDFAF48E001
S1133426BDF0BF00DFEC653400AF58DFBDF2AF601E
S1133436DFBDF0ADF246F061E3EC54340051029F77
S11334462FDFAF4CE0BDF0BF00DFEC653400AF58B2
S1133456DFBDF044000061F8EC653400E52FDF8F32
S113346601E09DF04AF00261E8ECE53400AF28E0A3
S1133476BDF2AF4CDFBDF0ADF246F061F3ECAC3417
S1133486008F1ADF9DF04AF00361F8ECAC34008F2C
S113349614DF9DF04AF00161E8ECAC3400FCE7254A
S11334A60051029F1ADFAF2AE0BDF2AF4CDFBDF038
S11334B6ADF246F061F3ECE534008F19DF9DF04A76
S11334C6F00161F8ECE534008F14DF9DF04AF00258
S11334D661E8ECE53400FCA0250051049F19DF8F58
S11334E601E09DF04AF00261E8ECC03500AF4ADF26
S11334F6BDF2AF62DFBDF0ADF246F061E3EC4035FC
S113350600F530DFFCB825008F14DF9DF0F4F1AD33
S1133516F044010061F8EC2F3500ADF0440200617F
S1133526F8EC383500EC3C350051039F1ADFEC3CCF
S11335363500E51ADF00ECC03500AF4ADFBDF2AF57
S113354666DFBDF0ADF246F061E3EC65350051048B
S11335569F30DFAF4AE0BDF0BF02DFECC03500AFFD
S11335664ADFBDF2AF74DFBDF0ADF246F061E3ECC5
S11335768A350051039F30DFAF48E0BDF0BF02DF5C
S1133586ECC03500AF4ADFBDF2AF6EDFBDF0ADF281
S113359646F061E3ECAF350051029F30DFAF4CE0FB
S11335A6BDF0BF02DFECC03500AF4ADFBDF044001A
S11335B60061F8ECC03500E530DFD7200288069DAF
S11335C6F09800FCF42600AF4EE0BDF0BF00DFAF7C
S11335D64EE0BDF0BF02DFF52FDFF530DF8806D100
S11335E661E8EC0C3600FC88250051029F19DF883F
S11335F6084C0261E8EC283600FCE7250051029FDE
S11336061ADFEC283600FCA0250051049F19DF8838
S1133616084C0261E8EC283600FCFF250051049FA3
S11336261ADFF6BF4CDFC9F003FFADF0BDF4FAF4C0
S11336368B9DF26AF201ADF0EAF48DF299FCCC04AA
S113364600FC4D140000AF3EE0BDF2AF4CDFBDF010
S1133656ADF246F061F3EC4C3600FC991400FCFB29
S11336660400C9F003FFADF0BDF4FAF48B9DF25AE1
S1133676F2FEADF0EAF48DF299C9F000FFADF0BDAB
S1133686F4FAF48B9DF26AF240ADF0EAF48DF29905
S1133696C9F000FFADF0BDF4FAF48B9DF26AF22096
S11336A6ADF0EAF48DF299FC592500FCB8250088A2
S11336B606D161E8EC603700AF3EE0BDF2BDF00133
S11336C6BDF006F2BDF2AF1CDFBDF0ADF206F0BDF3
S11336D6F0BF20DF51069F19DFAF18E0BDF2AF201F
S11336E6DFBDF0ADF246F061C8EC00370051039F30
S11336F619DFAF18E0BDF0BF20DFAF20DFBDF0BF9C
S11337061CDF88084C0261E8EC0C3800AF3EE0BDD3
S1133716F2BDF001BDF006F2BDF2AF1EDFBDF0ADA5
S1133726F206F0BDF0BF22DF51069F19DFAF1AE0A3
S1133736BDF2AF22DFBDF0ADF246F061C8EC5437FE
S11337460051039F19DFAF1AE0BDF0BF22DFAF229D
S1133756DFBDF0BF1EDFEC0C380051079F19DFAF49
S11337663EE0BDF2BDF001BDF006F2BDF2AF1CDFD6
S1133776BDF0ADF246F061C8ECA23700AF1CDFBD68
S1133786F4AF3EE0BDF2BDF001BDF006F2BDF0AD12
S1133796F426F0BDF0BF20DFECA93700E519DFF60B
S11337A6BF20DFAF20DFBDF0BF1CDF88084C0261FD
S11337B6E8EC0C380051079F1ADFAF3EE0BDF2BDBE
S11337C6F001BDF006F2BDF2AF1EDFBDF0ADF2466C
S11337D6F061C8ECFD3700AF1EDFBDF4AF3EE0BDBF
S11337E6F2BDF001BDF006F2BDF0ADF426F0BDF079
S11337F6BF22DFEC043800E51ADFF6BF22DFAF2272
S1133806DFBDF0BF1EDFF512DFC9F002FFADF0BD6C
S1133816F4FAF48B9DF25AF2FDADF0EAF48DF299C6
S1133826FC8740001002D72002F19800FC8428008F
S1133836C9F003FFADF0BDF4FAF48B9DF26AF20110
S1133846ADF0EAF48DF299FCCC04008F19DF9DF0FB
S11338564AF00361F8EC683800FC88250051029FA1
S113386619DFF6BF4CDFF6BF4EDFF6BF50DFF6BFFB
S113387658DFF6BF4ADFE514DFFC4D14001002D70B
S11338862002E19800FC842800C9F003FFADF0BDD6
S1133896F4FAF48B9DF26AF201ADF0EAF48DF29932
S11338A6FCCC04008F01E09DF04AF00261E8ECD301
S11338B638008F1ADF9DF04AF00161F8ECEA38000F
S11338C6FCFF250051049F1ADFECEA38008F19DF4C
S11338D69DF04AF00161F8ECEA3800FCA02500519D
S11338E6049F19DFF6BF4CDFF6BF4EDFF6BF50DF8D
S11338F6F6BF58DFF6BF4ADF51029F14DFFC4D14B2
S1133906001002D7FC991400FCFB0400C9F003FF65
S1133916ADF0BDF4FAF48B9DF25AF2FEADF0EAF482
S11339268DF299C9F000FFADF0BDF4FAF48B9DF267
S11339366AF240ADF0EAF48DF299C9F000FFADF0F9
S1133946BDF4FAF48B9DF26AF220ADF0EAF48DF23E
S113395699FC592500FCB82500E517DFF518DF00AA
S11339668F17DF9DF04AF00161F8EC663900880490
S1133976D161E8ECEF39008F19DF9DF04AF003615D
S1133986F8ECA73900AF1CDFBDF2AF58DFBDF0ADD0
S1133996F206F0BDF0BF20DFBDF0BF1CDFECB4398A
S11339A600AF18E0BDF0BF20DFBDF0BF1CDF8F1AEB
S11339B6DF9DF04AF00361F8ECDE3900AF1EDFBD8F
S11339C6F2AF4ADFBDF0ADF206F0BDF0BF22DFBDB7
S11339D6F0BF1EDFEC553A00AF1AE0BDF0BF22DFA0
S11339E6BDF0BF1EDFEC553A008F19DF9DF04AF09B
S11339F60161F8EC193A00AF1CDFBDF2AF58DFBD28
S1133A06F0ADF226F0BDF0BF20DFBDF0BF1CDFEC49
S1133A16223A00F6BF20DFBDF0BF1CDF8F1ADF9D00
S1133A26F04AF00161F8EC4C3A00AF1EDFBDF2AF8C
S1133A364ADFBDF0ADF226F0BDF0BF22DFBDF0BF18
S1133A461EDFEC553A00F6BF22DFBDF0BF1EDFF5E0
S1133A5614DFF512DFC9F002FFADF0BDF4FAF48B02
S1133A669DF25AF2FDADF0EAF48DF299FC8740001E
S1133A76D7FC592500F6BF52DFE516DF008F16DFA7
S1133A869DF04AF00161F8EC833A0051069F2FDF5E
S1133A96AF5EE0BDF0BF00DF8804D161E8ECAF3A69
S1133AA600FCA02500ECB33A00FC882500F6BF54C0
S1133AB6DFE515DF008F15DF9DF04AF00161F8ECB4
S1133AC6BB3A00D7FCB82500FC592500F6BF52DFE7
S1133AD6E516DF008F16DF9DF04AF00161F8ECDA97
S1133AE63A0051069F2FDF51069F30DFAF5EE0BDDF
S1133AF6F0BF00DFAF5EE0BDF0BF02DF8804D16136
S1133B06E8EC173B00FCA02500FCFF2500EC1F3B5E
S1133B1600FC882500FCE72500F6BF54DFE515DF29
S1133B26008F15DF9DF04AF00161F8EC273B00D7C2
S1133B36FCB82500F6BF52DFE516DF008F16DF9DC1
S1133B46F04AF00161F8EC423B0051069F30DFAFCA
S1133B565EE0BDF0BF02DF8804D161E8EC6E3B0095
S1133B66FCFF2500EC723B00FCE72500F6BF54DFA2
S1133B76E515DF008F15DF9DF04AF00161F8EC7A58
S1133B863B00D72002F19800FC152B00C9F003FF77
S1133B96ADF0BDF4FAF48B9DF26AF201ADF0EAF4ED
S1133BA68DF299FCCC0400FC88250051029F19DF94
S1133BB6F6BF4CDFF6BF4EDFF6BF58DF51039F1446
S1133BC6DFFC4D14001002D72002E19800FC152BEF
S1133BD600C9F003FFADF0BDF4FAF48B9DF26AF26E
S1133BE601ADF0EAF48DF299FCCC0400FCA02500AA
S1133BF651049F19DFF6BF4CDFF6BF4EDFF6BF5800
S1133C06DF51049F14DFFC4D14001002D7FC9914F5
S1133C1600FCFB0400C9F003FFADF0BDF4FAF48B1D
S1133C269DF25AF2FEADF0EAF48DF299C9F000FF66
S1133C36ADF0BDF4FAF48B9DF26AF240ADF0EAF40D
S1133C468DF299C9F000FFADF0BDF4FAF48B9DF244
S1133C566AF220ADF0EAF48DF299FC592500E517D5
S1133C66DFF518DF008F17DF9DF04AF00161F8ECED
S1133C766B3C008804D161E8ECBD3C008F19DF9DE4
S1133C86F04AF00561F8ECAC3C00AF1CDFBDF2AFC6
S1133C9658DFBDF0ADF206F0BDF0BF20DFBDF0BFCA
S1133CA61CDFECF03C00AF1CE0BDF0BF20DFBDF034
S1133CB6BF1CDFECF03C008F19DF9DF04AF0016178
S1133CC6F8ECE73C00AF1CDFBDF2AF58DFBDF0AD4A
S1133CD6F226F0BDF0BF20DFBDF0BF1CDFECF03CE8
S1133CE600F6BF20DFBDF0BF1CDFF514DFF512DFE1
S1133CF6C9F002FFADF0BDF4FAF48B9DF25AF2FD61
S1133D06ADF0EAF48DF299FC874000D7C9F007FFBD
S1133D16ADF0BDF2FAF28B9DF0314A9DF05AF001F6
S1133D2661F8EC3D3D008F5BDF9DF06AF0018DF09C
S1133D369F5BDFEC4A3D008F5BDF9DF05AF0FE8D02
S1133D46F09F5BDFC9F007FFADF0BDF2FAF28B9D81
S1133D56F0311A9DF05AF00161F8EC753D008F5D63
S1133D66DF9DF06AF0808DF09F5DDFEC823D008F71
S1133D765DDF9DF05AF07F8DF09F5DDFC9F007FF90
S1133D86ADF0BDF2FAF28B9DF0313A9DF05AF00196
S1133D9661F8ECAD3D008F5DDF9DF06AF0028DF0B9
S1133DA69F5DDFECBA3D008F5DDF9DF05AF0FD8D1F
S1133DB6F09F5DDFC9F004FFADF0BDF2FAF28B9D12
S1133DC6F0311A9DF05AF00161F8ECE53D008F5D83
S1133DD6DF9DF06AF0088DF09F5DDFECF23D008F09
S1133DE65DDF9DF05AF0F78DF09F5DDFC9F004FFAB
S1133DF6ADF0BDF2FAF28B9DF0312A9DF05AF00136
S1133E0661F8EC1D3E008F5DDF9DF06AF0208DF0B9
S1133E169F5DDFEC2A3E008F5DDF9DF05AF0DF8D5B
S1133E26F09F5DDFC9F005FFADF0BDF2EAF2895CF3
S1133E36019DF0D4F061F8EC523E008F5DDF9DF0F9
S1133E466AF0018DF09F5DDFEC5F3E008F5DDF9DC4
S1133E56F05AF0FE8DF09F5DDFC9F007FFADF0BDAF
S1133E66F2EAF2895C019DF0D4F061F8EC873E0039
S1133E768F5EDF9DF06AF0808DF09F5EDFEC943EEE
S1133E86008F5EDF9DF05AF07F8DF09F5EDFC9F0F4
S1133E9607FFADF0BDF2FAF28B9DF0312A9DF05A80
S1133EA6F00161F8ECBF3E008F5EDF9DF06AF00220
S1133EB68DF09F5EDFECCC3E008F5EDF9DF05AF006
S1133EC6FD8DF09F5EDFC9F004FFADF0BDF2FAF29E
S1133ED68B9DF0313A9DF05AF00161F8ECF73E0003
S1133EE68F5EDF9DF06AF0088DF09F5EDFEC043F85
S1133EF6008F5EDF9DF05AF0F78DF09F5EDFC9F00C
S1133F060CFFADF0BDF2EAF2895C019DF0D4F061DC
S1133F16F8EC2C3F008F5EDF9DF06AF0208DF09F59
S1133F265EDFEC393F008F5EDF9DF05AF0DF8DF0E7
S1133F369F5EDFC9F005FFADF0BDF2FAF28B9DF08E
S1133F46311A9DF05AF00161F8EC643F008F5EDF90
S1133F569DF06AF0018DF09F5EDFEC713F008F5E8D
S1133F66DF9DF05AF0FE8DF09F5EDFC9F006FFADCF
S1133F76F0BDF2FAF28B9DF0313A9DF05AF00161F0
S1133F86E8EC9C3F008F09DF9DF06AF0808DF09F7E
S1133F9609DFECA93F008F09DF9DF05AF07F8DF011
S1133FA69F09DFC9F006FFADF0BDF2FAF28B9DF072
S1133FB6312A9DF05AF00161E8ECD43F008F09DF05
S1133FC69DF06AF0108DF09F09DFECE13F008F0948
S1133FD6DF9DF05AF0EF8DF09F09DFC9F006FFADC3
S1133FE6F0BDF2EAF2895C019DF0D4F061E8EC09D7
S1133FF640008F09DF9DF06AF0028DF09F09DFEC27
S11340061640008F09DF9DF05AF0FD8DF09F09DF01
S1134016C9F006FFADF0BDF2FAF28B9DF0311A9DA0
S1134026F05AF00161E8EC4140008F5BDF9DF06AD5
S1134036F0808DF09F5BDFEC4E40008F5BDF9DF0E0
S11340465AF07F8DF09F5BDFC9F003FFADF0BDF240
S1134056FAF28B9DF0311A9DF05AF00161E8EC7981
S113406640008F5BDF9DF06AF0108DF09F5BDFEC04
S11340768640008F5BDF9DF05AF0EF8DF09F5BDF8B
S1134086D7F524DF8F36E09DF04AF00261E3EC06B3
S11340964100E524DF8F36E09DF04AF05B61F3ECE6
S11340A6BC40008F36E09DF0F4F1ADF001BDF0BFE9
S11340B67ADFECE740008F36E09DF04AF05B61E37F
S11340C6ECE740008F36E09DF0F4F1ADF004A6FF76
S11340D6BDF0313DBDF0314DBDF226F0BDF0BF7AE5
S11340E6DFC9F002FFADF0BDF4FAF48B9DF26AF27B
S11340F601ADF0EAF48DF299F6BF7CDFEC1D4100C8
S1134106C9F002FFADF0BDF4FAF48B9DF25AF2FE4B
S1134116ADF0EAF48DF299D720028F14DF9DF0F406
S1134126F1ADF044020061F8EC904100ADF04402B8
S11341360071FF61F3EC594100ADF044000061F8F1
S1134146EC734100ADF044010061F8EC7B4100ECF6
S1134156C24100ADF044030061F8ECA54100ADF0A6
S113416644040061F8ECB54100ECC24100FCD88D72
S113417600ECC2410051069F19DF51069F1ADFF673
S1134186B800FC0A3900ECC2410051079F19DF51FF
S1134196079F1ADFE6B800FC0A3900ECC241005159
S11341A6069F19DFF6B800FC133C00ECC24100512F
S11341B6079F19DFE6B800FC133C00001002D72065
S11341C6028F14DF9DF0F4F1ADF044030061F8ECC6
S11341D6654300ADF044040061F8EC864300ADF09D
S11341E644000061F8ECF34100ECBB43008F1ADF96
S11341F69DF04AF00161F8EC0F42008F01E09DF05A
S11342064AF00161E8EC6143008F19DF9DF04AF042
S11342160161E8EC784200C9F007FFADF0BDF2FA9F
S1134226F28B9DF0311A9DF05AF00161F8EC44428C
S1134236008F52E09DF0D4F061F8EC614300C9F0C0
S113424607FFADF0BDF2EAF2895C019DF0D4F0619E
S1134256F8EC6842008F55E09DF0D4F061F8EC610B
S113426643008F34E09DF09F13DFFC893B00ECBBD9
S113427643008F19DF9DF04AF00761E8ECAA42007B
S1134286AF1CE0BDF2AF20DFBDF0ADF246F061D861
S1134296EC6143008F34E09DF09F13DFFC893B0003
S11342A6ECBB43008F19DF9DF04AF00861E8ECF59A
S11342B642008F38E09DF04AF00161E8ECE54200E7
S11342C68F76DF9DF09F2CDFF6BF2ADFF528DF8F80
S11342D634E09DF09F13DFFC893B00EC6143008FC3
S11342E634E09DF09F13DFFCCE3B00ECBB43008F14
S11342F638E09DF0D4F061E8EC4343008F19DF9D6C
S1134306F04AF00561E8EC1F43008F76DF9DF09FCD
S11343162CDFF6BF2ADFF528DFAF1CE0BDF2AF20A5
S1134326DFBDF0ADF246F061D8EC6143008F34E0B6
S11343369DF09F13DFFCCE3B00ECBB43008F19DFDF
S11343469DF04AF00561E8EC6143008F76DF9DF04D
S11343569F2CDFF6BF2ADFECBB4300ECBB43008F88
S113436638E09DF0D4F061E8EC82430051089F19CF
S1134376DFF6B800FC133C00ECBB4300ECBB430087
S113438651079F19DF8F76DF9DF09F2CDFF6BF2A3A
S1134396DFF528DFE6B800FC133C008F38E09DF01B
S11343A64AF00161E8ECBA4300F513DFFC893B00EF
S11343B6ECBA4300001002D720028F14DF9DF0F4FC
S11343C6F1ADF044020061F8ECEF4400ADF04402B4
S11343D60071FF61F3ECF94300ADF044000061F8AD
S11343E6EC134400ADF044010061F8ECDA4400EC4F
S11343F6214500ADF044030061F8EC044500ADF03E
S113440644040061F8EC144500EC2145008F19DFE3
S11344169DF04AF00161E8EC7C4400C9F007FFAD69
S1134426F0BDF2FAF28B9DF0311A9DF05AF001615B
S1134436F8EC4844008F52E09DF0D4F061F8ECD6D5
S11344464400C9F007FFADF0BDF2EAF2895C019DB4
S1134456F0D4F061F8EC6C44008F55E09DF0D4F094
S113446661F8ECD644008F34E09DF09F13DFFC2DF9
S11344763800EC2145008F19DF9DF04AF00761E80A
S1134486EC9A44008F34E09DF09F13DFFC2D380036
S1134496ECD644008F19DF9DF04AF00561F8ECB6BE
S11344A644008F19DF9DF04AF00861E8ECC6440029
S11344B68F34E09DF09F13DFFCCE3B00ECD6440026
S11344C68F34E09DF09F13DFFC863800EC21450015
S11344D6EC21450051069F19DF51069F1ADFF6B8F5
S11344E600FC0A3900EC21450051079F19DF5107EA
S11344F69F1ADFE6B800FC0A3900EC214500510892
S11345069F19DFF6B800FC133C00EC214500510767
S11345169F19DFE6B800FC133C00001002D7200206
S11345268F14DF9DF0F4F1ADF044020061F8EC74F1
S11345364600ADF044020071FF61F3EC5F4500AD47
S1134546F044000061F8EC794500ADF044010061E7
S1134556F8EC0A4700EC0B4700ADF044030061F8A1
S1134566ECCD4600ADF044040061F8ECE44600EC02
S11345760B47008F19DF9DF04AF00361E8EC95457F
S1134586008F01E09DF04AF00161F8ECBF45008F11
S113459619DF9DF04AF00361E8ECD245008F1ADF7B
S11345A69DF04AF00361E8ECD245008F01E09DF0EE
S11345B64AF00261E8ECD245008F76DF9DF09F2C2D
S11345C6DFF6BF2ADFE528DFEC7046008F19DF9D92
S11345D6F04AF00561E8ECF74500F6BF2ADFF52856
S11345E6DF8F34E09DF09F13DFFC2D3800EC70461E
S11345F6008F19DF9DF04AF00161E8EC604600C9BE
S1134606F007FFADF0BDF2FAF28B9DF0311A9DF082
S11346165AF00161F8EC2C46008F52E09DF0D4F07C
S113462661F8EC704600C9F007FFADF0BDF2EAF29E
S1134636895C019DF0D4F061F8EC5046008F55E09A
S11346469DF0D4F061F8EC7046008F34E09DF09F45
S113465613DFFC2D3800EC0B47008F34E09DF09FF0
S113466613DFFC2D3800EC0B4700EC0B4700510719
S11346769F19DF51079F1ADF8F5AE09DF04AF00118
S113468661E8ECAC46008F01E09DF04AF00261E877
S1134696ECA54600E6B800FCCA3A00ECAC4600E6D7
S11346A6B800FC773A00E6B800FC0A3900F6BF2ADF
S11346B6DFF528DF8F76DF9DF09F2CDFF513DFFC17
S11346C62D3800EC0B470051089F19DFF6B800FCA3
S11346D6133C00F513DFFC2D3800EC0B47005107A3
S11346E69F19DFE6B800FC133C00F6BF2ADFF52865
S11346F6DF8F76DF9DF09F2CDFF513DFFC2D38006E
S1134706EC0B4700001002D720028F14DF9DF0F453
S1134716F1ADF044020061F8EC624800ADF04402E9
S11347260071FF61F3EC494700ADF044000061F805
S1134736EC634700ADF044010061F8ECF84800EC86
S1134746F94800ADF044030061F8ECBB4800ADF055
S113475644040061F8ECD24800ECF948008F19DFF4
S11347669DF04AF00361E8EC7F47008F01E09DF07D
S11347764AF00161F8ECA947008F19DF9DF04AF071
S11347860361E8ECC047008F1ADF9DF04AF003612D
S1134796E8ECC047008F01E09DF04AF00261E8ECC6
S11347A6C04700F6BF2ADFF528DF8F34E09DF09F6F
S11347B613DFFC863800EC5E48008F19DF9DF04A53
S11347C6F00561E8ECE54700F6BF2ADFF528DF8F40
S11347D634E09DF09F13DFFC2D3800EC5E48008F1B
S11347E619DF9DF04AF00161E8EC4E4800C9F00774
S11347F6FFADF0BDF2FAF28B9DF0311A9DF05AF03E
S11348060161F8EC1A48008F52E09DF0D4F061F88B
S1134816EC5E4800C9F007FFADF0BDF2EAF2895C30
S1134826019DF0D4F061F8EC3E48008F55E09DF010
S1134836D4F061F8EC5E48008F34E09DF09F13DFFE
S1134846FC2D3800ECF948008F34E09DF09F13DF0F
S1134856FC2D3800ECF94800ECF9480051079F1983
S1134866DF51079F1ADF8F5AE09DF04AF00161E895
S1134876EC9A48008F01E09DF04AF00261E8EC935F
S11348864800E6B800FCCA3A00EC9A4800E6B800CC
S1134896FC773A00E6B800FC0A3900F6BF2ADFF5D1
S11348A628DF8F76DF9DF09F2CDFF513DFFC2D3894
S11348B600ECF9480051089F19DFF6B800FC133CD8
S11348C600F513DFFC2D3800ECF9480051079F1959
S11348D6DFE6B800FC133C00F6BF2ADFF528DF8FBD
S11348E676DF9DF09F2CDFF513DFFC2D3800ECF905
S11348F64800001002D720028F14DF9DF0F4F1ADBA
S1134906F044020061F8EC624A00ADF04402007122
S1134916FF61F3EC374900ADF044000061F8EC5157
S11349264900ADF044010061F8EC184A00EC014B73
S113493600ADF044030061F8ECAC4A00ADF0440469
S11349460061F8ECD84A00EC014B008F19DF9DF0AA
S11349564AF00161E8ECBA4900C9F007FFADF0BDC1
S1134966F2FAF28B9DF0311A9DF05AF00161F8ECDF
S11349768649008F52E09DF0D4F061F8EC144A00A9
S1134986C9F007FFADF0BDF2EAF2895C019DF0D4EF
S1134996F061F8ECAA49008F55E09DF0D4F061F877
S11349A6EC144A008F34E09DF09F13DFFC2D380091
S11349B6EC014B008F19DF9DF04AF00761E8ECD853
S11349C649008F34E09DF09F13DFFC2D3800EC1472
S11349D64A008F19DF9DF04AF00561F8ECF44900AE
S11349E68F19DF9DF04AF00861E8EC044A008F3421
S11349F6E09DF09F13DFFCCE3B00EC144A008F349D
S1134A06E09DF09F13DFFC863800EC014B00EC01BF
S1134A164B0051069F19DF51069F1ADF8F5AE09DFE
S1134A26F04AF00161E8EC504A008F01E09DF04A3B
S1134A36F00261E8EC494A00F6B800FCCA3A00EC18
S1134A46504A00F6B800FC773A00F6B800FC0A397A
S1134A5600F513DFFC863800EC014B0051079F1963
S1134A66DF51079F1ADF8F5AE09DF04AF00161E893
S1134A76EC9A4A008F01E09DF04AF00261E8EC935B
S1134A864A00E6B800FCCA3A00EC9A4A00E6B800C6
S1134A96FC773A00E6B800FC0A3900F513DFFC2D72
S1134AA63800EC014B0051089F19DF8F5AE09DF046
S1134AB64AF00161E8ECC64A00F6B800FC773A0011
S1134AC6F6B800FC133C00F513DFFCCE3B00EC010A
S1134AD64B0051079F19DF8F5AE09DF04AF00161A0
S1134AE6E8ECF24A00E6B800FC773A00E6B800FCC7
S1134AF6133C00F513DFFC2D3800001002D720020A
S1134B068F14DF9DF0F4F1ADF044020061F8EC6A15
S1134B164C00ADF044020071FF61F3EC3F4B00AD75
S1134B26F044000061F8EC594B00ADF0440100611B
S1134B36F8EC204C00ECB84C00ADF044030061F8EE
S1134B46EC7F4C00ADF044040061F8ECAB4C00EC97
S1134B56B84C008F19DF9DF04AF00161E8ECC24BB6
S1134B6600C9F007FFADF0BDF2FAF28B9DF0311AE1
S1134B769DF05AF00161F8EC8E4B008F52E09DF0E7
S1134B86D4F061F8EC1C4C00C9F007FFADF0BDF29F
S1134B96EAF2895C019DF0D4F061F8ECB24B008F27
S1134BA655E09DF0D4F061F8EC1C4C008F34E09D88
S1134BB6F09F13DFFC2D3800ECB84C008F19DF9DF5
S1134BC6F04AF00761E8ECE04B008F34E09DF09F7B
S1134BD613DFFC2D3800EC1C4C008F19DF9DF04AC6
S1134BE6F00561F8ECFC4B008F19DF9DF04AF008E4
S1134BF661E8EC0C4C008F34E09DF09F13DFFCCE93
S1134C063B00EC1C4C008F34E09DF09F13DFFC86C8
S1134C163800ECB84C00ECB84C0051069F19DF5133
S1134C26069F1ADF8F5AE09DF04AF00161E8EC58BE
S1134C364C008F01E09DF04AF00261E8EC514C0013
S1134C46F6B800FCCA3A00EC584C00F6B800FC77FB
S1134C563A00F6B800FC0A3900F513DFFC86380082
S1134C66ECB84C0051079F19DF51079F1ADFE6B8CD
S1134C7600FC0A3900ECB84C0051089F19DF8F5A22
S1134C86E09DF04AF00161E8EC994C00F6B800FCAE
S1134C96773A00F6B800FC133C00F513DFFCCE3B74
S1134CA600ECB84C0051079F19DFE6B800FC133C32
S1134CB600001002D78F33E09DF0F4F1ADF044020A
S1134CC60061F8EC1E4D00ADF044020071FF61F383
S1134CD6ECF44C00ADF044000061F8EC0E4D00AD70
S1134CE6F044010061F8EC164D00EC364D00ADF0D1
S1134CF644030061F8EC264D00ADF044040061F86D
S1134D06EC2E4D00EC364D00FCBE4300EC3B4D0052
S1134D16FC244500EC3B4D00FC0E4700EC3B4D00EB
S1134D26FCFC4800EC3B4D00FC044B00EC3B4D0006
S1134D36FCBE430000D720028F3AE09DF0D4F06118
S1134D46E8EC074F0000C9F006FFADF0BDF2FAF239
S1134D568B9DF0313A9DF05AF00161F8EC4C4D0010
S1134D668F14DF9DF0F4F1ADF044020061F8EC44D9
S1134D764E00ADF044020071FF61F3EC9F4D00ADAF
S1134D86F044000061F8ECB94D00ADF04401006157
S1134D96F8EC024F00EC034F00ADF044030061F859
S1134DA6EC8E4E00ADF044040061F8ECC84E00EC05
S1134DB6034F008F19DF9DF04AF00161E8EC224EA3
S1134DC600C9F007FFADF0BDF2FAF28B9DF0311A7F
S1134DD69DF05AF00161F8ECEE4D008F52E09DF023
S1134DE6D4F061F8EC404E00C9F007FFADF0BDF217
S1134DF6EAF2895C019DF0D4F061F8EC124E008F62
S1134E0655E09DF0D4F061F8EC404E008F34E09DFF
S1134E16F09F13DFFC2D3800EC034F008F19DF9D44
S1134E26F04AF00361F8EC404E008F34E09DF09FA9
S1134E3613DFFC2D3800EC034F00EC034F00510741
S1134E469F19DF51079F1ADF8F5AE09DF04AF00140
S1134E5661E8EC7C4E008F01E09DF04AF00261E8C7
S1134E66EC754E00E6B800FCCA3A00EC7C4E00E64F
S1134E76B800FC773A00E6B800FC0A3900F513DFFF
S1134E86FC2D3800EC034F0051089F19DF8F5AE0C0
S1134E969DF04AF00161E8ECB64E008F01E09DF00A
S1134EA64AF00261E8ECB64E00F6B800FC773A0028
S1134EB6F6B800FC133C00F513DFFC2D3800EC03B8
S1134EC64F0051079F19DF8F5AE09DF04AF00161A8
S1134ED6E8ECF04E008F01E09DF04AF00261E8EC48
S1134EE6F04E00E6B800FC773A00E6B800FC133C46
S1134EF600F513DFFC2D3800EC034F0000ECB55031
S1134F06008F77DF9DF04AF00161E8ECB55000F5BB
S1134F1677DF8F14DF9DF0F4F1ADF044020061F801
S1134F26ECF64F00ADF044020071FF61F3EC514F13
S1134F3600ADF044000061F8EC6B4F00ADF04401A5
S1134F460061F8ECB45000ECB55000ADF044030039
S1134F5661F8EC405000ADF044040061F8EC7A507E
S1134F6600ECB550008F19DF9DF04AF00161E8ECC2
S1134F76D44F00C9F007FFADF0BDF2FAF28B9DF0F5
S1134F86311A9DF05AF00161F8ECA04F008F52E0FF
S1134F969DF0D4F061F8ECF24F00C9F007FFADF0D4
S1134FA6BDF2EAF2895C019DF0D4F061F8ECC44FDD
S1134FB6008F55E09DF0D4F061F8ECF24F008F3489
S1134FC6E09DF09F13DFFC2D3800ECB550008F19DF
S1134FD6DF9DF04AF00361F8ECF24F008F34E09D58
S1134FE6F09F13DFFC2D3800ECB55000ECB55000F3
S1134FF651079F19DF51079F1ADF8F5AE09DF04A28
S1135006F00161E8EC2E50008F01E09DF04AF002B9
S113501661E8EC275000E6B800FCCA3A00EC2E50D2
S113502600E6B800FC773A00E6B800FC0A3900F559
S113503613DFFC2D3800ECB5500051089F19DF8FA3
S11350465AE09DF04AF00161E8EC6850008F01E0F7
S11350569DF04AF00261E8EC685000F6B800FC776F
S11350663A00F6B800FC133C00F513DFFC2D3800BB
S1135076ECB5500051079F19DF8F5AE09DF04AF0B6
S11350860161E8ECA250008F01E09DF04AF0026154
S1135096E8ECA25000E6B800FC773A00E6B800FC5B
S11350A6133C00F513DFFC2D3800ECB5500000105E
S11350B602D720028F3AE09DF0D4F061E8EC2B523F
S11350C60000C9F006FFADF0BDF2FAF28B9DF03197
S11350D62A9DF05AF00161F8ECC850008F14DF9D48
S11350E6F0F4F1ADF044010061F8ECB45100ADF018
S11350F644030061F8ECFE5100ADF044000061F891
S1135106EC0E5100EC2752008F19DF9DF04AF00394
S113511661E8EC2A51008F01E09DF04AF00161F844
S1135126EC6251008F19DF9DF04AF00361E8EC54FC
S113513651008F1ADF9DF04AF00361E8EC545100E8
S11351468F01E09DF04AF00261F8EC6251008F197C
S1135156DF9DF04AF00561E8EC7151008F76DF9D22
S1135166F09F2CDFF6BF2ADFF528DF8F34E09DF0B1
S11351769F13DF8F19DF9DF04AF00561F8ECA35108
S1135186008F19DF9DF04AF00861F8ECA351008FF7
S11351961ADF9DF04AF00161E8ECAC5100FCCE3B0D
S11351A60000EC275200FC863800EC27520051061A
S11351B69F19DF51069F1ADF8F5AE09DF04AF001CE
S11351C661E8ECEC51008F01E09DF04AF00261E8E1
S11351D6ECE55100F6B800FCCA3A00ECEC5100F6D6
S11351E6B800FC773A00F6B800FC0A3900F513DF7C
S11351F6FC863800EC27520051089F19DF8F5AE0CD
S11352069DF04AF00161E8EC185200F6B800FC770C
S11352163A00F6B800FC133C00F513DFFCCE3B0065
S113522600EC8153008F78DF9DF04AF00161E8ECD1
S1135236815300F578DF8F14DF9DF0F4F1ADF0446F
S1135246010061F8EC0E5300ADF044030061F8EC84
S1135256585300ADF044000061F8EC685200EC814C
S113526653008F19DF9DF04AF00361E8EC84520085
S11352768F01E09DF04AF00161F8ECBC52008F19F1
S1135286DF9DF04AF00361E8ECAE52008F1ADF9D11
S1135296F04AF00361E8ECAE52008F01E09DF04A5B
S11352A6F00261F8ECBC52008F19DF9DF04AF0055C
S11352B661E8ECCB52008F76DF9DF09F2CDFF6BFC2
S11352C62ADFF528DF8F34E09DF09F13DF8F19DF87
S11352D69DF04AF00561F8ECFD52008F19DF9DF050
S11352E64AF00861F8ECFD52008F1ADF9DF04AF08F
S11352F60161E8EC065300FCCE3B0000EC81530050
S1135306FC863800EC81530051069F19DF51069F35
S11353161ADF8F5AE09DF04AF00161E8EC4653002B
S11353268F01E09DF04AF00261E8EC3F5300F6B8C5
S113533600FCCA3A00EC465300F6B800FC773A0083
S1135346F6B800FC0A3900F513DFFC863800EC8158
S1135356530051089F19DF8F5AE09DF04AF001610E
S1135366E8EC725300F6B800FC773A00F6B800FC95
S1135376133C00F513DFFCCE3B00001002D7F527E3
S1135386DFF528DFF6BF2ADFC9F003FFADF0BDF273
S1135396FAF28B9DF0311A9DF05AF00161F8EC1087
S11353A654008F2CDF9DF0D4F061F8ECCF53008FBE
S11353B62CDF9DF04AF06361F8ECCF53008F2CDFAD
S11353C69DF0B4F08DF09F2CDF8F19DF9DF04AF02D
S11353D60561E8ECE953008F34E09DF09F13DFFC90
S11353E6CE3B008F19DF9DF04AF00161F8EC1054B2
S11353F6008F14DF9DF0D4F061E8EC1054008F3474
S1135406E09DF09F13DFFC863800D720028F14DF5F
S11354169DF0F4F1ADF044020061F8ECF15400ADF6
S1135426F044020071FF61F3EC4C5400ADF044000B
S11354360061F8EC665400ADF044010061F8EC69D3
S11354465500EC6A5500ADF044030061F8EC3B5599
S113545600ADF044040061F8EC525500EC6A5500C6
S11354668F19DF9DF04AF00161E8ECCF5400C9F0D2
S113547607FFADF0BDF2FAF28B9DF0311A9DF05A9A
S1135486F00161F8EC9B54008F52E09DF0D4F0617A
S1135496F8ECED5400C9F007FFADF0BDF2EAF2896D
S11354A65C019DF0D4F061F8ECBF54008F55E09D8B
S11354B6F0D4F061F8ECED54008F34E09DF09F13C6
S11354C6DFFC2D3800EC6A55008F19DF9DF04AF099
S11354D60361F8ECED54008F34E09DF09F13DFFC7C
S11354E62D3800EC6A5500EC6A550051079F19DF08
S11354F651079F1ADF8F5AE09DF04AF00161E8ECEC
S11355062955008F01E09DF04AF00261E8EC22552E
S113551600E6B800FCCA3A00EC295500E6B800FCDF
S1135526773A00E6B800FC0A3900F513DFFC2D389B
S113553600EC6A550051089F19DFF6B800FC133CCD
S113554600F513DFFC2D3800EC6A550051079F194E
S1135556DFE6B800FC133C00F513DFFC2D3800EC45
S11355666A5500001002D720028F14DF9DF0F4F173
S1135576ADF044020061F8EC335600ADF04402008D
S113558671FF61F3ECA85500ADF044000061F8EC3E
S1135596C25500ADF044010061F8ECD25500EC3977
S11355A65600ADF044030061F8EC1C5600ADF0441F
S11355B6040061F8EC385600EC3956008F34E09D4F
S11355C6F09F13DFFC863800EC39560051069F190C
S11355D6DF51069F1ADF8F5AE09DF04AF00161E819
S11355E6EC0A56008F01E09DF04AF00261E8EC03F4
S11355F65600F6B800FCCA3A00EC0A5600F6B800A3
S1135606FC773A00F6B800FC0A3900F513DFFC868D
S11356163800EC39560051089F19DFF6B800FC1320
S11356263C00F513DFFC863800EC39560000EC39F3
S11356365600001002D720028F14DF9DF0F4F1AD5E
S1135646F044020061F8ECC65700ADF04402007164
S1135656FF61F3EC775600ADF044000061F8EC917D
S11356665600ADF044010061F8ECF85600ECF1592F
S113567600ADF044030061F8EC945800ADF0440426
S11356860061F8EC445900ECF159008F19DF9DF0E4
S11356964AF00161E8ECBD56008F52E09DF04AF0F5
S11356A60261E8ECBD56008F34E09DF09F13DFFCE9
S11356B62D3800ECF456008F19DF9DF04AF0016195
S11356C6F8ECF456008F56E09DF04AF00161E8ECE0
S11356D6F4560000C9F007FFADF0BDF2FAF28B9D57
S11356E6F0311A9DF05AF00161E8ECDA5600ECF15B
S11356F659008F50E09DF0D4F061F8ECC257005188
S1135706069F19DF51069F1ADF8F58E09DF04AF075
S11357160161E8EC3D57008F01E09DF04AF002611B
S1135726E8EC365700F6B800FCCA3A00EC3D5700E0
S1135736F6B800FC773A00F6B800FC0A39008F5038
S1135746E09DF04AF00261E3EC91570000C9F007CE
S1135756FFADF0BDF2FAF28B9DF0311A9DF05AF0CE
S11357660161E8EC5357008F50E09DF04AF0036165
S1135776E8EC865700F513DFFC2D3800ECC2570021
S1135786F513DFFC863800ECF159008F50E09DF0EC
S11357964AF00261E8ECC257008F51E09DF0D4F064
S11357A661F8ECB75700F6B800FC0A3900ECC257AA
S11357B600F513DFFC863800ECF15900ECF15900D2
S11357C68F51E09DF0D4F061F8EC90580051079F9A
S11357D619DF51079F1ADF8F58E09DF04AF00161E7
S11357E6E8EC0B58008F01E09DF04AF00261E8EC0A
S11357F6045800E6B800FCCA3A00EC0B5800E6B8B8
S113580600FC773A00E6B800FC0A39008F51E09DA7
S1135816F04AF00261E3EC5F580000C9F007FFADFF
S1135826F0BDF2FAF28B9DF0311A9DF05AF0016147
S1135836E8EC2158008F51E09DF04AF00361E8EC52
S1135846545800F513DFFC863800EC905800F51325
S1135856DFFC2D3800ECF159008F51E09DF04AF041
S11358660261E8EC9058008F50E09DF0D4F061F8A6
S1135876EC855800E6B800FC0A3900EC905800F5AF
S113588613DFFC2D3800ECF15900ECF159008F5070
S1135896E09DF0D4F061F8EC40590051089F19DFFF
S11358A68F58E09DF04AF00161E8ECBB5800F6B869
S11358B600FC773A00F6B800FC133C008F50E09DDC
S11358C6F04AF00261E3EC0F590000C9F007FFAD9E
S11358D6F0BDF2FAF28B9DF0311A9DF05AF0016197
S11358E6E8ECD158008F50E09DF04AF00361E8ECF3
S11358F6045900F513DFFC893B00EC405900F5130D
S1135906DFFCCE3B00ECF159008F50E09DF04AF0ED
S11359160261E8EC4059008F51E09DF0D4F061F843
S1135926EC355900F6B800FC133C00EC405900F580
S113593613DFFCCE3B00ECF15900ECF159008F511A
S1135946E09DF0D4F061F8ECF0590051079F19DF9F
S11359568F58E09DF04AF00161E8EC6B5900E6B817
S113596600FC773A00E6B800FC133C008F51E09D3A
S1135976F04AF00261E3ECBF590000C9F007FFAD3D
S1135986F0BDF2FAF28B9DF0311A9DF05AF00161E6
S1135996E8EC8159008F51E09DF04AF00361E8EC90
S11359A6B45900F513DFFCCE3B00ECF05900F513B7
S11359B6DFFC893B00ECF059008F51E09DF04AF082
S11359C60261E8ECF059008F50E09DF0D4F061F8E4
S11359D6ECE55900E6B800FC133C00ECF05900F580
S11359E613DFFC893B00ECF05900001002D72002BB
S11359F68F14DF9DF0F4F1ADF044020061F8EC7809
S1135A065B00ADF044020071FF61F3EC2F5A00AD68
S1135A16F044000061F8EC495A00ADF0440100611D
S1135A26F8ECAD5A00EC9A5D00ADF044030061F861
S1135A36EC435C00ADF044040061F8ECF05C00EC6F
S1135A469A5D008F19DF9DF04AF00161E8EC755A02
S1135A56008F55E09DF04AF00261E8EC755A008F1C
S1135A6634E09DF09F13DFFC2D3800ECA95A008F1B
S1135A7619DF9DF04AF00161F8ECA95A008F56E04F
S1135A869DF04AF00261E8ECA95A0000C9F007FF4C
S1135A96ADF0BDF2EAF2895C019DF0D4F061E8EC68
S1135AA6925A00EC9A5D008F53E09DF0D4F061F8B1
S1135AB6EC745B0051069F19DF51069F1ADF8F585D
S1135AC6E09DF04AF00161E8ECF25A008F01E09D96
S1135AD6F04AF00261E8ECEB5A00F6B800FCCA3A68
S1135AE600ECF25A00F6B800FC773A00F6B800FC6F
S1135AF60A39008F53E09DF04AF00261E3EC435B00
S1135B060000C9F007FFADF0BDF2EAF2895C019D21
S1135B16F0D4F061E8EC085B008F53E09DF04AF0A6
S1135B260361E8EC385B00F513DFFC2D3800EC74F8
S1135B365B00F513DFFC863800EC9A5D008F53E0BA
S1135B469DF04AF00261E8EC745B008F54E09DF02E
S1135B56D4F061F8EC695B00F6B800FC0A3900EC95
S1135B66745B00F513DFFC863800EC9A5D00EC9A52
S1135B765D008F54E09DF0D4F061F8EC3F5C005179
S1135B86079F19DF51079F1ADF8F58E09DF04AF0EF
S1135B960161E8ECBD5B008F01E09DF04AF0026113
S1135BA6E8ECB65B00E6B800FCCA3A00ECBD5B0064
S1135BB6E6B800FC773A00E6B800FC0A39008F54D0
S1135BC6E09DF04AF00261E3EC0E5C0000C9F007C8
S1135BD6FFADF0BDF2EAF2895C019DF0D4F061E814
S1135BE6ECD35B008F54E09DF04AF00361E8EC03CC
S1135BF65C00F513DFFC863800EC3F5C00F513DF30
S1135C06FC2D3800EC9A5D008F54E09DF04AF002BA
S1135C1661E8EC3F5C008F53E09DF0D4F061F8EC52
S1135C26345C00E6B800FC0A3900EC3F5C00F5136E
S1135C36DFFC2D3800EC9A5D00EC9A5D008F53E092
S1135C469DF0D4F061F8ECEC5C0051089F19DF8FED
S1135C5658E09DF04AF00161E8EC6A5C00F6B80091
S1135C66FC773A00F6B800FC133C008F53E09DF035
S1135C764AF00261E3ECBB5C0000C9F007FFADF03B
S1135C86BDF2EAF2895C019DF0D4F061E8EC805C37
S1135C96008F53E09DF04AF00361E8ECB05C00F538
S1135CA613DFFC893B00ECEC5C00F513DFFCCE3B18
S1135CB600EC9A5D008F53E09DF04AF00261E8EC37
S1135CC6EC5C008F54E09DF0D4F061F8ECE15C00EC
S1135CD6F6B800FC133C00ECEC5C00F513DFFCCEDC
S1135CE63B00EC9A5D00EC9A5D008F54E09DF0D485
S1135CF6F061F8EC995D0051079F19DF8F58E09D1C
S1135D06F04AF00161E8EC175D00E6B800FC773A6A
S1135D1600E6B800FC133C008F54E09DF04AF00204
